S00F000043414E5F4C43442E7372656311
S11300000C94D3010C94F0010C94F0010C94F001C5
S11300100C94F0010C94F0010C94F0010C94F00198
S11300200C94F0010C94F0010C942C0D0C94430DE1
S11300300C94F0010C94F0010C94F0010C945D0DFF
S11300400C94F0010C94F0010C94F0010C94F00168
S11300500C94F0010C94F0010C94F0010C94F00158
S11300600C94F0010C94F2010C94F0010C94F00146
S11300700C94F0010C94F0010C94F0010C94F00138
S11300800C94F0010C94F0010C94F0010C94F00128
S11300900C94F0017A05F2056A06CC06FC063407D6
S11300A07007F2077C0878055C0941005720437506
S11300B07272656E743A00560031325620416B6B91
S11300C0753A004C0057617465723A006D560056DB
S11300D06D61783A006D5600566D696E3A004100C4
S11300E043757272656E743A005600566F6C746193
S11300F067653A00496E76616C69640050617261AB
S11301006D657472697A6174696F6E00506F77659A
S113011072205361766500496E76616C696420498A
S11301206E707574004C454D20416C61726D004FCA
S11301307665722054656D702E004F76657220438B
S1130140757272656E74005365636F6E64205072CD
S11301506F742E004572726F72005265616479008B
S1130160426174746572792046756C6C00426174E6
S113017074657279204869676800436861726769C9
S11301806E67004261747465727920456D7074798C
S11301900042617474657279204C6F77004469730E
S11301A06368617267696E6700496E697400202034
S11301B02020202020202020202020200053746193
S11301C074653A2000000000000000005F00000099
S11301D007000700147F147F14242A7F2A12231394
S11301E008646236495522500005030000001C22B1
S11301F041000041221C00082A1C2A0808083E0865
S113020008005030000008080808080030300000DA
S113021020100804023E5149453E00427F400042FE
S1130220615149462141454B311814127F1027452D
S11302304545393C4A494930017109050336494964
S11302404936064949291E00363600000056360054
S11302500000081422411414141414412214080038
S11302600201510906324979413E7E1111117E7F06
S1130270494949363E414141227F4141221C7F493F
S11302804949417F090901013E414151327F080832
S1130290087F00417F41002040413F017F08142234
S11302A0417F404040407F0204027F7F0408107F6A
S11302B03E4141413E7F090909063E4151215E7F8D
S11302C009192946464949493101017F01013F4045
S11302D040403F1F2040201F7F2018207F631408C8
S11302E014630304780403615149454300007F41CA
S11302F041020408102041417F000004020102046D
S11303004040404040000102040020545454787F8F
S1130310484444383844444420384444487F38549A
S1130320545418087E090102081454543C7F0804EC
S1130330047800447D40002040443D00007F1028A4
S11303404400417F40007C041804787C080404784D
S113035038444444387C14141408081414187C7C5D
S1130360080404084854545420043F4440203C40AA
S113037040207C1C2040201C3C4030403C44281041
S113038028440C5050503C4464544C4400083641BA
S11303900000007F0000004136080008082A1C08FD
S11303A0081C2A08080011241FBECFEFD0E1DEBFCD
S11303B0CDBF11E0A0E0B1E0E8EDFBE102C00590A3
S11303C00D92A030B107D9F725E0A0E0B1E001C05B
S11303D01D92AA32B207E1F70E94EA020C94EA0DD8
S11303E00C9400001F920F920FB60F9211248F935A
S11303F080910101882331F081E080930001109203
S1130400010105C0809101018F5F809301018F91EB
S11304100F900FBE0F901F90189580E0982F929523
S1130420907F9093ED00EEEEF0E01192E83FF1053D
S1130430E1F78F5F8F3091F708952091ED0080E010
S1130440982F9295907F9093ED009091EF00907C7F
S113045019F42093ED0008958F5F8F3089F720936E
S1130460ED008FEF08958091EF00807C61F0809122
S1130470EE00982F907E903241F0903441F0903A03
S113048041F08F7108958FEF089580E2089580E41C
S1130490089580EA089560E04091EF00262F30E04F
S11304A04F7050E02417350744F44091FA00FC01E2
S11304B0E20FF31F40836F5FEFCF089581E08093D5
S11304C0D8008AE08093E2008CE08093E30087E325
S11304D08093E40081E00895CF93DF93CDB7DEB736
S11304E064970FB6F894DEBF0FBECDBFFE013D96F4
S11304F088E0DF011D928A95E9F7F987E8871A8673
S113050080E890E09C838B831C861B861F8282E09C
S11305108A83CE0101960E9433058111FACFCE0160
S113052001960E941C0A8130D1F364960FB6F894A8
S1130530DEBF0FBECDBFDF91CF910895CF93DF9380
S1130540CDB7DEB764970FB6F894DEBF0FBECDBF4C
S1130550FE013D9688E0DF011D928A95E9F7F9874F
S1130560E8871A8686E891E09C838B831C861B8629
S11305701F8282E08A83CE0101960E943305811195
S1130580FACFCE0101960E941C0A8130D1F3649601
S11305900FB6F894DEBF0FBECDBFDF91CF910895A3
S11305A0CF93DF93EA01FC0128E011922150E9F78F
S11305B08F83988719867B836A831B861A8688E0D3
S11305C08E838983CE010E9433058111FBCFDF9195
S11305D0CF910895CF93DF93CDB7DEB76A970FB667
S11305E0F894DEBF0FBECDBFFE013D9688E0DF016B
S11305F01D928A95E9F785B7806885BF85B78068BD
S113060085BF849A279A989AA09A8C9ABFE926E87B
S113061031E0B15020403040E1F700C00000A09824
S11306208C9887EA91E60197F1F700C000002F98B3
S1130630A1EEB4E01197F1F700C0000080E00E9441
S113064024050E94090D0E94980B81EE94E0019705
S1130650F1F700C000000E94070C60E080E00E94F7
S1130660E90B8C9A789423E34EE16CE086E60E94D1
S1130670A60A23E04CE069E08FE60E94E80A1F8A9C
S1130680512C198E188EE12CF12CC12CD12C10E098
S1130690412C312CA12CB12C812C912C20E01E8AD0
S11306A01D8A0CE0E2E36E2E712CFEE32F2E8D8961
S11306B09E892A8F0E94210D2A8D8E34C0F30E94B8
S11306C01C0D9E8B8D8B0E946C020E949E022A8DB3
S11306D09F89911104C08C9AA1E0AF8B02C08C98C1
S11306E01F8A211135C0AE014F5F5F4F66E871E08C
S11306F0CE010D960E94D0028D899E890E94210D03
S11307008C33B0F4CE0101960E941C0A8111F4CFFF
S11307108D85AE84B12CBA2CAA24A80EB11C8F8569
S11307208888912C982C8824880E911C39881C89DF
S1130730CE0101960E941C0A811102C021E0B7CFAC
S11307400A83CE0101960E9433058111FACFF6CFB8
S1130750213099F5AE014F5F5F4F66E072E0CE0144
S11307600D960E94D0028D899E890E94210D8C33A2
S1130770A0F4CE0101960E941C0A8111F4CF8D854C
S1130780CE84D12CDC2CCC24C80ED11C8889E988D9
S1130790F12CFE2CEE24E80EF11CCE0101960E94F1
S11307A01C0A811102C022E082CF0A83CE01019685
S11307B00E9433058111FACFF6CF223009F077CFAA
S11307C0AE014F5F5F4F60E971E0CE010D960E946C
S11307D0D0028D899E890E94210D8C3358F4CE015C
S11307E001960E941C0A8111F4CF5E84B889B98FE6
S11307F02F85288FCE0101960E941C0A811144C0C6
S113080060E080E00E94E90B8DEB91E00E943B0CDC
S11308108EEA91E00E943B0C60E084E20E94E90BC6
S11308201F3009F448C0A8F41430E1F148F4123040
S113083099F1A8F5113009F050C089EA91E04FC050
S11308401630B1F190F1173009F047C080E691E01D
S113085046C01034C9F148F4103281F1103389F1E3
S11308601031D9F584E591E03AC0103681F128F4CD
S1130870103599F585E291E032C0103E59F1103FF0
S113088061F58CEF90E02BC00A83CE0101960E94A3
S113089033058111FACFB4CF8DE991E020C081E90D
S11308A091E01DC083E891E01AC08AE791E017C087
S11308B08DE691E014C08AE591E011C087E491E0EF
S11308C00EC08AE391E00BC08FE291E008C087E19B
S11308D091E005C08CE091E002C084EF90E00E94BA
S11308E03B0C61E080E00E94E90B8BEE90E00E94FB
S11308F03B0C24E630E0D4010E949F0D24E0969541
S11309008795779567952A95D1F7CB010E949D0C21
S113091089EE90E00E943B0C62E080E00E94E90BCB
S113092080EE90E00E943B0C24E630E0D5010E946A
S11309309F0D34E096958795779567953A95D1F70D
S1130940CB010E949D0C8EED90E00E943B0C63E075
S113095080E00E94E90B88ED90E00E943B0CC60108
S11309600E94EE0C85ED90E00E943B0C64E080E078
S11309700E94E90B8FEC90E00E943B0CC7010E949F
S1130980EE0C8CEC90E00E943B0C65E080E00E9451
S1130990E90B85EC90E00E943B0C852D992787FD9F
S11309A090950E94EE0C83EC90E00E943B0C66E074
S11309B080E00E94E90B89EB90E00E943B0C388DAB
S11309C0AAE03A02C00111240E949D0C87EB90E03A
S11309D00E943B0C67E080E00E94E90B8CEA90E007
S11309E00E943B0CB98D22E3B202C00111240E9483
S11309F09D0C8AEA90E00E943B0C341002C020E077
S1130A0056CE431480F4432C34E6331510F484E6B4
S1130A10482E242D2695622D621B4CE187E60E9408
S1130A20E80A342CECCF832D86959301281B3109D9
S1130A302233310510F021E330E04CE16DE087E62C
S1130A400E940E0B432CDBCF0E945E02882349F0E8
S1130A500E940D028091D80082608093D80081E0CA
S1130A60089580E008950F931F93CF93DF9300D0F0
S1130A7000D0CDB7DEB78C01DC0111968C911197B3
S1130A808C30A1F419968C911997803609F0C3C45F
S1130A908C918295807F8093ED008091EF008F731D
S1130AA08093EF001092EE001C92B5C40E941D02C8
S1130AB08F3F09F4B3C490E6D80119969C93199713
S1130AC08C938295807F8093ED00EEEEF0E011929E
S1130AD0E83FF105E1F7F801818190E0FC013197ED
S1130AE0EB30F10508F097C4E65BFF4F0C94990DC9
S1130AF080E091C3D8011B968C911B978823A1F1A8
S1130B0014968C91149782958695877015969C916E
S1130B10B8E09B9F800D11248093F300F80183813A
S1130B208295869587709481F8E09F9F800D1124AB
S1130B308093F200D80112968C9112978295869533
S1130B40877013969C91B8E09B9F800D112480932D
S1130B50F100F8018281880F880F880F8093F000DC
S1130B608091EF00806119C0D80112968C91129780
S1130B7086958695869513969C91B0E29B9F800DF1
S1130B8011248093F300F80182818295880F807E7E
S1130B908093F2008091EF008F7E8093EF0080E0DD
S1130BA0F8019681891760F4D8011796ED91FC91AC
S1130BB01897E80FF11D90819093FA008F5FF0CFA2
S1130BC08285882321F08091F000846003C08091A5
S1130BD0F0008B7F8093F0008091EF00D80116968F
S1130BE09C9169C0F8018385882391F18481829561
S1130BF0869587709581F8E09F9F800D11248093DE
S1130C00F300D80113968C9113978295869587707B
S1130C1014969C91B8E09B9F800D11248093F20060
S1130C20F80182818295869587709381F8E09F9F71
S1130C30800D11248093F100D80112968C91880FB5
S1130C40880F880F8093F0008091EF00806117C0B7
S1130C50F80182818695869586959381F0E29F9F1F
S1130C60800D11248093F300D80112968C91829503
S1130C70880F807E8093F2008091EF008F7E8093B6
S1130C80EF0080E0F8019681891760F4D801179687
S1130C90ED91FC911897E80FF11D90819093FA0063
S1130CA08F5FF0CF12868091F0008B7F8093F000ED
S1130CB08091EF009681892B8093EF008091EF0063
S1130CC08F738093EF008091EF0080648093EF0036
S1130CD080E0A9C3D8011B968C911B978823A1F1AE
S1130CE014968C91149782958695877015969C918D
S1130CF0B8E09B9F800D11248093F300F801838159
S1130D008295869587709481F8E09F9F800D1124C9
S1130D108093F200D80112968C9112978295869551
S1130D20877013969C91B8E09B9F800D112480934B
S1130D30F100F8018281880F880F880F8093F000FA
S1130D408091EF00806119C0D80112968C9112979E
S1130D5086958695869513969C91B0E29B9F800D0F
S1130D6011248093F300F80182818295880F807E9C
S1130D708093F2008091EF008F7E8093EF0081E0FA
S1130D80D8011A968C931A978091F000846080930E
S1130D90F0008091EF0023CF19821A821B821C82FB
S1130DA01092F7008A818295869587709B81B8E0BE
S1130DB09B9F800D11248093F600898182958695EE
S1130DC087709A81E8E09E9F800D11248093F5003E
S1130DD08981880F880F880F8093F4008091EF0039
S1130DE0D80116969C91892B8093EF008091F40092
S1130DF08B7F8093F4005CC219821A821B821C824E
S1130E001092F7008A818295869587709B81B8E05D
S1130E109B9F800D11248093F6008981829586958D
S1130E2087709A81E8E09E9F800D11248093F500DD
S1130E308981880F880F880F8093F4008091EF00D8
S1130E40D80116969C911697892B8093EF001A96D9
S1130E501C928091F40084608093F4008091F000EF
S1130E608B7F8093F00024C219821A821B821C8219
S1130E701092F7008A818295869587709B81B8E0ED
S1130E809B9F800D11248093F6008981829586951D
S1130E9087709A81E8E09E9F800D11248093F5006D
S1130EA08981880F880F880F8093F4008091EF0068
S1130EB0D80116969C911697892B8093EF0081E0B8
S1130EC01A968C938091F40084608093F40080914E
S1130ED0F00084608093F0008091EF008F7DE6C184
S1130EE0F8018385882391F18481829586958770A2
S1130EF09581F8E09F9F800D11248093F300D80121
S1130F0013968C91139782958695877014969C916D
S1130F10B8E09B9F800D11248093F200F801828138
S1130F208295869587709381F8E09F9F800D1124A8
S1130F308093F100D80112968C91880F880F880F46
S1130F408093F0008091EF00806117C0F8018281E6
S1130F508695869586959381F0E29F9F800D112456
S1130F608093F300D80112968C918295880F807E2D
S1130F708093F2008091EF008F7E8093EF008FEFDB
S1130F809FEFDC0189839A83AB83BC838093F70052
S1130F908A818295869587709B81B8E09B9F800D9E
S1130FA011248093F60089818295869587709A81B1
S1130FB0E8E09E9F800D11248093F5008981880FBD
S1130FC0880F880F8093F4008091EF00D801169663
S1130FD09C91892B8093EF008091F4008B7F809308
S1130FE0F4000BC2F8018385882391F184818295F2
S1130FF0869587709581F8E09F9F800D11248093DA
S1131000F300D80113968C91139782958695877077
S113101014969C91B8E09B9F800D11248093F2005C
S1131020F80182818295869587709381F8E09F9F6D
S1131030800D11248093F100D80112968C91880FB1
S1131040880F880F8093F0008091EF00806117C0B3
S1131050F80182818695869586959381F0E29F9F1B
S1131060800D11248093F300D80112968C918295FF
S1131070880F807E8093F2008091EF008F7E8093B2
S1131080EF008FEF9FEFDC0189839A83AB83BC83EE
S11310908093F7008A818295869587709B81B8E05A
S11310A09B9F800D11248093F600898182958695FB
S11310B087709A81E8E09E9F800D11248093F5004B
S11310C08981880F880F880F8093F4008091EF0046
S11310D0D80116969C911697892B8093EF001A9647
S11310E01C928091F40084608093F4008091F0005D
S11310F08B7F8093F00081C1F8018385882391F16F
S113110084818295869587709581F8E09F9F800DF4
S113111011248093F300D80113968C911397829530
S11311208695877014969C91B8E09B9F800D11243E
S11311308093F200F801828182958695877093816D
S1131140F8E09F9F800D11248093F100D80112963E
S11311508C91880F880F880F8093F0008091EF00A6
S1131160806117C0F8018281869586958695938162
S1131170F0E29F9F800D11248093F300D801129612
S11311808C918295880F807E8093F2008091EF008D
S11311908F7E8093EF004FEF5FEFBA0149835A834C
S11311A06B837C838FEF8093F7008A818295869589
S11311B087709B81B8E09B9F800D11248093F6007B
S11311C089818295869587709A81E8E09E9F800D3B
S11311D011248093F5008981880F880F880F8093EC
S11311E0F4008091EF00D80116969C911697892BF4
S11311F08093EF0081E01A968C938091F4008460D0
S11312008093F4008091F00084608093F0008091DA
S1131210EF008F7DF0C0F8019681891760F4D80142
S11312201796ED91FC911897E80FF11D908190931A
S1131230FA008F5FF0CF19821A821B821C821092EF
S1131240F7008A818295869587709B81F8E09F9F3D
S1131250800D11248093F60089818295869587708C
S11312609A8128E0929F800D11248093F500898152
S1131270880F880F880F8093F4008091EF00D801C5
S113128016969C911697892B8093EF0081E01A960D
S11312908C938091F40084608093F4008091F0003A
S11312A084608093F0008091EF0080628093EF006F
S11312B08091F4008E7FA4C0F8018385882391F186
S11312C084818295869587709581F8E09F9F800D33
S11312D011248093F300D80113968C91139782956F
S11312E08695877014969C91B8E09B9F800D11247D
S11312F08093F200F80182818295869587709381AC
S1131300F8E09F9F800D11248093F100D80112967C
S11313108C91880F880F880F8093F0008091EF00E4
S1131320806117C0F80182818695869586959381A0
S1131330F0E29F9F800D11248093F300D801129650
S11313408C918295880F807E8093F2008091EF00CB
S11313508F7E8093EF0080E0F8019681891760F416
S1131360D8011796ED91FC911897E80FF11D908123
S11313709093FA008F5FF0CF4FEF5FEFBA0149838C
S11313805A836B837C838FEF8093F7008A818295E5
S1131390869587709B81F8E09F9F800D1124809330
S11313A0F60089818295869587709A8128E0929FBC
S11313B0800D11248093F5008981880F880F880F90
S11313C08093F4008091EF00D80116969C911697B3
S11313D0892B8093EF0081E01A968C938091F4001E
S11313E084608093F4008091F00084608093F00026
S11313F08091EF0080628093EF008091F40081601F
S11314008093F4008091EF008F738093EF008091BC
S1131410EF0080685BCCF80111865ACC8FE1D801CB
S113142019968C938FEF0F900F900F900F90DF9180
S1131430CF911F910F9108951F93CF93DF93EC01E8
S11314408985882309F47BC08F3109F478C08F3FE4
S113145009F475C088818295807F8093ED000E9495
S11314603302182F803259F020F4882309F469C01C
S11314705EC0803409F451C0803A09F058C08091AC
S1131480EF008F708E838F8198850E944B0280912C
S1131490F00082FB882780F98A878091EF0084FF1F
S11314A029C081E08B878091F30086958695869587
S11314B08D838091F2009091F300869586958695B0
S11314C020E2929F800D11248C838091F1009091F1
S11314D0F20086958695869520E2929F800D1124D0
S11314E08B838091F0009091F10086958695869586
S11314F020E20FC01B868091F30082958695877049
S11315008B838091F2009091F30082958695877089
S113151028E0929F800D11248A8319878091EF001F
S11315208F738093EF001092EE0080E00BC0198758
S11315308091EF008F738093EF001092EE0082E0B1
S113154001C081E0DF91CF911F910895CF92DF9286
S1131550EF92FF920F931F93CF93DF931F92CDB718
S1131560DEB7D82E162FF42EE22EE60EC62E0FEF7F
S1131570040F080FCE1471F041E06C2D8D2D2983DA
S11315800E94560C41E06C2D802F0E94560CC3948F
S11315902981F0CFFD0C0D2DEE24EA94E10EE20E2C
S11315A00F1561F041E0612F802F0E94560C41E03D
S11315B06E2D802F0E94560C0F5FF2CF0F90DF919B
S11315C0CF911F910F91FF90EF90DF90CF900895EE
S11315D0EF92FF920F931F93CF93DF931F92CDB798
S11315E0DEB7062F142F180FE82E260FE11671F020
S11315F0F02EF21649F041E06F2D8E2D29830E94C2
S1131600560CF3942981F5CFE394F0CF0F90DF913A
S1131610CF911F910F91FF90EF900895EF92FF9259
S11316200F931F93CF93DF931F92CDB7DEB7062F8F
S1131630142F180FE82E260FE11671F0F02EF21673
S113164049F040E06F2D8E2D29830E94560CF394AF
S11316502981F5CFE394F0CF0F90DF91CF911F91C3
S11316600F91FF90EF900895229A219A209A0F9A51
S11316702398289A8CB58E658CBD109229051092FA
S1131680280510922705109226050895179A289880
S11316908EBD0DB407FEFDCF289A409126055091CA
S11316A02705209128053091290594E8949FF0019D
S11316B0959FF00D1124E20FF31FEE5FFE4F808320
S11316C080912805909129058438910548F48091EA
S11316D02805909129050196909329058093280562
S11316E00895179828988EBD0DB407FEFDCF289A4B
S11316F0089590E0909329058093280570E07093F5
S11317002705609326050895209126053091270525
S1131710809128059091290544E8429FF001439F58
S1131720F00D1124E80FF91FEE5FFE4F808108953C
S11317300E94340B81EA0E94710B80EC0E94710BB1
S113174082EA0E94710B8FE20E94710B80E18A95FC
S1131750F1F700C080E18A95F1F700C080E18A9535
S1131760F1F700C080E18A95F1F700C080E18A9525
S1131770F1F700C080E18A95F1F700C080E18A9515
S1131780F1F700C080E18A95F1F700C080E18A9505
S1131790F1F700C080E18A95F1F700C081E80E946A
S11317A0710B84E10E94710B84EA0E94710B8FEA31
S11317B00E94710B86EA0E94710B80EB0E94710BF0
S11317C080E10E94710B80E00E94710B80E40C9414
S11317D0710B1F93CF93DF931F92CDB7DEB7182FF2
S11317E082958F70806169830E94710B812F8F7045
S11317F00E94710B6981862F806B0E94710B698135
S1131800812F0F90DF91CF911F910C94790BCF937F
S1131810DF93C0E06C2F80E00E94E90BD4E880E005
S11318200E94460BD150D9F7CF5FC83099F7DF91AA
S1131830CF9108950F931F93CF93DF9390E08097F8
S113184025E0289F8001299F100D1124C0E0D0E0DD
S11318500B531E4FF801EC0FFD1F84910E94460BA1
S11318602196C530D105B1F780E0DF91CF911F916A
S11318700F910C94460BCF93DF93FC018491EF01FD
S11318802196882321F00E941A0CFE01F7CFDF91E4
S1131890CF910895CF93DF93EC018991882319F0B8
S11318A00E941A0CFACFDF91CF910895DF92EF9244
S11318B0FF920F931F93CF93DF939C01CB017A0187
S11318C060E470E00E94850DEC018C0197FF02C07A
S11318D0095F1F4F83E0159507958A95E1F7C901C4
S11318E064E870E00E94850DD82E602F0E94E90BF9
S11318F00E94840B482FCE0168E070E00E94850DA1
S113190021E030E0082E01C0220F0A94EAF7EF2804
S113191019F0C42FC22B03C0C22FC095C423602F5B
S11319208D2D0E94E90B8C2FDF91CF911F910F9188
S1131930FF90EF90DF900C94460B0F931F93CF937F
S1131940DF93CDB7DEB727970FB6F894DEBF0FBE8F
S1131950CDBF8C014AE0BE016F5F7F4F0E94B50D81
S1131960043611056CF480E30E941A0C80E30E9493
S11319701A0C8EE20E941A0CCE0101968C011BC037
S1131980083E134064F480E30E941A0C89810E948B
S11319901A0C8EE20E941A0CCE010296EFCF8981B6
S11319A00E941A0C8A810E941A0C8EE20E941A0C60
S11319B0CE010396E3CFF80181918F01882319F0BA
S11319C00E941A0CF8CF27960FB6F894DEBF0FBE0C
S11319D0CDBFDF91CF911F910F910895CF93DF93E6
S11319E0CDB7DEB727970FB6F894DEBF0FBECDBFD5
S11319F04AE0BE016F5F7F4F0E94B50D0E944A0C02
S1131A0027960FB6F894DEBF0FBECDBFDF91CF91FE
S1131A100895E6EBF0E0808188608083E0EBF0E0FD
S1131A20808181608083E0E7F0E080818160808351
S1131A3083B3886183BB0895809124059091250523
S1131A4008959C01809124059091250582179307A0
S1131A5008F48150821B08951F920F920FB60F92C3
S1131A6011248F939F9380912405909125050196CD
S1131A7090932505809324059F918F910F900FBE1D
S1131A800F901F9018951F920F920FB60F9211246A
S1131A908F939F931092850010928400809186000A
S1131AA09091870090932305809322059F918F91B5
S1131AB00F900FBE0F901F9018951F920F920FB6A4
S1131AC00F9211248F939F9381E090E090932305CC
S1131AD0809322059F918F910F900FBE0F901F90BE
S1131AE01895AA1BBB1B51E107C0AA1FBB1FA61751
S1131AF0B70710F0A61BB70B881F991F5A95A9F7B3
S1131B0080959095BC01CD01089597FB072E16F49E
S1131B10009407D077FD09D00E94710D07FC05D011
S1131B203EF4909581959F4F0895709561957F4FF0
S1131B300895EE0FFF1F0590F491E02D09940E9483
S1131B40A60DB7FF0895821B930B0895A29FB001C1
S1131B50B39FC001A39F700D811D1124911DB29FDD
S1131B60700D811D1124911D0895BB274A3031F455
S1131B70992322F4BDE2909581959F4F0C94C10D59
S1131B80BB27FB015527AA27880F991FAA1FA41753
S1131B9010F0A41B83955051B9F7A05DAA3308F047
S1131BA0A95DA193009779F7B111B1931192CB017B
S1131BB00C94DA0DDC01FC01672F71917723E1F7B6
S1131BC0329704C07C916D9370836291AE17BF0706
S10B1BD0C8F30895F894FFCF57
S9030000FC
