:100000000C943E000C945B000C945B000C945B0021
:100010000C945B000C9409060C945B000C945B0040
:100020000C945B000C945B000C945B000C945B00E4
:100030000C948D060C9497060C9483060C946C0615
:100040000C945B000C945B000C94CD040C945B004E
:100050000C945B000C945B000C9434030C947F03B1
:100060000C945B000C945B000C945B000C940801F6
:100070000C945B000C945B000C945B0011241FBE7D
:10008000CFEFD8E0DEBFCDBF11E0A0E0B1E0E6EBFE
:10009000FDE002C005900D92AE30B107D9F721E026
:1000A000AEE0B1E001C01D92AD35B207E1F70E94AC
:1000B00079010C94D9060C940000EBE7F0E0808104
:1000C000806A8083EAE7F0E080818F688083ECE7D4
:1000D000F0E08081806480830895ECE7F0E0908117
:1000E0008F70907F982B90830895EAE7F0E08081ED
:1000F00080648083089580911C01882319F1809188
:10010000110181111FC0E0911D0180917800909133
:100110007900F0E0EE0FFF1FEE5EFE4F91838083CB
:1001200010921C0180911D01843030F010921D014D
:1001300081E080931101089580911D018F5F80936C
:100140001D01089580911101813039F5109210013F
:1001500010920F01E4E1F1E04CE151E02191319185
:1001600080910F0190911001820F931F90931001C5
:1001700080930F01E417F50789F780910F019091A3
:100180001001969587959695879590931001809389
:100190000F0182E08093110108958230C1F58091B2
:1001A0000E01893069F08A30A1F08430D1F4809159
:1001B0000F0190911001909333018093320111C08F
:1001C00080910F0190911001909331018093300143
:1001D00008C080910F019091100190932F0180939E
:1001E0002E0180910E018A3030F480910E018F5FD4
:1001F00080930E0102C010920E01E0910E01F0E01A
:10020000E050FF4F8081882361F31092110108951F
:100210001F920F920FB60F9211242F933F934F937B
:100220005F936F937F938F939F93AF93BF93EF935E
:10023000FF9390917C0080910E019F70981729F098
:1002400080910E010E946D0003C081E080931C012B
:100250000E947500FF91EF91BF91AF919F918F9197
:100260007F916F915F914F913F912F910F900FBEB2
:100270000F901F90189589B5836089BD529A539A43
:100280005A9A5B9A239A579856985598219820988D
:100290003998519838985F9A5E9A5D9A299A289A67
:1002A000419A599A409A22983C982598E8E6F0E0BD
:1002B000808183608083EAE6F0E0808184608083CF
:1002C000EBE6F0E0808180618083089589B1881F2A
:1002D0008827881F4E9982604D998460199988609B
:1002E0001899806131998062499980643099806859
:1002F0000895CF93DF9300D000D0CDB7DEB70E9432
:100300003B010E941E060E9466010E94CA030E94D1
:100310005D000E949E0578941A9B06C0349B04C021
:1003200081E080930B0115C01A9B07C02B9A109295
:100330000B0182E0809321010CC0349B07C02B9AF3
:1003400010920B0181E08093210103C081E0809332
:100350000B012B9A0E9475000E9431069A838983B3
:100360000E9431068C01412C512C1C821B820F2EC5
:10037000F8E3AF2EF1E0BF2EF02D0F2EF9E3CF2ED4
:10038000F1E0DF2EF02D0F2EF5E3EF2EF1E0FF2E42
:10039000F02D0F2EF6E38F2EF1E09F2EF02D0F2E75
:1003A000F7E36F2EF1E07F2EF02D0F2EF0E32F2ECE
:1003B000F1E03F2EF02D0E9458068823E1F30E94C1
:1003C000DC040E947B000E94D40580912001F5018D
:1003D000808383B18072F60180832B81F7012083B3
:1003E000F4015082F3014082C8010E943606813533
:1003F000934C70F02B982FEF83EC99E021508040C4
:100400009040E1F700C000000E9431068C012B9A59
:1004100080912101823021F080912101813039F4D5
:100420005A9A1D9902C05B9A0BC05B9809C08091D3
:100430002101833019F45A985B9A02C05A985B984C
:10044000F101A081B181CD018A579F4F8F3F934029
:10045000A8F42AEA30E00E94D206DC01CB018A55DA
:10046000964AAF4FBF4F072E7AE0B695A79597955E
:1004700087957A95D1F7702D482E01C0412CE2E383
:10048000F1E0A081B181CD014A978F3F9340A8F45C
:1004900028EC30E00E94D206DC01CB018858934161
:1004A000A109B109072E7AE0B695A795979587958A
:1004B0007A95D1F7702D582E01C0512CEEE2F1E063
:1004C000A081B181CD0192508F3F9340B0F420E2E2
:1004D00033E00E94D206DC01CB01805E9C43A64043
:1004E000B109072E7AE0B695A795979587957A95E5
:1004F000D1F7702D9C838B8302C01B821C8280915C
:100500002101833009F457CF80912101882309F418
:1005100052CF80912101823029F0809121018130D8
:1005200009F049CF1D9B05C08B819C818C379105BB
:1005300038F41D9912C0EB81FC81E035F10568F0BB
:1005400080911E0190911F010E943606499728F064
:1005500083E0809321010E94CE050E9431068C0128
:1005600080912001811108C00E9431069A838983FD
:1005700081E0809320011FCF809120018130E1F440
:1005800089819A810E9436060F9708F414CF1D9B2B
:1005900003C088EC90E002C082EC91E090935C0193
:1005A00080935B0182E0809320010E9431069A8350
:1005B00089830E94C205FFCE80912001823009F01C
:1005C00050C089819A810E943606209121012230F3
:1005D00011F423B101C023B1499708F4ECCE0E9475
:1005E00031069A83898320915B0130915C0180916F
:1005F0002101823029F41D9B08C084EE93E00AC0DB
:100600001D9B06C084EE93E005C080EE93E002C01F
:1006100080EE93E082179307D0F080912101823021
:1006200029F41D9B08C084E090E00AC01D9B06C011
:1006300084E090E005C088E090E002C088E090E0AF
:10064000820F931F90935C0180935B01B4CE88EE80
:1006500093E090935C0180935B0183E080932001A1
:10066000AACE80912001A7CE1F920F920FB60F92B3
:1006700011242F933F934F935F936F937F938F93A7
:100680009F93AF93BF93EF93FF931A9B1BC08091EF
:100690002101811117C082E0809321010E9431065F
:1006A00090931F0180931E0184E690E090935C017B
:1006B00080935B0180910B01813081F410920B01DA
:1006C0002B9A0CC01A990AC080912101882331F01D
:1006D000109221010E94CE0510922001FF91EF910E
:1006E000BF91AF919F918F917F916F915F914F914A
:1006F0003F912F910F900FBE0F901F9018951F9252
:100700000F920FB60F9211242F933F934F935F9345
:100710006F937F938F939F93AF93BF93EF93FF93C9
:10072000349B1BC080912101811117C081E080930F
:1007300021010E94310690931F0180931E0184E6DF
:1007400090E090935C0180935B0180910B0181307C
:1007500081F410920B012B9A0CC034990AC080913D
:100760002101882331F0109221010E94CE051092C0
:100770002001FF91EF91BF91AF919F918F917F9158
:100780006F915F914F913F912F910F900FBE0F90FE
:100790001F9018952F923F925F926F927F928F9247
:1007A0009F92AF92BF92CF92DF92EF92FF920F9300
:1007B0001F93CF93DF9380FD0CC00F2EF0E98F2E97
:1007C00099249394F02D6894662464F8772471F842
:1007D0000CC00F2EF1E98F2E99249394F02D0F2E3B
:1007E000F1E16F2EF2E07F2EF02D81FF06C092E046
:1007F000690E711CA2E08A0E911C82FF06C0B4E053
:100800006B0E711CC4E08C0E911C81E08093D800AB
:100810001092E500E2EEF0E080818E608083E3EEEE
:10082000F0E080818C608083E4EEF0E0808187637B
:10083000808380E0CDEED0E0AFEEB0E0EEEEF0E011
:10084000982F9295907F98831C9210828F5F8630AC
:10085000B9F7EBEDF0E08081806A80830F2EFDEE2A
:10086000CF2ED12CF02DF60110820F2EF4EFEF2EAB
:10087000F12CF02DD7011C9205EF10E0E801188251
:1008800066EF70E099249A94FB01908247EF50E064
:10089000DA019C92EFEEF0E0108280818068808324
:1008A00020EF30E0E90118820F2EF1EF2F2E312CCE
:1008B000F02DD1011C92C2EFD0E018820F2EF3EF81
:1008C000AF2EB12CF02D6894772474F8D5017C926A
:1008D000AEEDB0E05C90C52DC160CC93E6017882AE
:1008E000E7011882E8011882EB019882EA019882F8
:1008F00010827080D72DD868D083E9011882E10179
:100900001882660C660C660C660C660CC2EFD0E0B2
:1009100068820F2EF2E47F2EF02DE50178827C9024
:10092000D72DD260DC936894772475F8E60178823D
:10093000E7011882E801188210EEEB011883EA0142
:1009400098821082F9011082E1011882880C880CCB
:10095000880C880C880CE2EFF0E0808282E3E501ED
:1009600088838C9184608C9310922501E8EDF0E0EF
:10097000808182608083DF91CF911F910F91FF90E2
:10098000EF90DF90CF90BF90AF909F908F907F902F
:100990006F905F903F902F9008951F920F920FB627
:1009A0000F9211248F9381E0809325018F910F90F6
:1009B0000FBE0F901F90189580912501882331F16B
:1009C000109225018091EC00807FEDEEF0E08083B5
:1009D000808182958F7081F48091EE0085FF03C045
:1009E00081E0809324011092EE00EFEEF0E010829F
:1009F00080818068808308958091ED0082958F705A
:100A0000823009F09AC01092EE000895809124017E
:100A1000882309F440C080910C018295807F8093E7
:100A2000ED008091DC0090E000900C0102C09595F3
:100A300087950A94E2F780FD1DC080E090E0AAEF60
:100A4000B0E0E0910C01F0E03197EE0FFF1FEE0FE8
:100A5000FF1FEE0FFF1FE80FF91FE55CFE4F20811F
:100A60002C9301968830910561F71092EE0088E48E
:100A70008093EF0080910C01823048F082E08093F7
:100A80000C011092240181E08093230108958F5F6F
:100A900080930C01089580912301882309F44DC0AF
:100AA00080912201811104C081E080932201089588
:100AB000813001F5809138018093430180913601A6
:100AC00080934401809137018093450180913501E5
:100AD00080934601809139018093470180913A01CA
:100AE000809348011092490110924A0182E080935C
:100AF000220108958230B1F48091380180934B0136
:100B000010924C0110924D0110924E0110924F0123
:100B100010925001109251011092520183E0809383
:100B200022010895833049F481E0809353011092AB
:100B3000540110922301109222010895509A58985E
:100B4000589AE5EBF0E080818C608083E7EBF0E081
:100B500080E88083A8EBB0E08C9180688C938FEF65
:100B600097E09093B3008093B20081E08093B60049
:100B700084E690E090935C0180935B0180818E7F9E
:100B8000808308958CEC90E09093A3008093A20062
:100B9000E7EBF0E08081816080830895E7EBF0E08F
:100BA00080818E7F8083089580915B0190915C01AC
:100BB00020912801309129018217930749F1893E3C
:100BC00023E0920728F4909327018093260106C022
:100BD00088EE93E0909327018093260120912601CF
:100BE00030912701AFEFB7E00E94C30628EE33E053
:100BF00040E050E00E94A1063093A3002093A200A1
:100C000080915B0190915C01909329018093280170
:100C100008951F920F920FB60F9211248F93EF93A6
:100C2000FF93ECEBF0E0808182608083FF91EF9195
:100C30008F910F900FBE0F901F90189584B5826012
:100C400084BD89EF87BDEEE6F0E08081826080831D
:100C500085B5836085BDE1E8F0E0808183608083B5
:100C6000089580912C0190912D01089520912C01DF
:100C700030912D012817390728F0A901481B590B7D
:100C8000CA010895281B390BC901019708952091C5
:100C90008400309185002817390728F0A901481BE6
:100CA000590BCA010895281B390BC90101970895F2
:100CB00080912A0190912B010E944706499750F09C
:100CC000809184009091850090932B0180932A015C
:100CD00081E0089580E008951F920F920FB60F9261
:100CE00011248F939F9380912C0190912D01019657
:100CF00090932D0180932C019F918F910F900FBEA7
:100D00000F901F9018951F920F920FB60F921124FB
:100D10000F900FBE0F901F9018951F920F920FB655
:100D20000F9211240F900FBE0F901F9018951F92D5
:100D30000F920FB60F9211240F900FBE0F901F90BD
:100D40001895A1E21A2EAA1BBB1BFD010DC0AA1FFC
:100D5000BB1FEE1FFF1FA217B307E407F50720F024
:100D6000A21BB30BE40BF50B661F771F881F991F9F
:100D70001A9469F760957095809590959B01AC01E8
:100D8000BD01CF010895A29FB001B39FC001A39FF1
:100D9000700D811D1124911DB29F700D811D1124B4
:100DA000911D08950E94C306B7FF0895821B930BFF
:060DB0000895F894FFCF46
:0E0DB600000000000100000000010101020029
:00000001FF
