S00F000043414E5F4C43442E7372656311
S11300000C94D3010C9427020C9438020C944902EA
S11300100C945A020C94F0010C94F0010C94F0012D
S11300200C94F0010C94F0010C94720D0C946C027D
S11300300C94F0010C94F0010C94F0010C94890DD3
S11300400C94F0010C94F0010C94F0010C94F00168
S11300500C94F0010C94F0010C94F0010C94F00158
S11300600C94F0010C94F2010C94F0010C94F00146
S11300700C94F0010C94F0010C94F0010C94F00138
S11300800C94F0010C94F0010C94F0010C94F00128
S11300900C94F001B2052A06A206040734076C0783
S11300A0A8072A08B408B0059409410057204375ED
S11300B07272656E743A00560031325620416B6B91
S11300C0753A004C0057617465723A006D560056DB
S11300D06D61783A006D5600566D696E3A004100C4
S11300E043757272656E743A005600566F6C746193
S11300F067653A00496E76616C69640050617261AB
S11301006D657472697A6174696F6E00506F77659A
S113011072205361766500496E76616C696420498A
S11301206E707574004C454D20416C61726D004FCA
S11301307665722054656D702E004F76657220438B
S1130140757272656E74005365636F6E64205072CD
S11301506F742E004572726F72005265616479008B
S1130160426174746572792046756C6C00426174E6
S113017074657279204869676800436861726769C9
S11301806E67004261747465727920456D7074798C
S11301900042617474657279204C6F77004469730E
S11301A06368617267696E6700496E697400202034
S11301B02020202020202020202020200053746193
S11301C074653A2000000000000000005F00000099
S11301D007000700147F147F14242A7F2A12231394
S11301E008646236495522500005030000001C22B1
S11301F041000041221C00082A1C2A0808083E0865
S113020008005030000008080808080030300000DA
S113021020100804023E5149453E00427F400042FE
S1130220615149462141454B311814127F1027452D
S11302304545393C4A494930017109050336494964
S11302404936064949291E00363600000056360054
S11302500000081422411414141414412214080038
S11302600201510906324979413E7E1111117E7F06
S1130270494949363E414141227F4141221C7F493F
S11302804949417F090901013E414151327F080832
S1130290087F00417F41002040413F017F08142234
S11302A0417F404040407F0204027F7F0408107F6A
S11302B03E4141413E7F090909063E4151215E7F8D
S11302C009192946464949493101017F01013F4045
S11302D040403F1F2040201F7F2018207F631408C8
S11302E014630304780403615149454300007F41CA
S11302F041020408102041417F000004020102046D
S11303004040404040000102040020545454787F8F
S1130310484444383844444420384444487F38549A
S1130320545418087E090102081454543C7F0804EC
S1130330047800447D40002040443D00007F1028A4
S11303404400417F40007C041804787C080404784D
S113035038444444387C14141408081414187C7C5D
S1130360080404084854545420043F4440203C40AA
S113037040207C1C2040201C3C4030403C44281041
S113038028440C5050503C4464544C4400083641BA
S11303900000007F0000004136080008082A1C08FD
S11303A0081C2A08080011241FBECFEFD0E1DEBFCD
S11303B0CDBF11E0A0E0B1E0E0E3FCE102C00590B4
S11303C00D92A030B107D9F725E0A0E0B1E001C05B
S11303D01D92AC32B207E1F70E9428030C94160E6A
S11303E00C9400001F920F920FB60F9211248F935A
S11303F080910101882331F081E080930001109203
S1130400010105C0809101018F5F809301018F91EB
S11304100F900FBE0F901F901895509851985298B6
S113042053985498589A599A5A9A5B9A5C9AE9E65E
S1130430F0E080818A6A80838DB38F608DBBEFE6A4
S1130440F0E08081806280831092020108951F92FF
S11304500F920FB60F9211248F93809102018F5F38
S1130460809302018F910F900FBE0F901F901895EB
S11304701F920F920FB60F9211248F938091020155
S11304808F5F809302018F910F900FBE0F901F908A
S113049018951F920F920FB60F9211248F9380918B
S11304A002018F5F809302018F910F900FBE0F9016
S11304B01F9018951F920F920FB60F9211248F93CD
S11304C08C9A809102018F5F809302018F910F902B
S11304D00FBE0F901F9018951F920F920FB60F9298
S11304E011248F93809102018F5F809302018F9179
S11304F00F900FBE0F901F90189580E0982F929543
S1130500907F9093ED00EEEEF0E01192E83FF1055C
S1130510E1F78F5F8F3091F708952091ED0080E02F
S1130520982F9295907F9093ED009091EF00907C9E
S113053019F42093ED0008958F5F8F3089F720938D
S1130540ED008FEF08958091EF00807C61F0809141
S1130550EE00982F907E903241F0903441F0903A22
S113056041F08F7108958FEF089580E2089580E43B
S1130570089580EA089560E04091EF00262F30E06E
S11305804F7050E02417350744F44091FA00FC0101
S1130590E20FF31F40836F5FEFCF089581E08093F4
S11305A0D8008AE08093E2008CE08093E30087E344
S11305B08093E40081E00895CF93DF93CDB7DEB755
S11305C064970FB6F894DEBF0FBECDBFFE013D9613
S11305D088E0DF011D928A95E9F7F987E8871A8692
S11305E080E890E09C838B831C861B861F8282E0BC
S11305F08A83CE0101960E946B058111FACFCE0148
S113060001960E94540A8130D1F364960FB6F8948F
S1130610DEBF0FBECDBFDF91CF910895CF93DF939F
S1130620EA01FC0128E011922150E9F78F839887B1
S113063019867B836A831B861A8688E08E83898366
S1130640CE010E946B058111FBCFDF91CF910895FC
S1130650CF93DF93CDB7DEB768970FB6F894DEBFBC
S11306600FBECDBFFE013D9688E0DF011D928A9545
S1130670E9F785B7806885BF85B7806885BF849AA8
S1130680279A2F980E940D0281EE94E00197F1F7CA
S113069000C000000E94D00BA1EEB4E01197F1F766
S11306A000C000000E943F0C60E080E00E94210C2A
S11306B080E00E945C050E944F0D8C98789423E39F
S11306C04EE16CE086E60E94DE0A23E04CE069E03D
S11306D08FE60E94200B512C212C1D8A1E8AE12CAE
S11306E0F12CC12CD12C10E0412C612CA12CB12C6B
S11306F0712C812C912C01E0ECE03E2EC4010E946F
S1130700670D8E34D8F30E94620D4C010E94DC0206
S11307105AE390E095156CF423E04AE1652F88E6EE
S1130720588F9F8B0E94200B9F899F5F588D545038
S1130730F1CF5394BDE05B1207C021E34CE16DE0BF
S113074087E60E94460B512C80910301811104C05D
S11307508C9A0093030103C08C98109203017110CA
S11307602EC0AE014F5F5F4F66E871E0CE010D967B
S11307700E940E03C4010E94670D8C3378F4CE01ED
S113078001960E94540A8111F5CF8F85A888B12C57
S1130790BA2CAA24A80EB11C69881C89CE01019622
S11307A00E94540A811103C077247394A7CF3A821C
S11307B0CE0101960E946B058111FACFF5CF21E09D
S11307C0721233C0AE014F5F5F4F66E072E0CE013C
S11307D00D960E940E03C4010E94670D8C33A0F491
S11307E0CE0101960E94540A8111F5CF8D85CE84E5
S11307F0D12CDC2CCC24C80ED11C8889E988F12C9E
S1130800FE2CEE24E80EF11CCE0101960E94540A3F
S1130810811103C042E0742E71CF3A82CE01019659
S11308200E946B058111FACFF5CF32E0731266CFC7
S1130830AE014F5F5F4F60E971E0CE010D960E94FB
S11308400E03C4010E94670D8C3358F4CE01019647
S11308500E94540A8111F5CF2E8488898D8B9F853F
S11308609E8BCE0101960E94540A811144C060E01F
S113087080E00E94210C8DEB91E00E94730C8EEAC3
S113088091E00E94730C60E084E20E94210C1F300E
S113089009F448C0A8F41430E1F148F4123099F195
S11308A0A8F5113009F050C089EA91E04FC0163024
S11308B0B1F190F1173009F047C080E691E046C0ED
S11308C01034C9F148F4103281F1103389F1103138
S11308D0D9F584E591E03AC0103681F128F4103559
S11308E099F585E291E032C0103E59F1103F61F56F
S11308F08CEF90E02BC03A82CE0101960E946B05EA
S11309008111FACFB4CF8DE991E020C081E991E063
S11309101DC083E891E01AC08AE791E017C08DE614
S113092091E014C08AE591E011C087E491E00EC023
S11309308AE391E00BC08FE291E008C087E191E087
S113094005C08CE091E002C084EF90E00E94730C3B
S113095061E080E00E94210C8BEE90E00E94730C19
S113096024E630E0D5010E94DA0D24E096958795BF
S1130970779567952A95D1F7CB010E94D50C89EE1E
S113098090E00E94730C62E080E00E94210C80EEF3
S113099090E00E94730C2091020130E0A4E6B0E0E4
S11309A00E94CB0D34E096958795779567953A9597
S11309B0D1F7CB010E94D50C8EED90E00E94730C10
S11309C063E080E00E94210C88ED90E00E94730CAB
S11309D0C6010E94340D85ED90E00E94730C64E022
S11309E080E00E94210C8FEC90E00E94730CC70100
S11309F00E94340D8CEC90E00E94730C65E080E062
S1130A000E94210C85EC90E00E94730C822D9927A2
S1130A1087FD90950E94340D83EC90E00E94730C46
S1130A2066E080E00E94210C89EB90E00E94730C48
S1130A30AE89BAE0AB02C00111240E94D50C87EB49
S1130A4090E00E94730C67E080E00E94210C8CEA25
S1130A5090E00E94730C2D8932E32302C00111241B
S1130A600E94D50C8AEA90E00E94730C641002C0C4
S1130A70712C44CE461470F484E6861510F484E692
S1130A80682E262D26956EE3621B4CE187E60E94B4
S1130A90200B10C0862D869522E330E0281B3109F7
S1130AA02233310510F021E330E04CE16DE087E6BC
S1130AB00E94460B462CDCCF0E94CE02882349F0CC
S1130AC00E947D028091D80082608093D80081E0EA
S1130AD0089580E008950F931F93CF93DF9300D080
S1130AE000D0CDB7DEB78C01DC0111968C91119743
S1130AF08C30A1F419968C911997803609F0C3C4EF
S1130B008C918295807F8093ED008091EF008F73AC
S1130B108093EF001092EE001C92B5C40E948D02E7
S1130B208F3F09F4B3C490E6D80119969C931997A2
S1130B308C938295807F8093ED00EEEEF0E011922D
S1130B40E83FF105E1F7F801818190E0FC0131977C
S1130B50EB30F10508F097C4E65BFF4F0C94C50D2C
S1130B6080E091C3D8011B968C911B978823A1F137
S1130B7014968C91149782958695877015969C91FE
S1130B80B8E09B9F800D11248093F300F8018381CA
S1130B908295869587709481F8E09F9F800D11243B
S1130BA08093F200D80112968C91129782958695C3
S1130BB0877013969C91B8E09B9F800D11248093BD
S1130BC0F100F8018281880F880F880F8093F0006C
S1130BD08091EF00806119C0D80112968C91129710
S1130BE086958695869513969C91B0E29B9F800D81
S1130BF011248093F300F80182818295880F807E0E
S1130C008093F2008091EF008F7E8093EF0080E06C
S1130C10F8019681891760F4D8011796ED91FC913B
S1130C201897E80FF11D90819093FA008F5FF0CF31
S1130C308285882321F08091F000846003C0809134
S1130C40F0008B7F8093F0008091EF00D80116961E
S1130C509C9169C0F8018385882391F184818295F0
S1130C60869587709581F8E09F9F800D112480936D
S1130C70F300D80113968C9113978295869587700B
S1130C8014969C91B8E09B9F800D11248093F200F0
S1130C90F80182818295869587709381F8E09F9F01
S1130CA0800D11248093F100D80112968C91880F45
S1130CB0880F880F8093F0008091EF00806117C047
S1130CC0F80182818695869586959381F0E29F9FAF
S1130CD0800D11248093F300D80112968C91829593
S1130CE0880F807E8093F2008091EF008F7E809346
S1130CF0EF0080E0F8019681891760F4D801179617
S1130D00ED91FC911897E80FF11D90819093FA00F2
S1130D108F5FF0CF12868091F0008B7F8093F0007C
S1130D208091EF009681892B8093EF008091EF00F2
S1130D308F738093EF008091EF0080648093EF00C5
S1130D4080E0A9C3D8011B968C911B978823A1F13D
S1130D5014968C91149782958695877015969C911C
S1130D60B8E09B9F800D11248093F300F8018381E8
S1130D708295869587709481F8E09F9F800D112459
S1130D808093F200D80112968C91129782958695E1
S1130D90877013969C91B8E09B9F800D11248093DB
S1130DA0F100F8018281880F880F880F8093F0008A
S1130DB08091EF00806119C0D80112968C9112972E
S1130DC086958695869513969C91B0E29B9F800D9F
S1130DD011248093F300F80182818295880F807E2C
S1130DE08093F2008091EF008F7E8093EF0081E08A
S1130DF0D8011A968C931A978091F000846080939E
S1130E00F0008091EF0023CF19821A821B821C828A
S1130E101092F7008A818295869587709B81B8E04D
S1130E209B9F800D11248093F6008981829586957D
S1130E3087709A81E8E09E9F800D11248093F500CD
S1130E408981880F880F880F8093F4008091EF00C8
S1130E50D80116969C91892B8093EF008091F40021
S1130E608B7F8093F4005CC219821A821B821C82DD
S1130E701092F7008A818295869587709B81B8E0ED
S1130E809B9F800D11248093F6008981829586951D
S1130E9087709A81E8E09E9F800D11248093F5006D
S1130EA08981880F880F880F8093F4008091EF0068
S1130EB0D80116969C911697892B8093EF001A9669
S1130EC01C928091F40084608093F4008091F0007F
S1130ED08B7F8093F00024C219821A821B821C82A9
S1130EE01092F7008A818295869587709B81B8E07D
S1130EF09B9F800D11248093F600898182958695AD
S1130F0087709A81E8E09E9F800D11248093F500FC
S1130F108981880F880F880F8093F4008091EF00F7
S1130F20D80116969C911697892B8093EF0081E047
S1130F301A968C938091F40084608093F4008091DD
S1130F40F00084608093F0008091EF008F7DE6C113
S1130F50F8018385882391F1848182958695877031
S1130F609581F8E09F9F800D11248093F300D801B0
S1130F7013968C91139782958695877014969C91FD
S1130F80B8E09B9F800D11248093F200F8018281C8
S1130F908295869587709381F8E09F9F800D112438
S1130FA08093F100D80112968C91880F880F880FD6
S1130FB08093F0008091EF00806117C0F801828176
S1130FC08695869586959381F0E29F9F800D1124E6
S1130FD08093F300D80112968C918295880F807EBD
S1130FE08093F2008091EF008F7E8093EF008FEF6B
S1130FF09FEFDC0189839A83AB83BC838093F700E2
S11310008A818295869587709B81B8E09B9F800D2D
S113101011248093F60089818295869587709A8140
S1131020E8E09E9F800D11248093F5008981880F4C
S1131030880F880F8093F4008091EF00D8011696F2
S11310409C91892B8093EF008091F4008B7F809397
S1131050F4000BC2F8018385882391F18481829581
S1131060869587709581F8E09F9F800D1124809369
S1131070F300D80113968C91139782958695877007
S113108014969C91B8E09B9F800D11248093F200EC
S1131090F80182818295869587709381F8E09F9FFD
S11310A0800D11248093F100D80112968C91880F41
S11310B0880F880F8093F0008091EF00806117C043
S11310C0F80182818695869586959381F0E29F9FAB
S11310D0800D11248093F300D80112968C9182958F
S11310E0880F807E8093F2008091EF008F7E809342
S11310F0EF008FEF9FEFDC0189839A83AB83BC837E
S11311008093F7008A818295869587709B81B8E0E9
S11311109B9F800D11248093F6008981829586958A
S113112087709A81E8E09E9F800D11248093F500DA
S11311308981880F880F880F8093F4008091EF00D5
S1131140D80116969C911697892B8093EF001A96D6
S11311501C928091F40084608093F4008091F000EC
S11311608B7F8093F00081C1F8018385882391F1FE
S113117084818295869587709581F8E09F9F800D84
S113118011248093F300D80113968C9113978295C0
S11311908695877014969C91B8E09B9F800D1124CE
S11311A08093F200F80182818295869587709381FD
S11311B0F8E09F9F800D11248093F100D8011296CE
S11311C08C91880F880F880F8093F0008091EF0036
S11311D0806117C0F80182818695869586959381F2
S11311E0F0E29F9F800D11248093F300D8011296A2
S11311F08C918295880F807E8093F2008091EF001D
S11312008F7E8093EF004FEF5FEFBA0149835A83DB
S11312106B837C838FEF8093F7008A818295869518
S113122087709B81B8E09B9F800D11248093F6000A
S113123089818295869587709A81E8E09E9F800DCA
S113124011248093F5008981880F880F880F80937B
S1131250F4008091EF00D80116969C911697892B83
S11312608093EF0081E01A968C938091F40084605F
S11312708093F4008091F00084608093F00080916A
S1131280EF008F7DF0C0F8019681891760F4D801D2
S11312901796ED91FC911897E80FF11D90819093AA
S11312A0FA008F5FF0CF19821A821B821C8210927F
S11312B0F7008A818295869587709B81F8E09F9FCD
S11312C0800D11248093F60089818295869587701C
S11312D09A8128E0929F800D11248093F5008981E2
S11312E0880F880F880F8093F4008091EF00D80155
S11312F016969C911697892B8093EF0081E01A969D
S11313008C938091F40084608093F4008091F000C9
S113131084608093F0008091EF0080628093EF00FE
S11313208091F4008E7FA4C0F8018385882391F115
S113133084818295869587709581F8E09F9F800DC2
S113134011248093F300D80113968C9113978295FE
S11313508695877014969C91B8E09B9F800D11240C
S11313608093F200F801828182958695877093813B
S1131370F8E09F9F800D11248093F100D80112960C
S11313808C91880F880F880F8093F0008091EF0074
S1131390806117C0F8018281869586958695938130
S11313A0F0E29F9F800D11248093F300D8011296E0
S11313B08C918295880F807E8093F2008091EF005B
S11313C08F7E8093EF0080E0F8019681891760F4A6
S11313D0D8011796ED91FC911897E80FF11D9081B3
S11313E09093FA008F5FF0CF4FEF5FEFBA0149831C
S11313F05A836B837C838FEF8093F7008A81829575
S1131400869587709B81F8E09F9F800D11248093BF
S1131410F60089818295869587709A8128E0929F4B
S1131420800D11248093F5008981880F880F880F1F
S11314308093F4008091EF00D80116969C91169742
S1131440892B8093EF0081E01A968C938091F400AD
S113145084608093F4008091F00084608093F000B5
S11314608091EF0080628093EF008091F4008160AE
S11314708093F4008091EF008F738093EF0080914C
S1131480EF0080685BCCF80111865ACC8FE1D8015B
S113149019968C938FEF0F900F900F900F90DF9110
S11314A0CF911F910F9108951F93CF93DF93EC0178
S11314B08985882309F47BC08F3109F478C08F3F74
S11314C009F475C088818295807F8093ED000E9425
S11314D0A302182F803259F020F4882309F469C03C
S11314E05EC0803409F451C0803A09F058C080913C
S11314F0EF008F708E838F8198850E94BB0280914C
S1131500F00082FB882780F98A878091EF0084FFAE
S113151029C081E08B878091F30086958695869516
S11315208D838091F2009091F3008695869586953F
S113153020E2929F800D11248C838091F100909180
S1131540F20086958695869520E2929F800D11245F
S11315508B838091F0009091F10086958695869515
S113156020E20FC01B868091F300829586958770D8
S11315708B838091F2009091F30082958695877019
S113158028E0929F800D11248A8319878091EF00AF
S11315908F738093EF001092EE0080E00BC01987E8
S11315A08091EF008F738093EF001092EE0082E041
S11315B001C081E0DF91CF911F910895CF92DF9216
S11315C0EF92FF920F931F93CF93DF931F92CDB7A8
S11315D0DEB7D82E162FF42EE22EE60EC62E0FEF0F
S11315E0040F080FCE1471F041E06C2D8D2D29836A
S11315F00E948E0C41E06C2D802F0E948E0CC394AF
S11316002981F0CFFD0C0D2DEE24EA94E10EE20EBB
S11316100F1561F041E0612F802F0E948E0C41E094
S11316206E2D802F0E948E0C0F5FF2CF0F90DF91F2
S1131630CF911F910F91FF90EF90DF90CF9008957D
S1131640EF92FF920F931F93CF93DF931F92CDB727
S1131650DEB7062F142F180FE82E260FE11671F0AF
S1131660F02EF21649F041E06F2D8E2D29830E9451
S11316708E0CF3942981F5CFE394F0CF0F90DF9192
S1131680CF911F910F91FF90EF900895EF92FF92E9
S11316900F931F93CF93DF931F92CDB7DEB7062F1F
S11316A0142F180FE82E260FE11671F0F02EF21603
S11316B049F040E06F2D8E2D29830E948E0CF39407
S11316C02981F5CFE394F0CF0F90DF91CF911F9153
S11316D00F91FF90EF900895229A219A209A0F9AE1
S11316E02398289A8CB58E658CBD10922B05109288
S11316F02A0510922905109228050895179A28980A
S11317008EBD0DB407FEFDCF289A40912805509157
S1131710290520912A0530912B0594E8949FF00126
S1131720959FF00D1124E20FF31FEC5FFE4F8083B1
S113173080912A0590912B058438910548F4809175
S11317402A0590912B05019690932B0580932A05E9
S11317500895179828988EBD0DB407FEFDCF289ADA
S1131760089590E090932B0580932A0570E0709380
S113177029056093280508952091280530912905AD
S113178080912A0590912B0544E8429FF001439FE4
S1131790F00D1124E80FF91FEC5FFE4F80810895CE
S11317A00E946C0B81EA0E94A90B80EC0E94A90B99
S11317B082EA0E94A90B8FE20E94A90B80E18A951C
S11317C0F1F700C080E18A95F1F700C080E18A95C5
S11317D0F1F700C080E18A95F1F700C080E18A95B5
S11317E0F1F700C080E18A95F1F700C080E18A95A5
S11317F0F1F700C080E18A95F1F700C080E18A9595
S1131800F1F700C080E18A95F1F700C081E80E94F9
S1131810A90B84E10E94A90B84EA0E94A90B8FEA18
S11318200E94A90B86EA0E94A90B80EB0E94A90BD7
S113183080E10E94A90B80E00E94A90B80E40C9433
S1131840A90B1F93CF93DF931F92CDB7DEB7182F49
S113185082958F70806169830E94A90B812F8F709C
S11318600E94A90B6981862F806B0E94A90B698154
S1131870812F0F90DF91CF911F910C94B10BCF93D7
S1131880DF93C0E06C2F80E00E94210CD4E880E05C
S11318900E947E0BD150D9F7CF5FC83099F7DF9102
S11318A0CF9108950F931F93CF93DF9390E0809788
S11318B025E0289F8001299F100D1124C0E0D0E06D
S11318C00B531E4FF801EC0FFD1F84910E947E0BF9
S11318D02196C530D105B1F780E0DF91CF911F91FA
S11318E00F910C947E0BCF93DF93FC018491EF0155
S11318F02196882321F00E94520CFE01F7CFDF913C
S1131900CF910895CF93DF93EC018991882319F047
S11319100E94520CFACFDF91CF910895DF92EF929B
S1131920FF920F931F93CF93DF939C01CB017A0116
S113193060E470E00E94B10DEC018C0197FF02C0DD
S1131940095F1F4F83E0159507958A95E1F7C90153
S113195064E870E00E94B10DD82E602F0E94210C23
S11319600E94BC0B482FCE0168E070E00E94B10DCC
S113197021E030E0082E01C0220F0A94EAF7EF2894
S113198019F0C42FC22B03C0C22FC095C423602FEB
S11319908D2D0E94210C8C2FDF91CF911F910F91DF
S11319A0FF90EF90DF900C947E0BEF92FF920F93D9
S11319B01F93CF93DF9300D01F92CDB7DEB78C0176
S11319C064E670E00E94B10DCB014AE0BE016F5F96
S11319D07F4F0E94E10D101611061CF480E20E9454
S11319E0520CC80189519C4F8F3C974018F480E2F7
S11319F00E94520CCE0101967C01F70181917F0176
S1131A00882319F00E94520CF8CF8EE20E94520CE7
S1131A10C80117FF03C091958195910964E670E0B0
S1131A200E94B10D8C014AE0BE016F5F7F4F0E949E
S1131A30E10D0A3011051CF480E30E94520C8E0162
S1131A400F5F1F4FF80181918F01882319F00E94C5
S1131A50520CF8CF0F900F900F90DF91CF911F9100
S1131A600F91FF90EF900895CF93DF93CDB7DEB73A
S1131A7027970FB6F894DEBF0FBECDBF4AE0BE0174
S1131A806F5F7F4F0E94E10D0E94820C27960FB674
S1131A90F894DEBF0FBECDBFDF91CF910895E6EB82
S1131AA0F0E0808188608083E0EBF0E080818160F9
S1131AB08083E0E7F0E080818160808383B3886184
S1131AC083BB0895809126059091270508959C0174
S1131AD080912605909127058217930708F4815079
S1131AE0821B08951F920F920FB60F9211248F93A9
S1131AF09F93809126059091270501969093270541
S1131B00809326059F918F910F900FBE0F901F9089
S1131B1018951F920F920FB60F9211248F939F93D3
S1131B2081E090E090932505809324059F918F9107
S1131B300F900FBE0F901F901895AA1BBB1B51E16D
S1131B4007C0AA1FBB1FA617B70710F0A61BB70B29
S1131B50881F991F5A95A9F780959095BC01CD01CE
S1131B60089597FB072E16F4009407D077FD09D04B
S1131B700E949D0D07FC05D03EF4909581959F4FE2
S1131B800895709561957F4F0895EE0FFF1F05909E
S1131B90F491E02D0994A29FB001B39FC001A39FCB
S1131BA0700D811D1124911DB29F700D811D112492
S1131BB0911D08950E94CB0DB7FF0895821B930BCE
S1131BC00895BB274A3031F4992322F4BDE290955D
S1131BD081959F4F0C94ED0DBB27FB015527AA2738
S1131BE0880F991FAA1FA41710F0A41B83955051A6
S1131BF0B9F7A05DAA3308F0A95DA193009779F71E
S1131C00B111B1931192CB010C94060EDC01FC01CD
S1131C10672F71917723E1F7329704C07C916D931C
S1131C2070836291AE17BF07C8F30895F894FFCF8D
S9030000FC
