:100000000C943E000C945B000C945B000C945B0021
:100010000C945B000C945B000C945B000C945B00F4
:100020000C945B000C945B000C945B000C945B00E4
:100030000C9466050C9470050C945C050C944505B5
:100040000C945B000C945B000C948B030C945B0091
:100050000C945B000C945B000C945B000C945B00B4
:100060000C945B000C945B000C945B000C94D60029
:100070000C945B000C945B000C945B0011241FBE7D
:10008000CFEFD8E0DEBFCDBF11E0A0E0B1E0E8E403
:10009000FBE002C005900D92A230B107D9F721E034
:1000A000A2E0B1E001C01D92A136B207E1F70E94C3
:1000B0003C010C94A2050C940000EBE7F0E0808179
:1000C000806A8083EAE7F0E080818F6A8083ECE7D2
:1000D000F0E08081806480832598089580910201FA
:1000E000909103010895ECE7F0E090818F70907F8C
:1000F000892B80830895EAE7F0E080818064808323
:10010000089580910401823020F01092040181E072
:10011000089580E00895809119018823E9F0E09125
:100120001A018091780090917900F0E0EE0FFF1FA6
:10013000EB5FFE4F918380831092190180911A0129
:10014000893020F010921A0181E02DC080911A01AF
:100150008F5F80931A01089580910401813029F501
:100160001092030110920201E5E0F1E020910201FA
:100170003091030181919191820F931F909303011C
:100180008093020181E0E931F80781F78091020153
:10019000909103016AE070E00E947A057093030178
:1001A0006093020182E08093040108951F920F92F0
:1001B0000FB60F9211248F9381E0809319018F91D4
:1001C0000F900FBE0F901F9018951F93CF93DF9342
:1001D000C82F162FD42F80911C0190911D010E94D1
:1001E00017058D329140E0F00E94120590931D0199
:1001F00080931C0180911B0181110AC0C1112B9AAF
:1002000011112C9AD1112A9A81E080931B0108C008
:10021000C1112B9811112C98D1112A9810921B0101
:10022000DF91CF911F9108952B982C982A980895CB
:1002300089B5836089BD239A249A229A2B9A2C9A95
:100240002A9A0895E8E2F1E080819181997F946093
:10025000918380830895E8E2F1E080819181997F24
:10026000918380830895E8E2F1E080819181997F14
:1002700092609183808308950E9418010E94FF0478
:100280000E94AF020E945D00789486E00E94730095
:100290000E947B000E941205EC01CE010E9417050E
:1002A000883E9340D0F30E9412056C0141E061E06A
:1002B00081E00E94E500812C912CE12CF12C00E0E2
:1002C00010E0C0E0D0E0612CA12CB12CE4EC2E2E8B
:1002D000E9E03E2E412C512CF4E67F2E0E943105A0
:1002E0008823E1F30E949A030E948B00B0923801A8
:1002F0000E948100882319F00E946E008C011093E7
:100300003B0100933A01F0923D01E0923C01909252
:100310003E01A0923F0160924001B11016C0C80199
:100320008B599140893C910510F4882483940E9454
:10033000F504882399F20E9412056C010E94F804CA
:100340000E941401BB24B394C9CF81E0B81254C0F9
:10035000C8018B599140893C910510F488248394FD
:1003600040E061E081E00E94E50080912A019091E7
:100370002B0186FF0DC091100BC086E090E090939A
:100380002901809328010E94FC0499249394A6CF0C
:100390009C01217233272132310561F421E0921250
:1003A00009C087E090E0909329018093280172E0D2
:1003B000972E94CF9C01237233272332310561F4A9
:1003C00022E0921209C08FE090E09093290180937F
:1003D000280163E0962E82CF87729927879709F0CC
:1003E0007DCF93E099127ACF0E9412056C010E9492
:1003F000140152E0B52E72CF22E0B21217C040E0D5
:1004000060E081E00E94E500C8018B599140893C81
:10041000910528F081E0881611F0812C5FCF0E94B1
:1004200012056C012C9A43E0B42E58CF93E0B91218
:1004300055CF98012B593140293C310530F42C9A85
:100440002B98E12CF12C612C37C02C980B3981E0D2
:100450001807B8F4043D110560F02A98729EC00197
:10046000739E900D112468EC70E00E948E057B0154
:1004700005C02A9A3CE9E32EFF24FA9422E0622E7A
:100480001BC02B9A2A980B3293E0190778F42A980C
:10049000980123563240729EC001739E900D112424
:1004A00068EC70E00E948E057B0104C02A9A94E6F5
:1004B000E92EF12C66246394C6010E9417050B9760
:1004C000D0F06A1461F021E0A21204C01C161D06CF
:1004D0004CF005C082E0A81202C0D7FD08C0EC169F
:1004E000FD0614F4219704C0CE15DF050CF4219607
:1004F0000E9412056C016A14F9F080913401909108
:100500003501A0913601B09137014497A105B1059D
:100510009CF491E0691205C00E942201AA24A394D0
:100520000BC022E0621205C00E94330182E0A82EB7
:1005300003C00E942B01A12C2AE02C9FC0012D9FFB
:10054000900D112490932D0180932C0120922E0167
:1005500030922F014092300150923101BFCE81E0A4
:100560008093D8001092E5008091E2008E60809325
:10057000E2008091E3008C608093E3008091E400CE
:1005800087638093E40080E0982F9295907F90930A
:10059000ED001092EF001092EE008F5F8630A1F711
:1005A0008091DB00806A8093DB001092ED00109256
:1005B000F4001092F5008FEF8093F6008093F7001F
:1005C0001092EF009091EF0090689093EF001092DE
:1005D000F0001092F1001092F20020E12093F3005D
:1005E0009091DE0091609093DE002093ED001092D8
:1005F000F4001092F5008093F6008093F7001092BB
:10060000EF009091EF0098689093EF001092F00047
:100610001092F10030E23093F20090EE9093F300EC
:100620002091DE0022602093DE003093ED001092D6
:10063000F4001092F5009093F6008093F70010926A
:10064000EF002091EF0028682093EF001092F00057
:100650001092F10040E64093F20020E72093F3006F
:100660002091DE0024602093DE0030E33093ED0023
:100670001092F4001092F5009093F6008093F7002A
:100680001092EF001092F0001092F1004093F200EF
:1006900040E44093F3002091DE0028602093DE00C8
:1006A0004093ED001092F4001092F5009093F60044
:1006B0008093F7001092EF001092F0001092F1007A
:1006C0009093F2003093F3002091DE00206120939C
:1006D000DE0020E52093ED001092F4001092F5006A
:1006E0009093F6008093F7001092EF001092F000C4
:1006F0001092F1001092F2001092F3008091DE004F
:1007000080628093DE00109223018091D800826085
:100710008093D80008951F920F920FB60F92112464
:100720008F9381E0809323018F910F900FBE0F90E4
:100730001F90189580912301882309F45DC01092C1
:1007400023018091EC00807F8093ED008091ED008B
:1007500082958F7079F48091EE0085FF03C081E06F
:10076000809322011092EE001092EF008091EF0032
:10077000806812C08091ED0082958F70813079F48D
:100780009091EE0095FD809321011092EE00109261
:10079000EF008091EF0088688093EF0008958091CA
:1007A000ED0082958F70823089F48091EE0085FF94
:1007B000ECCF80E090E02091FA00FC01EF5BFE4F6F
:1007C0002083019688309105B1F7DFCF8091ED004D
:1007D00082958F70833069F08091ED0082958F70E3
:1007E000843039F08091ED0082958F70853009F06A
:1007F000FBC01092EE00089580912201882309F435
:100800004BC0809100018295807F8093ED008091A4
:10081000DC0090E00090000102C0959587950A9455
:10082000E2F780FD1EC080E090E020910001FC0115
:1008300038E0239FE00DF11D1124EF5CFE4F208175
:100840002093FA0001968830910579F71092EE0016
:1008500080910001853011F482E401C088E4809326
:10086000EF0080910001843098F09091200199234D
:1008700031F0843069F090912001992349F082E0B1
:10088000809300011092220181E080931F0108955E
:100890008F5F80930001089580911F01882309F4E0
:1008A000A3C080911E01811139C020914201809125
:1008B000410190E0922B90932B0180932A0120918B
:1008C00043018091440190E0922B909333018093F7
:1008D00032013091480180914701409146012091B9
:1008E000450190E0A0E0B0E0DC0199278827B32B18
:1008F000822B50E0542F4427662757FD6095762FB2
:10090000842B952BA62BB72B809334019093350124
:10091000A0933601B093370181E058C0813099F53A
:1009200090912801809129019093490180934A0177
:1009300090912C0180912D0190934B0180934C015B
:1009400080912E0190912F01A0913001B091310141
:1009500080934D01492F5A2F6B2F772767FD7A958A
:1009600040934E01AD01772757FD7095672F409357
:100970004F018B2FBB2787FDB0959B2FAB2F80930B
:10098000500182E023C0823021F5809138018093AC
:10099000510190913A0180913B01909352018093D3
:1009A000530190913C0180913D01909354018093BB
:1009B000550180913E018093560180913F018093C3
:1009C0005701809140018093580183E080931E017C
:1009D0000895833049F481E08093590180935A014E
:1009E00010921F0110921E01089580912101089517
:1009F00081E080932001089510922001089584B52C
:100A0000826084BD89EF87BDEEE6F0E08081826080
:100A1000808385B5836085BDE1E8F0E080818360F7
:100A200080830895809126019091270108959C016B
:100A30004091260150912701CA01821B930B421756
:100A4000530708F4019708959C0140918400509148
:100A50008500CA01821B930B4217530708F40197C4
:100A6000089580912401909125010E9424054997C1
:100A700050F080918400909185009093250180939F
:100A8000240181E0089580E008951F920F920FB62F
:100A90000F9211248F939F938091260190912701AB
:100AA000019690932701809326019F918F910F903B
:100AB0000FBE0F901F9018951F920F920FB60F92B6
:100AC00011240F900FBE0F901F9018951F920F9238
:100AD0000FB60F9211240F900FBE0F901F90189514
:100AE0001F920F920FB60F9211240F900FBE0F900E
:100AF0001F901895AA1BBB1B51E107C0AA1FBB1F63
:100B0000A617B70710F0A61BB70B881F991F5A9599
:100B1000A9F780959095BC01CD01089597FB072E0C
:100B200016F4009407D077FD09D00E947A0507FCDF
:100B300005D03EF4909581959F4F089570956195ED
:080B40007F4F0895F894FFCFE8
:020B48000300A8
:00000001FF
