:100000000C94B4010C940B020C9423020C942D025A
:100010000C9437020C94D1010C94D1010C94D101B1
:100020000C94D1010C9425090C94D1010C9441023B
:100030000C94D1010C94D1010C94D1010C943C0985
:100040000C94D1010C9453090C9422030C94D1010B
:100050000C9454070C94D1010C94D1010C94D1014F
:100060000C94D1010C94D3010C94D1010C94D101C6
:100070000C94D1010C94D1010C94D1010C94D101B8
:100080000C94D1010C94D1010C94D1010C94D101A8
:100090000C94D1012500444D43433A00737443004E
:1000A000546D61783A0073744300546D696E3A0080
:1000B0006D560056617672673A006D5620402000FA
:1000C000566D61783A006D5620402000566D696E7D
:1000D0003A002500534F433A004100437572726560
:1000E0006E743A005600566F6C746167653A004949
:1000F0006E76616C696400506172616D0050777258
:10010000205361766500496E7620496E70004C453B
:100110004D20416C61726D004F7665722054656DA3
:1001200070004F76657220437572720053656320CC
:1001300050726F74004572726F720052656164791B
:1001400000426174742046756C6C004261747420C6
:1001500048696768004368617267696E6700426159
:10016000747420456D7074790042617474204C6F12
:10017000770044697363686172676500496E6974EA
:100180000053746174653A00000000000000005FD5
:1001900000000007000700147F147F14242A7F2A20
:1001A00012231308646236495522500005030000EB
:1001B000001C2241000041221C00082A1C2A0808B9
:1001C000083E080800503000000808080808003001
:1001D00030000020100804023E5149453E00427F95
:1001E000400042615149462141454B311814127F6C
:1001F0001027454545393C4A4949300171090503F5
:100200003649494936064949291E0036360000005C
:10021000563600000008142241141414141441220C
:100220001408000201510906324979413E7E11113C
:10023000117E7F494949363E414141227F41412259
:100240001C7F494949417F090901013E4141513221
:100250007F0808087F00417F41002040413F017F27
:10026000081422417F404040407F0204027F7F0407
:1002700008107F3E4141413E7F090909063E415138
:10028000215E7F09192946464949493101017F010B
:10029000013F4040403F1F2040201F7F2018207F0B
:1002A000631408146303047804036151494543004F
:1002B000007F4141020408102041417F00000402F8
:1002C0000102044040404040000102040020545418
:1002D00054787F484444383844444420384444489F
:1002E0007F3854545418087E090102081454543CB1
:1002F0007F0804047800447D40002040443D000015
:100300007F10284400417F40007C041804787C085A
:1003100004047838444444387C1414140808141431
:10032000187C7C080404084854545420043F44407A
:10033000203C4040207C1C2040201C3C4030403C65
:1003400044281028440C5050503C4464544C440001
:100350000836410000007F00000041360800080810
:100360002A1C08081C2A080811241FBECFEFD0E160
:10037000DEBFCDBF11E0A0E0B1E0EEEBF3E102C0E3
:1003800005900D92A230B107D9F725E0A2E0B1E0C7
:1003900001C01D92A138B207E1F70E9436040C9407
:1003A000DD090C9400001F920F920FB60F921124DA
:1003B0008F9380910301882331F081E080930201C3
:1003C0001092030105C0809103018F5F80930301A8
:1003D0008F910F900FBE0F901F90189550985198C5
:1003E000529853985498589A599A5A9A5B9A5C9A88
:1003F000E9E6F0E080818A6A80838DB38F608DBBEF
:10040000EFE6F0E0808180628083109236050895E7
:100410008091040108951F920F920FB60F9211243C
:100420008F9380910401833130F4809104018F5FB8
:100430008093040102C0109204018F910F900FBEAF
:100440000F901F9018951F920F920FB60F921124C4
:100450000F900FBE0F901F9018951F920F920FB61E
:100460000F9211240F900FBE0F901F9018951F929E
:100470000F920FB60F9211240F900FBE0F901F9086
:1004800018951F920F920FB60F9211248F9380919F
:100490000401882321F080910401815001C083E18F
:1004A000809304018F910F900FBE0F901F901895AD
:1004B00081E08093D8001092E5008091E2008A608C
:1004C0008093E2008091E3008C608093E300809150
:1004D000E40087638093E40080E0982F9295907FFA
:1004E0009093ED001092EF001092EE008F5F8E302F
:1004F000A1F78091DB00806A8093DB001092ED0011
:100500001092F4001092F50090EE9093F6008FEFA9
:100510008093F7001092EF001092F0001092F1001B
:100520001092F20030E13093F3002091DE00216060
:100530002093DE003093ED001092F4001092F5004D
:100540008093F6008093F7001092EF002091EF0067
:1005500028682093EF001092F0001092F10030EC28
:100560003093F20020E32093F3004091DE004260DC
:100570004093DE0040E24093ED001092F4001092B0
:10058000F5009093F6008093F7001092EF004091F1
:10059000EF0048684093EF001092F0001092F100D5
:1005A0003093F20050E45093F3004091DE00446039
:1005B0004093DE002093ED001092F4001092F500BD
:1005C0009093F6008093F7004091EF0048684093C5
:1005D000EF001092F0001092F1003093F20030E53D
:1005E0003093F3005093ED001092F4001092F50058
:1005F0009093F6008093F7001092EF001092F000B5
:100600001092F1009093F2002093F3003093ED00EC
:100610001092F4001092F5009093F6008093F7008A
:100620001092EF001092F0001092F1001092F20080
:100630001092F300109209018091D800826080939B
:10064000D80008951F920F920FB60F9211248F9326
:1006500081E0809309018F910F900FBE0F901F9042
:10066000189580910701909108010E940409853432
:10067000924080F00E94FF08909308018093070148
:100680001092ED001092EE0080E48093EF0081E084
:100690008093060180910901882309F466C01092B5
:1006A00009018091EC00807F8093ED008091ED0046
:1006B00082958F70813089F48091EE0085FF2EC085
:1006C00080E090E02091FA00FC01E35AFA4F208389
:1006D000019688309105B1F721C08091ED00829597
:1006E0008F70823089F48091EE0085FF17C080E022
:1006F00090E02091FA00FC01E35AFA4F208701961E
:1007000088309105B1F70AC08091ED0082958F7015
:100710008330D9F48091EE0085FD0AC01092EE007E
:100720001092EF008091EF0088688093EF000895A9
:1007300080E090E02091FA00FC01E35AFA4F208B10
:10074000019688309105B1F7E9CF8091ED0082954F
:100750008F70843039F08091ED0082958F708530F4
:1007600009F083C01092EE0008958091060188235D
:1007700009F47BC080910501811128C020915E059C
:1007800080915D0590E0922B90933A058093390516
:100790002091600580915F0590E0922B9093380541
:1007A000809337058091610580933B052091630517
:1007B0008091620590E0922B90933D0580933C05DB
:1007C0008091640580933E0581E041C0813041F510
:1007D000209166058091650590E0922B90934005ED
:1007E00080933F05809167058093410520916905BD
:1007F0008091680590E0922B909343058093420589
:1008000080916A058093440520916C0580916B0569
:1008100090E0922B909346058093450582E017C0A7
:100820008230C1F480916D058093470580916E05FB
:100830008093480580916F058093490580917005EC
:1008400080934A058091740580934B0583E08093E3
:1008500005010895833049F481E080937505809304
:1008600076051092060110920501089585B78068FB
:1008700085BF85B7806885BF849A279A2F9878941A
:100880000E94EE010E9468040E9458020E94F6082D
:100890008C980E94FF08EC0111E00E941109882346
:1008A000E1F380910A01811103C010930A0102C093
:1008B00010920A010E943103CE010E940409893C72
:1008C000910558F30E948B040E94FF08EC01E5CFCC
:1008D000989AA09887E99AE30197F1F700C0000081
:1008E000A09A0E945F0787E99AE30197F1F700C099
:1008F00000000E94C40760E080E00E94A60723E396
:100900004EE16CE086E60E94540623E04CE069E08C
:100910008FE60C949606CF93DF930E940802809393
:100920001101809110018F5F883018F480931001BD
:1009300002C0109210016091100180E00E94A60791
:100940009091110180910F01981781F080E10E9430
:10095000D40880910E018F5F80930E01883030F0B3
:100960008091110180930F0110920E0120911001CE
:1009700030E0C0911101D0E0EAE0F0E0CE01BF012B
:100980000E947E092817390709F061C081E891E0CB
:100990000E94F8078AE00E94D40880913E058F30BB
:1009A00009F440C0A8F48430A1F148F4823059F130
:1009B00068F5813009F048C08CE791E035C1863098
:1009C00071F150F1873009F03FC081E491E02CC112
:1009D000803489F148F4803241F1803349F180312B
:1009E00099F585E391E020C1803641F128F4803506
:1009F00059F58EE091E018C1803E19F1803F21F554
:100A000087EF90E011C182E791E00EC189E691E0A5
:100A10000BC18EE591E008C185E591E005C18BE44D
:100A200091E002C18BE391E0FFC08CE291E0FCC059
:100A300082E291E0F9C088E191E0F6C086E091E0C1
:100A4000F3C08DEF90E0F0C08FEE90E0EDC0CE01EE
:100A50000196BF010E947E0928173907C9F486EE66
:100A600090E00E94F8072091370530913805A4E600
:100A7000B0E00E94920934E0969587957795679546
:100A80003A95D1F7CB010E945A0884EE90E0CCC091
:100A9000CE010296BF010E947E0928173907C9F4CA
:100AA0008BED90E00E94F807A0913905B0913A05CE
:100AB00024E630E00E94A10924E096958795779579
:100AC00067952A95D1F7CB010E945A0889ED90E0ED
:100AD000ABC0CE010396BF010E947E0928173907DB
:100AE00079F484ED90E00E94F80784E00E94D40835
:100AF00080913B0590E00E94B90882ED90E094C09F
:100B0000CE010496BF010E947E0928173907A1F47F
:100B10008CEC90E00E94F80780913F059091400591
:100B20000E94B90886EC90E00E94F80782E00E94DB
:100B3000D408809141051BC0CE010596BF010E94DB
:100B40007E0928173907B9F480EC90E00E94F80775
:100B500080914205909143050E94B9088AEB90E08C
:100B60000E94F80782E00E94D4088091440590E03A
:100B70000E94B9085BC0CE010696BF010E947E09A3
:100B80002817390769F483EB90E00E94F8078091F9
:100B90004505909146050E94B90880EB90E044C05D
:100BA000CE010796BF010E947E092817390779F404
:100BB0008AEA90E00E94F80786E00E94D4088091BB
:100BC000470590E00E94B90886EA90E02DC0CE016A
:100BD0000896BF010E947E092817390779F480EA38
:100BE00090E00E94F80786E00E94D40880914905B1
:100BF00090E00E94B9088CE990E016C0CE010996F9
:100C0000BF010E947E092817390781F486E990E028
:100C10000E94F80786E00E94D40880914B0590E07E
:100C20000E94B90884E990E00E94F80780911001C1
:100C3000811137C080913B0590910D01891789F191
:100C40009817A8F4853618F084E680933B05209128
:100C50003B052695822F90E090930C0180930B0129
:100C60006EE3621B4CE187E60E94960616C0282FB1
:100C7000269582E390E0821B91098233910510F062
:100C800081E390E090930C0180930B0120910B0184
:100C90004CE16DE087E60E94BC0680913B058093A5
:100CA0000D01DF91CF910895CF92DF92EF92FF92E5
:100CB0000F931F93CF93DF931F92CDB7DEB7D82E3C
:100CC000162FF42EE22EE60EC62E0FEF040F080F9D
:100CD000CE1471F041E06C2D8D2D29830E941308F4
:100CE00041E06C2D802F0E941308C3942981F0CF1E
:100CF000FD0C0D2DEE24EA94E10EE20E0F1561F0CD
:100D000041E0612F802F0E94130841E06E2D802F5B
:100D10000E9413080F5FF2CF0F90DF91CF911F91C8
:100D20000F91FF90EF90DF90CF900895EF92FF9298
:100D30000F931F93CF93DF931F92CDB7DEB7062F8C
:100D4000142F180FE82E260FE11671F0F02EF21670
:100D500049F041E06F2D8E2D29830E941308F394F2
:100D60002981F5CFE394F0CF0F90DF91CF911F91C0
:100D70000F91FF90EF900895DF92EF92FF920F9303
:100D80001F93CF93DF931F92CDB7DEB7182F062F97
:100D9000D42ED80E222381F0E12EF22EF00EED1487
:100DA00049F040E06F2D8E2D29830E941308E394B3
:100DB0002981F5CF2150EECF0F90DF91CF911F9178
:100DC0000F91FF90EF90DF900895229A219A209A38
:100DD0000F9A2398289A8CB58D658CBD1EBC0DB4D6
:100DE00007FEFDCF28981092800510927F05109283
:100DF0007E0510927D0508950DB407FEFDCF179A6C
:100E00008EBD40917D0550917E0520917F053091EA
:100E1000800594E8949FF001959FF00D1124E20F56
:100E2000F31FEE5EFE4F808380917F0590918005D9
:100E30008438910548F480917F0590918005019652
:100E40009093800580937F0508950DB407FEFDCF34
:100E500017988EBD089590E09093800580937F054C
:100E600070E070937E0560937D05089520917D0567
:100E700030917E0580917F059091800544E8429FE6
:100E8000F001439FF00D1124E80FF91FEE5EFE4FB5
:100E90008081089580917F059091800508958091CB
:100EA0007D0590917E0508951F920F920FB60F92C7
:100EB0001124289A0F900FBE0F901F9018950E9432
:100EC000E50681EA0E94250780EC0E94250782EA58
:100ED0000E9425078FE20E94250788EC8A95F1F78A
:100EE00088EC8A95F1F788EC8A95F1F788EC8A9579
:100EF000F1F788EC8A95F1F788EC8A95F1F788ECA0
:100F00008A95F1F788EC8A95F1F788EC8A95F1F7E4
:100F100088EC8A95F1F781E80E94250784E10E9418
:100F2000250784EA0E9425078FEA0E94250786EAA2
:100F30000E94250780EB0E94250780E10E9425077B
:100F400080E00E94250780E40C9425071F93CF932F
:100F5000DF931F92CDB7DEB7182F82958F70806117
:100F600069830E942507812F8F700E942507698160
:100F7000862F806B0E9425076981812F0F90DF915A
:100F8000CF911F910C942B07CF93DF93C0E06C2F70
:100F900080E00E94A607D4E880E00E94FC06D150C1
:100FA000D9F7CF5FC83099F7DF91CF9108950F93AC
:100FB0001F93CF93DF9390E0809725E0289F8001D7
:100FC000299F100D1124C0E0D0E008571E4FF801F2
:100FD000EC0FFD1F84910E94FC062196C530D105BF
:100FE000B1F780E0DF91CF911F910F910C94FC0637
:100FF000CF93DF93FC018491EF012196882321F0A8
:101000000E94D707FE01F7CFDF91CF910895CF93CC
:10101000DF93EC018991882319F00E94D707FACF5A
:10102000DF91CF910895DF92EF92FF920F931F937C
:10103000CF93DF939C01CB017A0160E470E00E94C2
:101040007E09EC018C0197FF02C0095F1F4F83E00E
:10105000159507958A95E1F7C90164E870E00E944B
:101060007E09D82E602F0E94A6070E943607482FBF
:10107000CE0168E070E00E947E0921E030E0082E99
:1010800001C0220F0A94EAF7EF2819F0C42FC22BEF
:1010900003C0C22FC095C423602F8D2D0E94A607C8
:1010A0008C2FDF91CF911F910F91FF90EF90DF90E8
:1010B0000C94FC06EF92FF920F931F93CF93DF9354
:1010C00000D01F92CDB7DEB78C0164E670E00E94BD
:1010D0007E09CB014AE0BE016F5F7F4F0E94A809E5
:1010E000101611061CF480E20E94D707C80189512E
:1010F0009C4F8F3C974018F480E20E94D707CE01A6
:1011000001967C01F70181917F01882319F00E94EB
:10111000D707F8CF8EE20E94D707C80117FF03C098
:1011200091958195910964E670E00E947E098C0199
:101130004AE0BE016F5F7F4F0E94A8090A30110587
:101140001CF480E30E94D7078E010F5F1F4FF80148
:1011500081918F01882319F00E94D707F8CF0F9053
:101160000F900F90DF91CF911F910F91FF90EF9013
:101170000895CF93DF93CDB7DEB727970FB6F894D6
:10118000DEBF0FBECDBF4AE0BE016F5F7F4F0E9442
:10119000A8090E94070827960FB6F894DEBF0FBE75
:1011A000CDBFDF91CF9108950F931F93CF93DF931E
:1011B0001F92CDB7DEB7082F10E0101731F080E096
:1011C00091E00E9407081F5FF8CF0E944F078983B4
:1011D0000E944A07698196E0199F801911240F9097
:1011E000DF91CF911F910F910C94A60784B5826077
:1011F00084BDEEE6F0E08081816080830895809177
:1012000034059091350508959C0140913405509125
:101210003505CA01821B930B4217530708F4019747
:10122000089580913205909133050E940409CA9770
:1012300050F080913405909135059093330580935B
:10124000320581E0089580E008951F920F920FB655
:101250000F9211248F939F938091340590913505BF
:10126000019690933505809334059F918F910F904F
:101270000FBE0F901F9018951F920F920FB60F92EE
:1012800011248F939F938091340590913505019699
:1012900090933505809334059F918F910F900FBEE9
:1012A0000F901F9018951F920F920FB60F92112456
:1012B0008F939F938091340590913505019690937B
:1012C0003505809334059F918F910F900FBE0F903D
:1012D0001F901895AA1BBB1B51E107C0AA1FBB1F7B
:1012E000A617B70710F0A61BB70B881F991F5A95B2
:1012F000A9F780959095BC01CD01089597FB072E25
:1013000016F4009407D077FD09D00E946A0907FC03
:1013100005D03EF4909581959F4F08957095619505
:101320007F4F0895A29FB001B39FC001A39F700D8E
:10133000811D1124911DB29F700D811D1124911DDD
:1013400008950E949209B7FF0895821B930B089598
:10135000BB274A3031F4992322F4BDE29095819560
:101360009F4F0C94B409BB27FB015527AA27880F70
:10137000991FAA1FA41710F0A41B83955051B9F709
:10138000A05DAA3308F0A95DA193009779F7B11188
:10139000B1931192CB010C94CD09DC01FC01672FB4
:1013A00071917723E1F7329704C07C916D9370833C
:0E13B0006291AE17BF07C8F30895F894FFCFFF
:0213BE0020000D
:00000001FF
