S00F000043414E5F4C43442E7372656311
S11300000C94C9010C9420020C9438020C94420202
S11300100C944C020C94E6010C94E6010C94E60159
S11300200C94E6010C94FE090C94E6010C9456021F
S11300300C94E6010C94E6010C94E6010C94150A68
S11300400C94E6010C942C0A0C944F030C94E601D6
S11300500C942D080C94E6010C94E6010C94E60132
S11300600C94E6010C94E8010C94E6010C94E6016E
S11300700C94E6010C94E6010C94E6010C94E60160
S11300800C94E6010C94E6010C94E6010C94E60150
S11300900C94E60125004D6F7420746F72713A0060
S11300A04D6F742052504D3A005600313256204262
S11300B061743A004C0057617465723A002500443B
S11300C04D43433A0073744300546D61783A0073AE
S11300D0744300546D696E3A006D56005661767231
S11300E0673A006D5620402000566D61783A006DE5
S11300F05620402000566D696E3A002500534F4348
S11301003A00410043757272656E743A00560056A7
S11301106F6C746167653A00496E76616C6964005E
S1130120506172616D0050777220536176650049A9
S11301306E7620496E70004C454D20416C61726DA5
S1130140004F7665722054656D70004F766572209D
S113015043757272005365632050726F7400457268
S1130160726F720052656164790042617474204652
S1130170756C6C0042617474204869676800436858
S1130180617267696E67004261747420456D7074B2
S1130190790042617474204C6F770044697363681A
S11301A06172676500496E69740053746174653ADD
S11301B000000000000000005F00000007000700CE
S11301C0147F147F14242A7F2A12231308646236AE
S11301D0495522500005030000001C224100004143
S11301E0221C00082A1C2A0808083E08080050306F
S11301F00000080808080800303000002010080437
S1130200023E5149453E00427F4000426151494609
S11302102141454B311814127F1027454545393C7F
S11302204A494930017109050336494949360649A5
S113023049291E0036360000005636000000081416
S11302402241141414141441221408000201510907
S113025006324979413E7E1111117E7F4949493662
S11302603E414141227F4141221C7F494949417F0E
S1130270090901013E414151327F0808087F0041CC
S11302807F41002040413F017F081422417F4040CC
S113029040407F0204027F7F0408107F3E414141B9
S11302A03E7F090909063E4151215E7F091929460D
S11302B0464949493101017F01013F4040403F1F08
S11302C02040201F7F2018207F6314081463030438
S11302D0780403615149454300007F414102040809
S11302E0102041417F0000040201020440404040CC
S11302F040000102040020545454787F4844443898
S11303003844444420384444487F385454541808EA
S11303107E090102081454543C7F08040478004404
S11303207D40002040443D00007F10284400417F70
S113033040007C041804787C08040478384444445D
S1130340387C14141408081414187C7C0804040859
S11303504854545420043F4440203C4040207C1CDA
S11303602040201C3C4030403C44281028440C5081
S113037050503C4464544C44000836410000007F13
S11303800000004136080008082A1C08081C2A0836
S1130390080011241FBECFEFD0E1DEBFCDBF11E0B6
S11303A0A0E0B1E0E0E7F5E102C005900D92A230D3
S11303B0B107D9F725E0A2E0B1E001C01D92A1394F
S11303C0B207E1F70E94AB040C94B60A0C94000047
S11303D01F920F920FB60F9211248F9380910301F5
S11303E0882331F081E0809302011092030105C05B
S11303F0809103018F5F809303018F910F900FBE53
S11304000F901F901895509851985298539854985B
S1130410589A599A5A9A5B9A5C9AE9E6F0E0808174
S11304208A6A80838DB38F608DBBEFE6F0E08081B4
S113043080628083109236050895809104010895A6
S11304401F920F920FB60F9211248F938091040183
S11304508B3130F4809104018F5F8093040102C0DA
S1130460109204018F910F900FBE0F901F9018955A
S11304701F920F920FB60F9211240F900FBE0F9080
S11304801F9018951F920F920FB60F9211240F9080
S11304900FBE0F901F9018951F920F920FB60F92D8
S11304A011240F900FBE0F901F9018951F920F925A
S11304B00FB60F9211248F9380910401882321F0A9
S11304C080910401815001C08BE1809304018F91DC
S11304D00F900FBE0F901F90189581E08093D80065
S11304E01092E5008091E2008A608093E20080919E
S11304F0E3008C608093E3008091E4008763809341
S1130500E40080E0982F9295907F9093ED001092F4
S1130510EF001092EE008F5F8E30A1F78091DB0028
S1130520806A8093DB001092ED001092F400109228
S1130530F50090EE9093F6008FEF8093F700109201
S1130540EF001092F0001092F1001092F20030E1EE
S11305503093F3002091DE0021602093DE0030937D
S1130560ED001092F4001092F5008093F600809351
S1130570F7001092EF002091EF0028682093EF001D
S11305801092F0001092F10020EC2093F20050E35E
S11305905093F3003091DE0032603093DE0030E29D
S11305A03093ED001092F4001092F5009093F60051
S11305B08093F7001092EF003091EF003868309389
S11305C0EF001092F0001092F1002093F20040E44A
S11305D04093F3003091DE0034603093DE0050939A
S11305E0ED001092F4001092F5009093F6008093C1
S11305F0F7003091EF0038683093EF001092F0006C
S11306001092F1002093F20030E53093F300209132
S1130610DE0028602093DE004093ED001092F40089
S11306201092F5009093F6008093F7002091EF006C
S113063028682093EF001092F0001092F1001092BD
S1130640F20022E32093F3002091DE002061209346
S1130650DE003093ED001092F4001092F5009093B8
S1130660F6008093F7008091EF0088688093EF0094
S11306701092F0001092F10080E68093F20080E77F
S11306808093F3008091DE0080628093DE001092FC
S113069009018091D80082608093D80008951F9248
S11306A00F920FB60F9211248F9381E0809309016A
S11306B08F910F900FBE0F901F9018958091070196
S11306C0909108010E94DD098534924080F00E94D7
S11306D0D80990930801809307011092ED001092BD
S11306E0EE0080E48093EF0081E080930601809126
S11306F00901882309F485C0109209018091EC0056
S1130700807F8093ED008091ED0082958F70813021
S113071089F48091EE0085FF5DC080E090E0209137
S1130720FA00FC01EB59FA4F2083019688309105B9
S1130730B1F750C08091ED0082958F70823089F4BA
S11307408091EE0085FF46C080E090E02091FA00A1
S1130750FC01EB59FA4F2087019688309105B1F7D7
S113076039C08091ED0082958F70833089F4809137
S1130770EE0085FF2FC080E090E02091FA00FC019C
S1130780EB59FA4F208B019688309105B1F722C0BE
S11307908091ED0082958F70843089F48091EE0011
S11307A085FF18C080E090E02091FA00FC01EB592D
S11307B0FA4F208F019688309105B1F70BC08091D4
S11307C0ED0082958F70853009F0C4C08091EE00F1
S11307D085FD0AC01092EE001092EF008091EF00A8
S11307E088688093EF00089580E090E02091FA00FB
S11307F0FC01EB59FA4F20A3019688309105B1F71B
S1130800E9CF80910601882309F4A4C080910501F1
S1130810811128C0209166058091650590E0922B96
S113082090933A0580933905209168058091670576
S113083090E0922B90933805809337058091690559
S113084080933B0520916B0580916A0590E0922B83
S113085090933D0580933C0580916C0580933E0503
S113086081E071C0813041F520916E0580916D0564
S113087090E0922B9093400580933F0580916F0503
S113088080934105209171058091700590E0922B31
S113089090934305809342058091720580934405AB
S11308A0209174058091730590E0922B90934605F6
S11308B08093450582E047C08230B1F4809175058C
S11308C0809347058091760580934805809177054C
S11308D0809349058091780580934A0580917C0531
S11308E080934B0583E02FC0833051F480917E05C3
S11308F080934C0580917F0580934D0584E023C04F
S1130900843021F580918C0580918B0520918A0596
S11309108091890590E0922BAA2797FDA095BA2F84
S113092080934E0590934F05A0935005B0935105C5
S1130930209188058091870590E0922B9093530530
S11309408093520585E08093050108951092060175
S113095010920501089585B7806885BF85B78068C2
S113096085BF849A279A2F9878940E9403020E9444
S1130970DD040E946D020E94CF098C980E94D80960
S1130980EC0111E00E94EA098823E1F380910A0155
S1130990811103C010930A0102C010920A010E943F
S11309A05E03CE010E94DD09893C910558F30E9443
S11309B000050E94D809EC01E5CF989AA09887E930
S11309C09AE30197F1F700C00000A09A0E9438084A
S11309D087E99AE30197F1F700C000000E949D089F
S11309E060E080E00E947F0823E34EE16CE086E64D
S11309F00E942D0723E04CE069E08FE60C946F071A
S1130A00CF93DF930E941D02809311018091100106
S1130A108F5F883018F48093100102C01092100187
S1130A206091100180E00E947F08909111018091F3
S1130A300F01981781F080E10E94AD0980910E01A9
S1130A408F5F80930E01883030F080911101809384
S1130A500F0110920E012091100130E0E09111017C
S1130A60F0E0CEE0D0E0CF01BE010E94570A281783
S1130A70390709F061C08AEA91E00E94D1088AE04E
S1130A800E94AD0980913E058F3009F440C0A8F45E
S1130A908430A1F148F4823059F168F5813009F0CD
S1130AA048C085EA91E099C1863071F150F18730F0
S1130AB009F03FC08AE691E090C1803489F148F49E
S1130AC0803241F1803349F1803199F58EE591E02E
S1130AD084C1803641F128F4803559F587E391E0EB
S1130AE07CC1803E19F1803F21F580E291E075C11F
S1130AF08BE991E072C182E991E06FC187E891E0EE
S1130B006CC18EE791E069C184E791E066C184E637
S1130B1091E063C185E591E060C18BE491E05DC142
S1130B2081E491E05AC18FE291E057C186E291E0FD
S1130B3054C188E191E051C1CF010196BE010E94E8
S1130B40570A28173907C9F48FE091E00E94D108A9
S1130B502091370530913805A4E6B0E00E946B0A75
S1130B6034E096958795779567953A95D1F7CB01BB
S1130B700E9433098DE091E030C1CF010296BE019D
S1130B800E94570A28173907C9F484E091E00E94AB
S1130B90D108A0913905B0913A0524E630E00E94CD
S1130BA07A0A24E096958795779567952A95D1F7E3
S1130BB0CB010E94330982E091E00FC1CF0103967B
S1130BC0BE010E94570A2817390779F48DEF90E087
S1130BD00E94D10884E00E94AD0980913B0590E019
S1130BE00E9492098BEF90E0F8C0CF010496BE01F9
S1130BF00E94570A28173907A1F485EF90E00E9454
S1130C00D10880913F05909140050E9492098FEE92
S1130C1090E00E94D10882E00E94AD0980914105D4
S1130C201BC0CF010596BE010E94570A2817390739
S1130C30A9F489EE90E00E94D10880914205909138
S1130C4043050E94920983EE90E00E94D10882E05D
S1130C500E94AD098091440590E0A0C0CF010696A2
S1130C60BE010E94570A2817390769F48CED90E0F9
S1130C700E94D10880914505909146050E949209F1
S1130C8089ED90E0AAC0CF010796BE010E94570AE1
S1130C902817390779F483ED90E00E94D10886E0A3
S1130CA00E94AD098091470590E00E9492098FEC63
S1130CB090E093C0CF010896BE010E94570A2817FE
S1130CC0390779F489EC90E00E94D10886E00E940B
S1130CD0AD098091490590E00E94920985EC90E06D
S1130CE07CC0CF010996BE010E94570A2817390714
S1130CF079F48FEB90E00E94D10886E00E94AD0960
S1130D0080914B0590E00E9492098DEB90E065C0C4
S1130D10CEE0D0E0CF010A96BE010E94570A281700
S1130D20390779F486EB90E00E94D10886E00E94AE
S1130D30AD0980914C0590E00E94920984EB90E00B
S1130D404CC0CF010B96BE010E94570A28173907E1
S1130D5091F48BEA90E00E94D10886E00E94AD09EC
S1130D6080914D052AE0829FC00111240E9433091D
S1130D7089EA90E032C0CF010C96BE010E94570A66
S1130D802817390771F480EA90E00E94D10886E0C0
S1130D900E94AD0980914E0590914F050E949209E1
S1130DA01EC0CF010D96BE010E94570A28173907AD
S1130DB0B1F486E990E00E94D10886E00E94AD0972
S1130DC080915205909153056AE070E00E94570AA1
S1130DD0CB010E94920984E990E00E94D10880919D
S1130DE01001811137C080913B0590910D01891745
S1130DF089F19817A8F4853618F084E680933B05AA
S1130E0020913B052695822F90E090930C018093CE
S1130E100B016EE3621B4CE187E60E946F0716C06C
S1130E20282F269582E390E0821B91098233910555
S1130E3010F081E390E090930C0180930B012091DA
S1130E400B014CE16DE087E60E94950780913B051C
S1130E5080930D01DF91CF910895CF92DF92EF92AD
S1130E60FF920F931F93CF93DF931F92CDB7DEB7FB
S1130E70D82E162FF42EE22EE60EC62E0FEF040FF8
S1130E80080FCE1471F041E06C2D8D2D29830E9442
S1130E90EC0841E06C2D802F0E94EC08C39429815A
S1130EA0F0CFFD0C0D2DEE24EA94E10EE20E0F15A9
S1130EB061F041E0612F802F0E94EC0841E06E2D2B
S1130EC0802F0E94EC080F5FF2CF0F90DF91CF913B
S1130ED01F910F91FF90EF90DF90CF900895EF92C4
S1130EE0FF920F931F93CF93DF931F92CDB7DEB77B
S1130EF0062F142F180FE82E260FE11671F0F02E8E
S1130F00F21649F041E06F2D8E2D29830E94EC08E2
S1130F10F3942981F5CFE394F0CF0F90DF91CF9133
S1130F201F910F91FF90EF900895DF92EF92FF923F
S1130F300F931F93CF93DF931F92CDB7DEB7182F74
S1130F40062FD42ED80E222381F0E12EF22EF00E9D
S1130F50ED1449F040E06F2D8E2D29830E94EC089A
S1130F60E3942981F5CF2150EECF0F90DF91CF91FB
S1130F701F910F91FF90EF90DF900895229A219A8C
S1130F80209A0F9A2398289A8CB58D658CBD1EBC27
S1130F900DB407FEFDCF28981092900510928F058E
S1130FA010928E0510928D0508950DB407FEFDCFA5
S1130FB0179A8EBD40918D0550918E0520918F0515
S1130FC03091900594E8949FF001959FF00D1124C1
S1130FD0E20FF31FEE5EFE4F808380918F059091A8
S1130FE090058438910548F480918F05909190057F
S1130FF001969093900580938F0508950DB407FE94
S1131000FDCF17988EBD089590E09093900580933E
S11310108F0570E070938E0560938D05089520917F
S11310208D0530918E0580918F059091900544E84F
S1131030429FF001439FF00D1124E80FF91FEE5E6B
S1131040FE4F8081089580918F05909190050895B9
S113105080918D0590918E0508951F920F920FB681
S11310600F921124289A0F900FBE0F901F9018957D
S11310700E94BE0781EA0E94FE0780EC0E94FE07E0
S113108082EA0E94FE078FE20E94FE0788EC8A959E
S1131090F1F788EC8A95F1F788EC8A95F1F788ECFA
S11310A08A95F1F788EC8A95F1F788EC8A95F1F73F
S11310B088EC8A95F1F788EC8A95F1F788EC8A95A3
S11310C0F1F788EC8A95F1F781E80E94FE0784E144
S11310D00E94FE0784EA0E94FE078FEA0E94FE0730
S11310E086EA0E94FE0780EB0E94FE0780E10E94D0
S11310F0FE0780E00E94FE0780E40C94FE071F9325
S1131100CF93DF931F92CDB7DEB7182F82958F70E0
S1131110806169830E94FE07812F8F700E94FE0701
S11311206981862F806B0E94FE076981812F0F9051
S1131130DF91CF911F910C940408CF93DF93C0E00B
S11311406C2F80E00E947F08D4E880E00E94D507DD
S1131150D150D9F7CF5FC83099F7DF91CF91089577
S11311600F931F93CF93DF9390E0809725E0289F00
S11311708001299F100D1124C0E0D0E00F541E4FB0
S1131180F801EC0FFD1F84910E94D5072196C5300C
S1131190D105B1F780E0DF91CF911F910F910C94AD
S11311A0D507CF93DF93FC018491EF012196882327
S11311B021F00E94B008FE01F7CFDF91CF9108958E
S11311C0CF93DF93EC018991882319F00E94B00832
S11311D0FACFDF91CF910895DF92EF92FF920F93B0
S11311E01F93CF93DF939C01CB017A0160E470E0FD
S11311F00E94570AEC018C0197FF02C0095F1F4F40
S113120083E0159507958A95E1F7C90164E870E0D4
S11312100E94570AD82E602F0E947F080E940F0850
S1131220482FCE0168E070E00E94570A21E030E0C8
S1131230082E01C0220F0A94EAF7EF2819F0C42FF0
S1131240C22B03C0C22FC095C423602F8D2D0E94D2
S11312507F088C2FDF91CF911F910F91FF90EF901A
S1131260DF900C94D507EF92FF920F931F93CF93C7
S1131270DF9300D01F92CDB7DEB78C0164E670E037
S11312800E94570ACB014AE0BE016F5F7F4F0E9464
S1131290810A101611061CF480E20E94B008C801ED
S11312A089519C4F8F3C974018F480E20E94B0080B
S11312B0CE0101967C01F70181917F01882319F009
S11312C00E94B008F8CF8EE20E94B008C80117FF50
S11312D003C091958195910964E670E00E94570AD4
S11312E08C014AE0BE016F5F7F4F0E94810A0A3081
S11312F011051CF480E30E94B0088E010F5F1F4F9C
S1131300F80181918F01882319F00E94B008F8CF69
S11313100F900F900F90DF91CF911F910F91FF903D
S1131320EF900895CF93DF93CDB7DEB727970FB62D
S1131330F894DEBF0FBECDBF4AE0BE016F5F7F4FA2
S11313400E94810A0E94E00827960FB6F894DEBF37
S11313500FBECDBFDF91CF9108950F931F93CF930D
S1131360DF931F92CDB7DEB7082F10E0101731F0CE
S113137080E091E00E94E0081F5FF8CF0E942808F7
S113138089830E942308698196E0199F801911249A
S11313900F90DF91CF911F910F910C947F0884B52A
S11313A0826084BDEEE6F0E08081816080830895F0
S11313B0809134059091350508959C014091340540
S11313C050913505CA01821B930B4217530708F449
S11313D00197089580913205909133050E94DD09AB
S11313E0CA9750F080913405909135059093330558
S11313F08093320581E0089580E008951F920F9252
S11314000FB60F9211248F939F938091340590917E
S11314103505019690933505809334059F918F91FE
S11314200F900FBE0F901F9018951F920F920FB63A
S11314300F9211248F939F938091340590913505D9
S1131440019690933505809334059F918F910F9069
S11314500FBE0F901F9018951F920F920FB60F9208
S113146011248F939F9380913405909135050196B3
S113147090933505809334059F918F910F900FBE03
S11314800F901F901895AA1BBB1B51E107C0AA1F00
S1131490BB1FA617B70710F0A61BB70B881F991F11
S11314A05A95A9F780959095BC01CD01089597FBB5
S11314B0072E16F4009407D077FD09D00E94430A42
S11314C007FC05D03EF4909581959F4F0895709543
S11314D061957F4F0895A29FB001B39FC001A39F60
S11314E0700D811D1124911DB29F700D811D112459
S11314F0911D08950E946B0AB7FF0895821B930BF8
S11315000895BB274A3031F4992322F4BDE2909523
S113151081959F4F0C948D0ABB27FB015527AA2761
S1131520880F991FAA1FA41710F0A41B839550516C
S1131530B9F7A05DAA3308F0A95DA193009779F7E4
S1131540B111B1931192CB010C94A60ADC01FC01F8
S1131550672F71917723E1F7329704C07C916D93E3
S113156070836291AE17BF07C8F30895F894FFCF54
S1051570200055
S9030000FC
