:100000000C943E000C945B000C945B000C945B0021
:100010000C945B000C9449060C945B000C945B0000
:100020000C945B000C945B000C945B000C945B00E4
:100030000C94CD060C94D7060C94C3060C94AC0615
:100040000C945B000C945B000C94F8040C945B0023
:100050000C945B000C945B000C943C030C948703A1
:100060000C945B000C945B000C945B000C94D0002F
:100070000C945B000C945B000C945B0011241FBE7D
:10008000CFEFD8E0DEBFCDBF11E0A0E0B1E0E6E801
:10009000FEE002C005900D92A230B107D9F721E031
:1000A000A2E0B1E001C01D92A03BB207E1F70E94BF
:1000B000FB020C9441070C940000ECE7F0E0908107
:1000C0008F70907F982B90830895EBE7F0E080810C
:1000D000806A8083EAE7F0E080818F688083ECE7C4
:1000E000F0E0808180648083E1E2F1E01082109290
:1000F000220184E08093190189E0809318018AE04D
:100100008093170110927E0110927D011092800160
:1001100010927F011092820110928101E081F0E043
:10012000E95EFE4F80810E945D0010920A010895F1
:10013000EAE7F0E080818064808308958091200167
:1001400080FF2DC080917D0190917E012FE030E0F5
:10015000B9010E94E10670931B0160931A0180911E
:100160007F0190918001B9010E94E10670931D0109
:1001700060931C018091810190918201B9010E94DC
:10018000E10670931F0160931E0180910A018F5F49
:1001900080930A01E0E2F1E080818E7F8083089500
:1001A0001F920F920FB60F9211242F933F934F93EC
:1001B0005F936F937F938F939F93AF93BF93CF93EF
:1001C000DF93EF93FF938091200181FF1FC0A1E295
:1001D000B1E0EC91F0E0EE0FFF1FE358FE4F80819D
:1001E0009181AC91209122013FE0A39FD001112485
:1001F000A20FB11DAA0FBB1FA05EBE4F13962D917B
:100200003C911497821B930B91838083E1E2F1E090
:10021000A081C2E2D1E0288180917800909179009C
:100220004FE04A9FD0011124A20FB11DAA0FBB1F9E
:10023000A05EBE4F14969C938E931397A081B0E05E
:10024000AA0FBB1FA358BE4F2D913C9111979081CF
:100250008881499FE0011124C80FD11DCC0FDD1FFB
:10026000C05EDE4F8B819C81820F931F11969C9301
:100270008E9380818F5F80838330C9F41092210137
:10028000E2E2F1E080818F5F80838F3039F4109259
:100290002201E0E2F1E08081826080838091200190
:1002A00081FF05C0E0E2F1E0808181608083E09120
:1002B0002101F0E0E95EFE4F80810E945D000E9416
:1002C0009800FF91EF91DF91CF91BF91AF919F91F6
:1002D0008F917F916F915F914F913F912F910F90EF
:1002E0000FBE0F901F9018950E949E000E9414064A
:1002F000809108018093870183B180728093880187
:1003000010928401109285011092860180911E0145
:1003100090911F0190938B0180938A0180911A0123
:1003200090911B0190938D0180938C010E94070591
:1003300080910401909105010E9476068135934CCD
:1003400098F05A982B988FEF93ED20E381509040CE
:100350002040E1F700C000000E9471069093050163
:10036000809304012B9A5A9A80910901823021F0DE
:1003700080910901813031F41D9902C05B9A09C056
:100380005B9807C080910901833011F45B9A01C02A
:100390005B98A0911A01B0911B01CD0192508F3F43
:1003A0009340A0F420E233E00E942607DC01CB0159
:1003B000805E9C43A640B109072E7AE0B695A795CA
:1003C000979587957A95D1F7702D02C080E090E0DF
:1003D00020910901233009F4D0C020910901222382
:1003E00009F4CBC020910901223029F020910901A4
:1003F000213009F0C2C01D9B03C08836910520F44E
:100400001D9910C0C29770F080910601909107016C
:100410000E9476068B34910528F083E080930901D1
:100420000E940E060E9471069093050180930401BC
:1004300080910801811110C00E9471069093030100
:10044000809302010E947106909307018093060138
:1004500081E080930801089580910801813091F531
:1004600080910201909103010E9476060F9708F493
:1004700084C080910901823029F41D9B08C088E561
:1004800092E00AC01D9B06C088EC90E005C082EC9B
:1004900091E002C082EC91E09093AF018093AE01B5
:1004A00082E0809308010E9471069093030180937B
:1004B00002010E94710690930701809306010E9439
:1004C0000206089580910801823009F054C080919D
:1004D0000201909103010E947606209109012230C9
:1004E00011F423B101C023B1499708F446C00E941A
:1004F000710690930301809302018091AE01909167
:10050000AF0120910901223029F41D9B08C024EE7F
:1005100033E00AC01D9B06C024EE33E005C020EE88
:1005200033E002C020EE33E028173907D0F02091E5
:100530000901223029F41D9B08C024E030E00AC0E4
:100540001D9B06C024E030E005C028E030E002C07A
:1005500028E030E0820F931F9093AF018093AE01AB
:10056000089588EE93E09093AF018093AE0183E00D
:1005700080930801089580910801089589B58360EA
:1005800089BD529A539A5B9A239A579856985598D0
:10059000219820983998519838985F9A5E9A5D9A78
:1005A000299A289A419A599A409A22983C982598D3
:1005B000E8E6F0E0808183608083EAE6F0E0808115
:1005C00084608083EBE6F0E0808180618083089521
:1005D00089B1881F8827881F4E9982604D99846051
:1005E000199988601899806131998062499980646D
:1005F0003099806808950E94BE020E945E060E94A3
:10060000E8020E94D2030E9465000E94DE057894F1
:100610001A9B06C0349B04C081E08093000115C082
:100620001A9B07C02B9A1092000182E08093090167
:100630000CC0349B07C02B9A1092000181E080937C
:10064000090103C081E0809300012B9A5A9A0E940D
:1006500098000E94710690930301809302010E940A
:10066000710690930501809304010E9498068823E7
:10067000E1F30E947401F9CF1F920F920FB60F920F
:1006800011242F933F934F935F936F937F938F9397
:100690009F93AF93BF93EF93FF931A9B1BC08091DF
:1006A0000901811117C082E08093090184E690E07E
:1006B0009093AF018093AE010E9471069093070161
:1006C0008093060180910001813081F41092000135
:1006D0002B9A0CC01A990AC080910901882331F025
:1006E000109209010E940E0610920801FF91EF91ED
:1006F000BF91AF919F918F917F916F915F914F913A
:100700003F912F910F900FBE0F901F9018951F9241
:100710000F920FB60F9211242F933F934F935F9335
:100720006F937F938F939F93AF93BF93EF93FF93B9
:10073000349B1BC080910901811117C081E0809317
:10074000090184E690E09093AF018093AE010E948E
:10075000710690930701809306018091000181301A
:1007600081F4109200012B9A0CC034990AC0809138
:100770000901882331F0109209010E940E0610929F
:100780000801FF91EF91BF91AF919F918F917F9160
:100790006F915F914F913F912F910F900FBE0F90EE
:1007A0001F9018952F923F925F926F927F928F9237
:1007B0009F92AF92BF92CF92DF92EF92FF920F93F0
:1007C0001F93CF93DF9380FD0CC00F2EF0E98F2E87
:1007D00099249394F02D6894662464F8772471F832
:1007E0000CC00F2EF1E98F2E99249394F02D0F2E2B
:1007F000F1E16F2EF2E07F2EF02D81FF06C092E036
:10080000690E711CA2E08A0E911C82FF06C0B4E042
:100810006B0E711CC4E08C0E911C81E08093D8009B
:100820001092E500E2EEF0E080818E608083E3EEDE
:10083000F0E080818C608083E4EEF0E0808187636B
:10084000808380E0CDEED0E0AFEEB0E0EEEEF0E001
:10085000982F9295907F98831C9210828F5F86309C
:10086000B9F7EBEDF0E08081806A80830F2EFDEE1A
:10087000CF2ED12CF02DF60110820F2EF4EFEF2E9B
:10088000F12CF02DD7011C9205EF10E0E801188241
:1008900066EF70E099249A94FB01908247EF50E054
:1008A000DA019C92AFEEB0E01C928C9180688C9340
:1008B00020EF30E0E90118820F2EF1EF2F2E312CBE
:1008C000F02DF1011082C2EFD0E018820F2EF3EF6D
:1008D000AF2EB12CF02D6894772474F8F501708256
:1008E000EEEDF0E05080852D81608083E601788216
:1008F000E7011882E8011882EB019882EA019882E8
:100900001C927C90D72DD868DC93E9011882E10114
:100910001882660C660C660C660C660CC2EFD0E0A2
:1009200068820F2EF2E47F2EF02DE5017882708030
:10093000D72DD260D0830F2EF0E37F2EF02DE6016D
:100940007882E7011882E80118820F2EF0EE7F2EE0
:10095000F02DEB017882EA0198821C92E90118825D
:10096000E1011882C2EFD0E018820F2EF2E56F2E5F
:10097000F02DE50168826080D62DD860D083689420
:10098000662465F8E6016882E7011882E8011882AA
:10099000EB017882EA0198821C92D9011C92E10154
:1009A0001882880C880C880C880C880CA2EFB0E0A8
:1009B0008C9282E3E5018883808184608083109239
:1009C0000E01E8EDF0E0808182608083DF91CF91BD
:1009D0001F910F91FF90EF90DF90CF90BF90AF905D
:1009E0009F908F907F906F905F903F902F90089591
:1009F0001F920F920FB60F9211248F9381E0809374
:100A00000E018F910F900FBE0F901F90189580913F
:100A10000E01882379F110920E018091EC00807F05
:100A2000EDEEF0E08083808182958F7081F480917B
:100A3000EE0085FF03C081E080930D011092EE006F
:100A4000EFEEF0E0108280818068808308958091CD
:100A5000ED0082958F70833019F41092EE000895A6
:100A60008091ED0082958F70823009F0A6C01092BF
:100A7000EE00089580910C01882309F45AC08091FA
:100A80000B01811104C081E080930B010895813036
:100A900001F5809187018093960180918501809373
:100AA00097018091860180939801809184018093C1
:100AB00099018091880180939A01809189018093A6
:100AC0009B0110929C0110929D0182E080930B018A
:100AD0000895823009F58091870180939E0180916D
:100AE000850180939F01992787FD90959093A001A0
:100AF000ECE8F1E0908181819093A1018093A201C3
:100B0000809184018093A3011092A4011092A50109
:100B100083E080930B010895833009F04EC081E09B
:100B20008093A6011092A70110920C0110920B0164
:100B3000089580910D01882309F43FC0809101013F
:100B40008295807F8093ED008091DC0090E00090A2
:100B5000010102C0959587950A94E2F780FD1DC0BA
:100B600080E090E0AAEFB0E0E0910101F0E0319781
:100B7000EE0FFF1FEE0FFF1FEE0FFF1FE80FF91F15
:100B8000E257FE4F20812C9301968830910561F742
:100B90001092EE0088E48093EF0080910101833091
:100BA00048F082E08093010110920D0181E0809372
:100BB0000C0108958F5F809301010895509A589811
:100BC000589AE5EBF0E080818C608083E7EBF0E001
:100BD00080E88083A8EBB0E08C9180688C938FEFE5
:100BE00097E09093B3008093B20081E08093B600C9
:100BF00084E690E09093AF018093AE0180818E7F78
:100C0000808308958CEC90E09093A3008093A200E1
:100C1000E7EBF0E08081816080830895E7EBF0E00E
:100C200080818E7F808308958091AE019091AF0185
:100C300020911101309112018217930749F1893EE9
:100C400023E0920728F49093100180930F0106C0CF
:100C500088EE93E09093100180930F0120910F0193
:100C600030911001AFEFB7E00E94170728EE33E094
:100C700040E050E00E94F5063093A3002093A200CC
:100C80008091AE019091AF01909312018093110178
:100C900008951F920F920FB60F9211248F93EF9326
:100CA000FF93ECEBF0E0808182608083FF91EF9115
:100CB0008F910F900FBE0F901F90189584B5826092
:100CC00084BD89EF87BDEEE6F0E08081826080839D
:100CD00085B5836085BDE1E8F0E080818360808335
:100CE00008958091150190911601089520911501A4
:100CF000309116012817390728F0A901481B590B14
:100D0000CA010895281B390BC90101970895209144
:100D10008400309185002817390728F0A901481B65
:100D2000590BCA010895281B390BC9010197089571
:100D300080911301909114010E948706499750F009
:100D40008091840090918500909314018093130109
:100D500081E0089580E008951F920F920FB60F92E0
:100D600011248F939F938091150190911601019604
:100D700090931601809315019F918F910F900FBE54
:100D80000F901F9018951F920F920FB60F9211247B
:100D90000F900FBE0F901F9018951F920F920FB6D5
:100DA0000F9211240F900FBE0F901F9018951F9255
:100DB0000F920FB60F9211240F900FBE0F901F903D
:100DC000189597FB072E16F4009407D077FD09D0ED
:100DD0000E942D0707FC05D03EF4909581959F4F0A
:100DE0000895709561957F4F0895A1E21A2EAA1B70
:100DF000BB1BFD010DC0AA1FBB1FEE1FFF1FA217CB
:100E0000B307E407F50720F0A21BB30BE40BF50BC7
:100E1000661F771F881F991F1A9469F76095709550
:100E2000809590959B01AC01BD01CF010895A29FD3
:100E3000B001B39FC001A39F700D811D1124911DAE
:100E4000B29F700D811D1124911D08950E941707F6
:100E5000B7FF0895821B930B0895AA1BBB1B51E19A
:100E600007C0AA1FBB1FA617B70710F0A61BB70B1A
:100E7000881F991F5A95A9F780959095BC01CD01BF
:060E80000895F894FFCF75
:020E8600010267
:00000001FF
