:100000000C943E000C945B000C945B000C945B0021
:100010000C945B000C9434070C945B000C945B0014
:100020000C945B000C945B000C945B000C945B00E4
:100030000C94B8070C94C2070C94AE070C94970765
:100040000C945B000C945B000C94AB050C945B006F
:100050000C945B000C945B000C948F030C94DA03FB
:100060000C945B000C945B000C945B000C945401AA
:100070000C945B000C945B000C945B0011241FBE7D
:10008000CFEFD8E0DEBFCDBF11E0A0E0B1E0ECE5FE
:10009000F0E102C005900D92A230B107D9F721E03E
:1000A000A2E0B1E001C01D92A63CB207E1F70E94B8
:1000B0004E030C942C080C940000ECE7F0E09081C7
:1000C0008F70907F892B80830895EBE7F0E080812B
:1000D000806A8083EAE7F0E080818F688083ECE7C4
:1000E000F0E0808180648083E6E2F1E01182128298
:1000F000A7E1B1E084E012968C93129789E0119603
:100100008C9311978AE08C93109284011092830152
:100110001092860110928501109288011092870139
:10012000E181F0E0E95EFE4F80810E945D00109267
:100130000A010895EAE7F0E08081806480830895F1
:10014000EF92FF920F931F93CF93DF93809126013D
:1001500080FFA3C080918301909184012FE030E063
:10016000B9010E94CC07EB01EAE1F1E07183608301
:100170008091850190918601B9010E94CC078B0185
:10018000738362838091870190918801B9010E94F5
:10019000CC07AB017B0175836483C8018A579F4FED
:1001A0008F3F9340C8F42AEA30E0D8010E9411083A
:1001B000DC01CB018A55964AAF4FBF4F072E7AE03C
:1001C000B695A795979587957A95D1F7702D9093C9
:1001D00023018093220104C0109223011092220176
:1001E000CE018F5F9140811524E09207F4F4815E87
:1001F0009A4F18161906CCF420E233E0DE010E9473
:100200001108DC01CB01805E9C43A640B109072E9A
:100210007AE0B695A795979587957A95D1F7702D41
:10022000909321018093200104C01092210110922B
:1002300020018DE1E816F1042CF4109225011092B2
:10024000240121C02BE2E216F1043CF084E690E0A8
:10025000909325018093240116C08FE0849F900124
:10026000859F300D1124245A3140369527953695B7
:100270002795ABE7B4E10E94020896958795909385
:1002800025018093240180910A018F5F80930A01E8
:10029000E6E2F1E080818E7F8083DF91CF911F9134
:1002A0000F91FF90EF9008951F920F920FB60F924B
:1002B00011242F933F934F935F936F937F938F936B
:1002C0009F93AF93BF93EF93FF938091260181FF9C
:1002D00021C0A6E2B1E01196EC91119712968C9193
:1002E00012979FE0E99FF0011124E80FF11DEE0F36
:1002F000FF1FEA5DFE4F238134811196EC91F0E0FF
:10030000EE0FFF1FED57FE4F80819181821B930BF3
:1003100091838083A6E2B1E01196EC911197129639
:100320009C91129720917800309179008FE08E9FF8
:10033000F0011124E90FF11DEE0FFF1FEA5DFE4FE2
:10034000348323831196EC91119712969C91129706
:100350008E9FF0011124E90FF11DEE0FFF1FEA5DE2
:10036000FE4F838194811196EC911197F0E0EE0F8E
:10037000FF1FED57FE4F20813181820F931F918324
:10038000808311968C9111978F5F11968C931197A2
:100390008330A1F4FD01118282818F5F82838F30CF
:1003A00021F412828081826080838091260181FF06
:1003B00005C0E6E2F1E0808181608083E091270161
:1003C000F0E0E95EFE4F80810E945D000E949A008D
:1003D000FF91EF91BF91AF919F918F917F916F911D
:1003E0005F914F913F912F910F900FBE0F901F90F3
:1003F00018950E94A0000E94FF0680910801EAE87B
:10040000F1E0838383B180728483AAE1B1E0169620
:100410008C91169780831A968C911A9781831896DF
:100420008C911897828314968D919C911597978340
:1004300086838D919C91918780870E94BA058091D7
:100440000401909105010E9461078135934C98F059
:100450005A982B988FEF93ED20E3815090402040E5
:10046000E1F700C000000E945C07909305018093B3
:1004700004012B9A5A9A80910901823021F08091CF
:100480000901813031F41D9902C05B9A09C05B9863
:1004900007C080910901833011F45B9A01C05B9819
:1004A00080910901833009F4BBC080910901882340
:1004B00009F4B6C080910901823029F080910901C8
:1004C000813009F0ADC083B183B10E945C07909385
:1004D00005018093040180910801811110C00E94E0
:1004E0005C0790930301809302010E945C07909344
:1004F00007018093060181E08093080108958091AF
:100500000801813091F580910201909103010E94D0
:1005100061070F9708F484C080910901823029F4A3
:100520001D9908C082EC91E00AC01D9906C082ECBA
:1005300091E005C088E592E002C088EC90E09093DD
:10054000C5018093C40182E0809308010E945C078A
:1005500090930301809302010E945C07909307012E
:10056000809306010E94ED06089580910801823073
:1005700009F054C080910201909103010E9461072B
:1005800020910901223011F423B101C023B1499710
:1005900008F446C00E945C07909303018093020117
:1005A0008091C4019091C50120910901223029F464
:1005B0001D9908C020EE33E00AC01D9906C020EE48
:1005C00033E005C024EE33E002C024EE33E0281708
:1005D0003907D0F020910901223029F41D9908C073
:1005E00028E030E00AC01D9906C028E030E005C0D0
:1005F00024E030E002C024E030E0820F931F9093AB
:10060000C5018093C401089588EE93E09093C501DD
:100610008093C40183E080930801089580910801CC
:10062000089589B5836089BD529A539A5B9A239A3B
:1006300057985698559821982098399851983898F5
:100640005F9A5E9A5D9A299A289A419A599A409A95
:1006500022983C982598E8E6F0E0808183608083CA
:10066000EAE6F0E0808184608083EBE6F0E0808160
:1006700080618083089589B1881F8827881F4E99DB
:1006800082604D99846019998860189980613199C8
:100690008062499980643099806808950E941103AE
:1006A0000E9449070E943B030E9425040E946500A6
:1006B0000E94C90678941A9B06C0349B04C081E04E
:1006C0008093000115C01A9B07C02B9A109200015D
:1006D00082E0809309010CC0349B07C02B9A1092D2
:1006E000000181E08093090103C081E08093000153
:1006F0002B9A5A9A0E949A000E945C0790930301D9
:10070000809302010E945C0790930501809304018D
:100710000E9483078823E1F30E94F901F9CF1F9219
:100720000F920FB60F9211242F933F934F935F9325
:100730006F937F938F939F93AF93BF93EF93FF93A9
:100740001A9B1BC080910901811117C082E0809320
:10075000090184E690E09093C5018093C4010E9452
:100760005C0790930701809306018091000181301E
:1007700081F4109200012B9A0CC01A990AC0809142
:100780000901882331F0109209010E94F9061092A4
:100790000801FF91EF91BF91AF919F918F917F9150
:1007A0006F915F914F913F912F910F900FBE0F90DE
:1007B0001F9018951F920F920FB60F9211242F932E
:1007C0003F934F935F936F937F938F939F93AF93D9
:1007D000BF93EF93FF93349B1BC08091090181115C
:1007E00017C081E08093090184E690E09093C501F1
:1007F0008093C4010E945C079093070180930601D7
:1008000080910001813081F4109200012B9A0CC07C
:1008100034990AC080910901882331F010920901AE
:100820000E94F90610920801FF91EF91BF91AF91DC
:100830009F918F917F916F915F914F913F912F91F8
:100840000F900FBE0F901F9018952F923F924F92CE
:100850005F926F927F928F929F92AF92BF92CF9250
:10086000DF92EF92FF920F931F93CF93DF9300D00D
:10087000CDB7DEB7877090E02C0120EF421A2DEF44
:10088000520A3C0130E7631A3EEF730A4C01E0E77D
:100890008E1AEDEF9E0A1C01F0E72F1AFAEF3F0ABD
:1008A0009C01205F394F3A83298381E08093D800EF
:1008B0001092E500E2EEF0E080818E608083E3EE4E
:1008C000F0E080818C608083E4EEF0E080818763DB
:1008D000808380E02DEE30E0AFEEB0E04EEE50E0F1
:1008E000982F9295907FF90190831C92FA011082C3
:1008F0008F5F8630A9F7EBEDF0E08081806A80831E
:100900000F2EFDEECF2ED12CF02DF60110820F2EE2
:10091000F4EFEF2EF12CF02DF701108205EF10E02F
:10092000F801108266EF70E099249A94FB0190829E
:1009300047EF50E0FA019082AFEEB0E01C928C914C
:1009400080688C9320EF30E0F901108281EF90E015
:10095000FC011082E2EFF0E010820F2EF3EFAF2ED9
:10096000B12CF02D6894552454F8F5015082EEED29
:10097000F0E07080F72DF1607F2EEEEDF0E07082F8
:10098000F6015082F7011082F8011082FB0190827B
:10099000FA0190821C927C90F72DF868FC93F90183
:1009A0001082FC011082440C440C440C440C440C96
:1009B000E2EFF0E040820F2EF2E47F2EF02DF50101
:1009C0007082EEEDF0E07080F72DF2607F2EEEED9C
:1009D000F0E070826894772475F8F6017082F70170
:1009E0001082F80110820F2EF0EE7F2EF02DFB0109
:1009F0007082FA0190821C92F9011082FC0110822F
:100A0000660C660C660C660C660CE2EFF0E0608229
:100A10000F2EF2E36F2EF02DF5016082EEEDF0E087
:100A20006080F62DF4606F2EEEEDF0E060820F2E08
:100A3000F0E36F2EF02DF6016082F7011082F801CD
:100A40001082FB017082FA0190821C92F9011082DF
:100A5000FC011082880C880C880C880C880CE2EF52
:100A6000F0E080820F2EF2E58F2EF02DF5018082CE
:100A7000EEEDF0E08080F82DF8608F2EEEEDF0E0E6
:100A800080826894882486F8F6018082F7011082BB
:100A9000F8011082FB017082FA0190821C92F90128
:100AA0001082FC011082220C220C220C220C220C3F
:100AB000E2EFF0E020820F2EF2EB8F2EF02DF50109
:100AC0008082EEEDF0E08080F82DF0618F2EEEED6B
:100AD000F0E080820F2EF0E58F2EF02DF60180825F
:100AE000F7011082F8011082FB019082FA019082D6
:100AF0001C924C9148684C93F9011082FC011082C1
:100B000089818295880F807EE2EFF0E0808382EC1D
:100B1000F5018083EEEDF0E08081806280831092A9
:100B20000E01E8EDF0E08081826080830F900F90ED
:100B3000DF91CF911F910F91FF90EF90DF90CF90B9
:100B4000BF90AF909F908F907F906F905F904F90ED
:100B50003F902F9008951F920F920FB60F9211247D
:100B60008F9381E080930E018F910F900FBE0F90B5
:100B70001F90189580910E01882309F478C0109277
:100B80000E018091EC00807FEDEEF0E080838081AB
:100B900082958F7081F48091EE0085FF03C081E023
:100BA00080930D011092EE00EFEEF0E01082808154
:100BB0008068808308958091ED0082958F708130E8
:100BC000D1F48091EE0085FF0DC080E090E0AAEFA7
:100BD000B0E02C91FC01EC56FE4F20870196883046
:100BE0009105B9F71092EE00EFEEF0E010828081EF
:100BF0008068808308958091ED0082958F708230A7
:100C000019F41092EE0008958091ED0082958F7096
:100C1000833019F41092EE0008958091ED008295D2
:100C20008F70843019F41092EE0008958091ED00D9
:100C300082958F70853009F0ABC08091EE0085FF02
:100C40000DC080E090E0AAEFB0E02C91FC01EC56E2
:100C5000FE4F20A7019688309105B9F71092EE005B
:100C6000EFEEF0E0108280818068808308958091AB
:100C70000C01882309F44DC080910B01813021F4CF
:100C800082E080930B0108958230F9F4AAE8B1E084
:100C900013968C911397E4E9F1E0808B11968C9177
:100CA0001197818B12968C911297828B8C91838BEA
:100CB00014968C911497848B15968C91858B168A3B
:100CC000178A83E080930B010895833009F060C098
:100CD000AAE8B1E013968C911397E4E9F1E0808FD4
:100CE00011968C911197818F082E000C990B928F81
:100CF00018969C91189719968C911997938F848FB9
:100D00008C91858F168E178E10920C0110920B010C
:100D1000089580910D018823D9F180910101829578
:100D2000807F8093ED008091DC0090E000900101D5
:100D300002C0959587950A94E2F780FD19C080E07E
:100D400090E0AAEFB0E020910101FC0138E0239F80
:100D5000E00DF11D1124EC56FE4F20812C930196DD
:100D60008830910581F71092EE0088E48093EF00BF
:100D700080910101833048F082E08093010110925C
:100D80000D0181E080930C0108958F5F8093010134
:100D90000895509A5898589AE5EBF0E080818C605D
:100DA0008083E7EBF0E080E88083A8EBB0E08C91F3
:100DB00080688C938FEF97E09093B3008093B2009C
:100DC00081E08093B60084E690E09093C501809323
:100DD000C40180818E7F808308958CEC90E0909395
:100DE000A3008093A200E7EBF0E080818160808324
:100DF0000895E7EBF0E080818E7F808308958091F5
:100E0000C4019091C5012091110130911201821706
:100E1000930749F1893E23E0920728F4909310014B
:100E200080930F0106C088EE93E0909310018093A9
:100E30000F0120910F0130911001AFEFB7E00E9438
:100E4000020828EE33E040E050E00E94E0073093D3
:100E5000A3002093A2008091C4019091C5019093BA
:100E600012018093110108951F920F920FB60F92F5
:100E700011248F93EF93FF93ECEBF0E0808182607D
:100E80008083FF91EF918F910F900FBE0F901F9075
:100E9000189584B5826084BD89EF87BDEEE6F0E0E9
:100EA00080818260808385B5836085BDE1E8F0E064
:100EB000808183608083089580911501909116014F
:100EC000089520911501309116012817390728F04F
:100ED000A901481B590BCA010895281B390BC901E8
:100EE00001970895209184003091850028173907D3
:100EF00028F0A901481B590BCA010895281B390B7A
:100F0000C9010197089580911301909114010E94E5
:100F10007207499750F080918400909185009093DA
:100F200014018093130181E0089580E008951F92D9
:100F30000F920FB60F9211248F939F9380911501FA
:100F400090911601019690931601809315019F913F
:100F50008F910F900FBE0F901F9018951F920F92B8
:100F60000FB60F9211240F900FBE0F901F9018957F
:100F70001F920F920FB60F9211240F900FBE0F9079
:100F80001F9018951F920F920FB60F9211240F9079
:100F90000FBE0F901F90189597FB072E16F4009424
:100FA00007D077FD09D00E94180807FC05D03EF451
:100FB000909581959F4F0895709561957F4F089505
:100FC000A1E21A2EAA1BBB1BFD010DC0AA1FBB1F4D
:100FD000EE1FFF1FA217B307E407F50720F0A21BBF
:100FE000B30BE40BF50B661F771F881F991F1A942C
:100FF00069F760957095809590959B01AC01BD0156
:10100000CF010895A29FB001B39FC001A39F700DAF
:10101000811D1124911DB29F700D811D1124911D00
:1010200008950E940208B7FF0895821B930B08954C
:10103000AA1BBB1B51E107C0AA1FBB1FA617B707FE
:1010400010F0A61BB70B881F991F5A95A9F780951A
:0C1050009095BC01CD010895F894FFCFED
:02105C0001028F
:00000001FF
