:100000000C94A3000C94C0000C94C0000C94C0008D
:100010000C94C0000C94920C0C94C0000C94C00082
:100020000C94C0000C94C0000C94C0000C94C00050
:100030000C94160D0C94200D0C940C0D0C94F50CD6
:100040000C94C0000C94C0000C948C070C94C0005D
:100050000C942A0D0C94C0000C945D050C94A8051A
:100060000C94C0000C94C0000C94C0000C94B60119
:100070000C94C0000C94C0000C94C0005D088B0868
:10008000C408E8080C09280961098A09150A380A10
:100090005B0A7E0A9A0ADB0A040B454550524F4D13
:1000A000207772697465206661696C65640A004531
:1000B0004550524F4D20777269746520435243205A
:1000C0006D6973736D61746368202D20726574723D
:1000D000696E670A00454550524F4D20777269742A
:1000E00065206F6B0A00454550524F4D2072656187
:1000F00064206661696C65640A00454550524F4D45
:10010000207265616420435243206D6973736D6191
:10011000746368202D2072657472696E670A0045E9
:100120004550524F4D2072656164206F6B0A004C40
:100130006F6164696E672064656661756C742076B2
:10014000616C7565730011241FBECFEFD8E0DEBF70
:10015000CDBF11E0A0E0B1E0E6ECFDE102C005900A
:100160000D92A032B107D9F722E0A0E2B1E001C0C0
:100170001D92A73BB207E1F70E9403050C94E10E24
:100180000C940000ECE7F0E090818F70907F892B59
:1001900080830895EBE7F0E08081806A8083EAE75E
:1001A000F0E080818F688083ECE7F0E080818064FC
:1001B0008083E7EEF1E011821282A8EDB1E084E0E5
:1001C00012968C93129789E011968C9311978AE07E
:1001D0008C931092450210924402109247021092A2
:1001E00046021092490210924802E181F0E0E85282
:1001F000FE4F80810E94C200109228010895EAE714
:10020000F0E08081806480830895CF92DF92EF9246
:10021000FF920F931F93CF93DF938091E70180FFAD
:100220009CC080914402909145022FE030E0B901DA
:100230000E942C0E7B01EBEDF1E0718360838091D5
:10024000460290914702B9010E942C0E6B01738304
:1002500062838091480290914902B9010E942C0E5C
:100260008B0175836483CAE4D2E02E853F85D60175
:100270000E949E0E2FEF33E040E050E00E94620E9D
:100280008C859D85992374F4EE27FF27E81BF90BD5
:10029000E217F3073CF4280F391F3093E401209351
:1002A000E30104C01092E4011092E301CAE4D2E039
:1002B0002A853B85D7010E949E0E2FEF33E040E058
:1002C00050E00E94620E88859985992374F4EE2788
:1002D000FF27E81BF90BE217F3073CF4280F391F3F
:1002E0003093E2012093E10104C01092E2011092E8
:1002F000E101CAE4D2E0AA81BB8198010E94870E85
:100300002FEF33E040E050E00E94620E8881998137
:10031000280F391F3093E6012093E5018C819D81E0
:10032000821793072CF49093E6018093E5010BC0AC
:1003300080915002909151022817390724F490932C
:10034000E6018093E501809128018F5F8093280169
:10035000E7EEF1E080818E7F8083DF91CF911F9166
:100360000F91FF90EF90DF90CF9008951F920F9222
:100370000FB60F9211242F933F934F935F936F9378
:100380007F938F939F93AF93BF93EF93FF9380914E
:10039000E70181FF21C0A7EEB1E01196EC91119722
:1003A00012968C9112979FE0E99FF0011124E80FBB
:1003B000F11DEE0FFF1FE951FE4F2381348111968D
:1003C000EC91F0E0EE0FFF1FEC5BFD4F808191811F
:1003D000821B930B91838083A7EEB1E01196EC9181
:1003E000119712969C911297209178003091790084
:1003F0008FE08E9FF0011124E90FF11DEE0FFF1F1A
:10040000E951FE4F348323831196EC911197129694
:100410009C9112978E9FF0011124E90FF11DEE0FB0
:10042000FF1FE951FE4F838194811196EC91119742
:10043000F0E0EE0FFF1FEC5BFD4F20813181820F5A
:10044000931F9183808311968C9111978F5F1196E2
:100450008C9311978330A1F4FD01118282818F5F0B
:1004600082838F3021F41282808182608083809128
:10047000E70181FF05C0E7EEF1E0808181608083C4
:10048000E091E801F0E0E852FE4F80810E94C20056
:100490000E94FF00FF91EF91BF91AF919F918F91CB
:1004A0007F916F915F914F913F912F910F900FBE70
:1004B0000F901F9018950F931F93CF93DF93CFB793
:1004C000F89448E250E060E070E08AE492E00E9434
:1004D000B90ECFBF0AE412E0CFEFDFEF2BC081915E
:1004E000C8278C2F82958C27082E86958695802587
:1004F000082E8695802587700C2ECD2F8695079423
:100500008795D02DC82706948795D025C827E21750
:10051000F30729F7209731F48FE191E00E941A0E3A
:1005200080E012C08AEF90E00E941A0E82E0023C46
:10053000180729F0F801085D1F4F9801D0CF86EE0B
:1005400090E00E941A0E81E0DF91CF911F910F91F0
:100550000895CF93DF93EAE4F2E040E752E02FEF13
:100560003FEF81912827822F82958227082E86953A
:1005700086958025082E869580258770022E232F4C
:10058000869507948795302D2827069487953025E2
:100590002827E417F50729F730937102209370029A
:1005A000C2E0DFB7F89448E250E060E070E08AE42F
:1005B00092E00E94C90EDFBF0E945B02D82F81111A
:1005C00005C085ED90E00E941A0E0BC08FEA90E006
:1005D0000E941A0EC15029F78AE990E00E941A0E73
:1005E000D1E08D2FDF91CF910895EAE4F2E084E627
:1005F00090E0918380832BE73FEF338322839583C1
:1006000084831782168283E99EEF918780878BED22
:1006100092E09387828787E890E0958784878AEACB
:1006200090E09787868788E6808B82E3818B88E5D8
:1006300092E0938B828B88EC90E0958B848B82EC9C
:1006400091E0978B868B918F808F89E1828F838F4A
:10065000848F858F89E190E0978F868F91A380A307
:1006600093A382A395A384A308950E9405010E94E9
:100670005D0C80912601E4E7F2E0838383B1807210
:100680008483ABEDB1E016968C91169780831A9611
:100690008C911A97818318968C911897828314965F
:1006A0008D919C911597908787838D919C919287CE
:1006B00081870E94420880912201909123010E942B
:1006C000BF0C8135934C98F05A982B988FEF93ED8F
:1006D00020E3815090402040E1F700C000000E94DC
:1006E000BA0C90932301809322012B9A5A9A8091FD
:1006F0002701823021F080912701813031F41D994A
:1007000002C02C9A09C02C9807C080912701833021
:1007100011F42C9A01C02C9880912701833009F4A0
:1007200031C180912701882309F42CC180912701D0
:10073000823029F080912701813009F023C11D9B6F
:100740000AC080915A0290E02091E1013091E201CB
:100750002817390764F41D9918C080915B0290E056
:100760002091E1013091E2012817390774F080915E
:100770002401909125010E94BF0C8B34910528F033
:1007800083E0809327010E94570C0E94BA0C90933B
:1007900023018093220180912601811110C00E94C3
:1007A000BA0C90932101809320010E94BA0C90937F
:1007B00025018093240181E0809326010895809192
:1007C0002601813009F055C08091200190912101CE
:1007D0000E94BF0C0F9708F4D5C08091270182308A
:1007E00061F41D9B05C080915C0290915D0210C078
:1007F00080916002909161020BC01D9B05C08091A9
:100800005E0290915F0204C0809162029091630247
:100810009093B0028093AF0282E0809326010E9401
:10082000BA0C90932101809320010E94BA0C9093FE
:1008300025018093240180912701823061F41D9B62
:1008400005C080915C0290915D0210C080916002B1
:10085000909161020BC01D9B05C080915E0290913A
:100860005F0204C080916202909163020E94420C78
:10087000089580912601823009F082C08091200184
:10088000909121010E94BF0C20912701223041F458
:100890001D9B03C0209164020AC02091660207C01C
:1008A0001D9B03C02091650202C02091670230E0C9
:1008B0008217930708F466C00E94BA0C9093210136
:1008C000809320018091AF029091B0022091270186
:1008D0002230A1F41D9B09C0409168025091690229
:1008E00028EE33E0241B350B1CC040916C02509164
:1008F0006D0228EE33E0241B350B13C01D9B09C08D
:1009000040916A0250916B0228EE33E0241B350BB4
:1009100008C040916E0250916F0228EE33E0241B14
:10092000350B2817390710F120912701223061F487
:100930001D9B05C0209168023091690210C0209172
:100940006C0230916D020BC01D9B05C020916A02A4
:1009500030916B0204C020916E0230916F02820FC1
:10096000931F9093B0028093AF02089588EE93E0B6
:100970009093B0028093AF0283E0809326010895A4
:1009800080912601089589B5836089BD529A249A81
:100990005A9A2C9A239A57985698559821982098A5
:1009A0003998519838985F9A5E9A5D9A299A289A50
:1009B000419A599A409A22983C9825983F9AE8E69D
:1009C000F0E0808183608083EAE6F0E080818460EB
:1009D0008083EBE6F0E0808180618083089589B1B7
:1009E0008095881F8827881F4E9B82604D9B84605E
:1009F000199B8860189B8061319B8062499B806451
:100A0000309B806808950E94C3040E94A70C0E9436
:100A1000CA000E941E0C80E091EE0E947B0D0E9495
:100A2000EF0487700E94F305E1EBF2E08EE091E0C5
:100A30009383828380E091E09183808378940E9405
:100A40005B02813031F40E94F5028FE291E00E9456
:100A50001A0E1A9B06C0349B04C081E080931C01CF
:100A600015C01A9B07C02B9A10921C0182E080933C
:100A700027010CC0349B07C02B9A10921C0181E007
:100A80008093270103C081E080931C015A9A2C981F
:100A90000E94FF000E94BA0C9093210180932001D4
:100AA0000E94BA0C90932301809322010E94E10CD2
:100AB0008823E1F30E943503F9CF1F920F920FB6FE
:100AC0000F9211242F933F934F935F936F937F93D4
:100AD0008F939F93AF93BF93EF93FF931A9B1BC08A
:100AE00080912701811117C082E08093270184E65D
:100AF00090E09093B0028093AF020E94BA0C909362
:100B000025018093240180911C01813081F4109291
:100B10001C012B9A0CC01A990AC0809127018823C6
:100B200031F0109227010E94570C10922601FF917C
:100B3000EF91BF91AF919F918F917F916F915F9155
:100B40004F913F912F910F900FBE0F901F901895CE
:100B50001F920F920FB60F9211242F933F934F9332
:100B60005F936F937F938F939F93AF93BF93EF9315
:100B7000FF93349B1BC080912701811117C081E036
:100B80008093270184E690E09093B0028093AF02B7
:100B90000E94BA0C909325018093240180911C013E
:100BA000813081F410921C012B9A0CC034990AC038
:100BB00080912701882331F0109227010E94570C61
:100BC00010922601FF91EF91BF91AF919F918F916C
:100BD0007F916F915F914F913F912F910F900FBE39
:100BE0000F901F9018952F923F924F925F926F92A5
:100BF0007F928F929F92AF92BF92CF92DF92EF92AD
:100C0000FF920F931F93CF93DF9300D000D0CDB707
:100C1000DEB790E06C0120EFC21A2DEFD20A2C0152
:100C200030E7431A3EEF530ADC01A057BD4FBA83A9
:100C3000A983FC01E057FA4FFC83EB831C01F0EF22
:100C40002F1AF9EF3F0A81E08093D8001092E50057
:100C5000E2EEF0E080818E608083E3EEF0E0808160
:100C60008C608083E4EEF0E080818763808380E0A5
:100C70002DEE30E0AFEEB0E04EEE50E0982F9295C2
:100C8000907FF90190831C92FA0110828F5F863069
:100C9000A9F70F2EFDEEEF2EF12CF02DD7011C92AF
:100CA00004EF10E0F801108265EF70E0DB011C92A8
:100CB00046EF50E099249A94FA01908227EF30E0B1
:100CC000D9019C92EFEEF0E01082808180688083F1
:100CD00080EF90E0DC011C92E1EFF0E010820F2E3B
:100CE000F2EFAF2EB12CF02DD5011C920F2EF3EFA9
:100CF0006F2E712CF02D6894882484F8F301808283
:100D0000EEEDF0E08080A82DA160A0836894882497
:100D100084F8D7018C92D8011C92DB011C92DA0175
:100D20009C92D9019C92AFEEB0E01C928C90B82DB1
:100D3000B8688B2EAFEEB0E08C92DC011C92A1EF74
:100D4000B0E01C928C2C880C880C880C880C880CC9
:100D5000D5018C92D694C794D694C794D694C79450
:100D6000D301CC92D080BD2DB260B0836894DD24D5
:100D7000D5F8D701DC92D8011C92DB011C920F2E12
:100D8000F0EE8F2EF02DDA018C92D9019C92AFEE0D
:100D9000B0E01C92DC011C92A1EFB0E01C92D42CBC
:100DA000DD0CDD0CDD0CDD0CDD0CD501DC9262010F
:100DB000D694C794D694C794D694C794D301CC92B2
:100DC000D080BD2DB460B0830F2EF0E3DF2EF02D68
:100DD000D701DC92D8011C92DB011C92DA018C92C3
:100DE000D9019C92AFEEB0E01C92DC011C92A1EF05
:100DF000B0E01C92D980DD0CDD0CDD0CDD0CDD0CCF
:100E0000D501DC92C980DA80D694C794D694C79471
:100E1000D694C794D301CC92D080BD2DB860B08356
:100E20006894DD24D6F8D701DC92D8011C92DB014E
:100E30001C92DA018C92D9019C92AFEEB0E01C9228
:100E4000DC011C92A1EFB0E01C92DB80DD0CDD0C1C
:100E5000DD0CDD0CDD0CD501DC92CB80DC80D69482
:100E6000C794D694C794D694C794D301CC92D0801B
:100E7000BD2DB061B0830F2EF0E5DF2EF02DD70130
:100E8000DC92D8011C92DB011C92DA019C92D90100
:100E90009C92AFEEB0E01C922C9128682C93DC0160
:100EA0001C92A1EFB0E01C92822D8295880F807E6B
:100EB000D5018C93C10196958795969587959695C2
:100EC0008795D3018C9380818062808380917202A8
:100ED0008E7F80937202E8EDF0E0808182608083F3
:100EE000EBEDF0E08081806A80830F900F900F908F
:100EF0000F90DF91CF911F910F91FF90EF90DF90B6
:100F0000CF90BF90AF909F908F907F906F905F90A9
:100F10004F903F902F9008951F920F920FB60F920F
:100F200011242F938F939F93AF93BF93EF93FF93CE
:100F30008091290190912A01019690932A01809332
:100F400029018091EC00807FEDEEF0E080838081CC
:100F500082958F7091F48091EE0085FF05C080919D
:100F600072028260809372021092EE00EFEEF0E067
:100F700010828081806880835FC08091ED008295BF
:100F80008F708130D1F48091EE0085FF0DC080E03C
:100F900090E0AAEFB0E02C91FC01E158FD4F2087D2
:100FA000019688309105B9F71092EE00EFEEF0E06F
:100FB00010828081806880833FC08091ED0082959F
:100FC0008F70823019F41092EE0036C08091ED00DF
:100FD00082958F70833019F41092EE002DC08091AD
:100FE000ED0082958F70843019F41092EE0024C0C9
:100FF0008091ED0082958F708530F1F48091EE0044
:1010000085FF0DC080E090E0AAEFB0E02C91FC01DC
:10101000E158FD4F20A7019688309105B9F78091DE
:1010200072028860809372021092EE00EFEEF0E0A0
:101030001082808180688083FF91EF91BF91AF9192
:101040009F918F912F910F900FBE0F901F90189529
:1010500080E48093ED008091DC0084FD0DC080E091
:1010600090E0AAEFB0E0FC01E158FD4F20A12C93E5
:10107000019688309105B9F71092EE0088E48093CC
:10108000EF0008958091720283FF3DC38091A70213
:10109000803409F0B2C1AFE7B2E09996EC9199972C
:1010A0009A968C91F0E0F82BF052E830F10508F0B8
:1010B00069C1E25CFF4F0C94810E809172028062E4
:1010C000809372028091AA02813069F018F0823018
:1010D00099F01BC0EBEDF1E094818581EFE7F2E040
:1010E00094A385A354C1EBEDF1E090818181EFE7FA
:1010F000F2E094A385A34BC1EBEDF1E092818381F3
:10110000EFE7F2E094A385A342C18091720280616F
:10111000809372023CC1809172028062809372025D
:101120008091AA02813079F028F08230A9F08330D2
:10113000E1F024C0EAE4F2E090818181EFE7F2E09F
:1011400094A385A324C1EAE4F2E092818381EFE7CE
:10115000F2E094A385A31BC1EAE4F2E094818581C7
:10116000EFE7F2E094A385A312C1EAE4F2E09681EE
:101170008781EFE7F2E094A385A309C18091720211
:1011800080618093720203C18091720280628093B9
:1011900072028091AA02882319F0813051F012C0A6
:1011A000EAE4F2E090858185EFE7F2E094A385A37D
:1011B000EEC0EAE4F2E092858385EFE7F2E094A3E3
:1011C00085A3E5C080917202806180937202DFC0C6
:1011D000809172028062809372028091AA028823B9
:1011E00019F0813051F012C0EAE4F2E0948585856F
:1011F000EFE7F2E094A385A3CAC0EAE4F2E09685A3
:101200008785EFE7F2E094A385A3C1C080917202C5
:10121000806180937202BBC0809172028061809372
:1012200072028091AA02882319F0813031F00AC03D
:1012300080915A028093A302AAC080915B0280939E
:10124000A302A5C0809172028061809372029FC048
:10125000809172028062809372028091AA02813032
:1012600079F028F08230A9F08330E1F024C0EAE47C
:10127000F2E092898389EFE7F2E094A385A387C027
:10128000EAE4F2E094898589EFE7F2E094A385A38C
:101290007EC0EAE4F2E096898789EFE7F2E094A362
:1012A00085A375C0EAE4F2E0908D818DEFE7F2E06E
:1012B00094A385A36CC080917202806180937202B6
:1012C00066C0809172028061809372028091AA024E
:1012D000813059F028F0823069F0833081F014C0F9
:1012E000809164028093A30252C080916502809332
:1012F000A3024DC0809166028093A30248C08091F2
:1013000067028093A30243C0809172028061809340
:1013100072023DC08091720280628093720280915D
:10132000AA02813079F028F08230A9F08330E1F010
:1013300024C0EAE4F2E0968D878DEFE7F2E094A313
:1013400085A320C0EAE4F2E090A181A1EFE7F2E0FA
:1013500094A385A317C0EAE4F2E092A183A1EFE78A
:10136000F2E094A385A30EC0EAE4F2E094A185A183
:10137000EFE7F2E094A385A305C08091720280613B
:1013800080937202809172028061809372028091D8
:10139000720284FD23C08091720285FF0DC0EFE7C9
:1013A000F2E08BE480A381A581A382A582A383A51B
:1013B00083A316A217A29FC18091720284FF9BC1D2
:1013C000EFE7F2E08FE480A381A581A382A582A349
:1013D00083A583A315A216A217A28DC1EFE7F2E0A1
:1013E00080E880A381A581A382A582A383A583A38E
:1013F00014A215A216A217A27EC18091A702837221
:1014000009F46BC1AFE7B2E09996EC9199979A967F
:101410008C91F0E0F82BE150F042E730F10508F054
:1014200033C1EA5BFF4F0C94810E8091AA0288239E
:1014300019F0813061F016C0EFE7F2E084A525A530
:1014400090E0922B90934F0280934E0222C1EFE7DF
:10145000F2E084A525A590E0922B90935102809311
:10146000500217C18091720280618093720211C193
:101470008091AA02882319F0813061F016C0EFE74D
:10148000F2E084A525A590E0922B909353028093DF
:101490005202FFC0EFE7F2E084A525A590E0922B71
:1014A0009093550280935402F4C08091720280613F
:1014B00080937202EEC08091AA02882319F08130D5
:1014C00061F016C0EFE7F2E084A525A590E0922B2D
:1014D0009093570280935602DCC0EFE7F2E084A5B8
:1014E00025A590E0922B9093590280935802D1C089
:1014F00080917202806180937202CBC080917202EF
:101500008061809372028091AA02882319F0813051
:1015100031F00AC08091AB0280935A02BAC0809128
:10152000AB0280935B02B5C08091720280618093B0
:101530007202AFC0809172028062809372028091C9
:10154000AA02813089F028F08230C9F0833011F18D
:101550002CC0EFE7F2E084A525A590E0922B9093B4
:101560005D0280935C0295C0EFE7F2E084A525A5BB
:1015700090E0922B90935F0280935E028AC0EFE727
:10158000F2E084A525A590E0922B909361028093D0
:1015900060027FC0EFE7F2E084A525A590E0922BE2
:1015A000909363028093620274C0809172028061A2
:1015B000809372026EC08091720280618093720289
:1015C0008091AA02813059F028F0823069F083308E
:1015D00081F014C08091AB02809364025AC0809164
:1015E000AB028093650255C08091AB028093660286
:1015F00050C08091AB02809367024BC08091720211
:1016000080618093720245C08091720280628093F3
:1016100072028091AA02813089F028F08230C9F0EC
:10162000833011F12CC0EFE7F2E084A525A590E00E
:10163000922B909369028093680226C0EFE7F2E054
:1016400084A525A590E0922B90936B0280936A026B
:101650001BC0EFE7F2E084A525A590E0922B9093C4
:101660006D0280936C0210C0EFE7F2E084A525A51F
:1016700090E0922B90936F0280936E0205C0809150
:101680007202806180937202809172028061809305
:1016900072028091720284FD11C0EFE7F2E080E6F1
:1016A00080A381A581A382A582A383A583A314A27D
:1016B00015A216A217A20E94A9021DC0EFE7F2E030
:1016C00080E880A381A581A382A582A383A583A3AB
:1016D00014A215A216A217A20EC0EFE7F2E080E84E
:1016E00080A381A581A382A582A383A583A314A23D
:1016F00015A216A217A20E94280880917202877F65
:101700008093720208958091720282FF52C080918C
:101710001E01813021F482E080931E010895823001
:10172000E1F4A4E7B2E013968C911397EFE7F2E0AF
:10173000808B11968C911197818B12968C911297B8
:10174000828B8C91838B14968C91848B158A168A4C
:10175000178A83E080931E010895833009F06DC0DD
:10176000A4E7B2E013968C911397EFE7F2E0808F35
:1017700017969C91179718968C911897918F828F36
:1017800019969C9119971A968C911A97938F848F1A
:1017900015968C911597858F16968C91868F178E3E
:1017A000809172028B7F8093720281E080931E0190
:1017B00008958091720281FF40C080911D01829541
:1017C000807F8093ED008091DC0090E000901D010F
:1017D00002C0959587950A94E2F780FD19C080E0D4
:1017E00090E0AAEFB0E020911D01FC0138E0239FBA
:1017F000E00DF11D1124E158FD4F20812C9301963D
:101800008830910581F71092EE0088E48093EF0014
:1018100080911D01833070F082E080931D018091E2
:1018200072028D7F80937202809172028460809335
:10183000720208958F5F80931D010895509A589801
:10184000589AE5EBF0E080818C608083E7EBF0E074
:1018500080E88083A8EBB0E08C9180688C938FEF58
:1018600097E09093B3008093B20081E08093B6003C
:1018700084E690E09093B0028093AF0280818E7FE7
:10188000808308959C01AFEFB7E00E948F0E28EE91
:1018900033E040E050E00E94400E3093A3002093DC
:1018A000A200E7EBF0E08081816080830895E7EBA0
:1018B000F0E080818E7F808308958091AF029091C7
:1018C000B00220912D0130912E018217930749F12A
:1018D000893E23E0920728F490932C0180932B01FA
:1018E00006C088EE93E090932C0180932B01209109
:1018F0002B0130912C01AFEFB7E00E948F0E28EE44
:1019000033E040E050E00E94400E3093A30020936B
:10191000A2008091AF029091B00290932E0180932B
:101920002D0108951F920F920FB60F9211248F93DD
:10193000EF93FF93ECEBF0E0808182608083FF9176
:10194000EF918F910F900FBE0F901F90189584B557
:10195000826084BD89EF87BDEEE6F0E08081826021
:10196000808385B5836085BDE1E8F0E08081836098
:1019700080830895809131019091320108952091E2
:101980003101309132012817390728F0A901481B8D
:10199000590BCA010895281B390BC90101970895F5
:1019A00020918400309185002817390728F0A9017B
:1019B000481B590BCA010895281B390BC90101970F
:1019C000089580912F01909130010E94D00C499789
:1019D00050F0809184009091850090933001809325
:1019E0002F0181E0089580E008951F920F920FB6B5
:1019F0000F9211248F939F93809131019091320126
:101A0000019690933201809331019F918F910F90B5
:101A10000FBE0F901F9018951F920F920FB60F9246
:101A200011240F900FBE0F901F9018951F920F92C8
:101A30000FB60F9211240F900FBE0F901F901895A4
:101A40001F920F920FB60F9211240F900FBE0F909E
:101A50001F9018951F920F920FB60F9211248F931B
:101A60009F93EF93FF938091C90080FF1AC0E9EC28
:101A7000F0E08081816080839091D200E091350117
:101A8000EF5FEF7180913401E81731F0E093350199
:101A9000F0E0E85CFE4F9083809133018260809398
:101AA00033018091C90081FF1DC0E9ECF0E0808125
:101AB000826080839091370180913601981769F098
:101AC000E0913601EF5FEF77E0933601F0E0E85AFE
:101AD000FE4F80818093D20005C0EAECF0E0808167
:101AE0008D7F8083FF91EF919F918F910F900FBE1B
:101AF0000F901F901895CF93DF931092370110929B
:101B000036011092350110923401C8ECD0E020E883
:101B100028839C0140E050E060E472E48FE090E0B4
:101B20000E94620EDA01C9010197A109B109892F4A
:101B30009A2FAB2FBB27A7FDBA958093CE002150DB
:101B40002093CD0080E98093CC00EAECF0E0808126
:101B50008160808388818F608883DF91CF91089531
:101B600090913501809134019817A9F0909134013A
:101B70009F5F9F71E92FF0E0E85CFE4F208180912C
:101B80003301909334011092330190E0982F88270D
:101B9000820F911D089580E091E0089590913501A4
:101BA00090913401209137012F5F2F77909136016A
:101BB0002917E1F3422F50E0FA01E85AFE4F8083E3
:101BC000209337018091C90084FD0DC0EAECF0E05C
:101BD00080818260808320933601FA01E85AFE4FAB
:101BE00080818093D20008959091350190913401C5
:101BF000209137012F5F2F77909136012917E1F35C
:101C0000422F50E0FA01E85AFE4F808320933701BB
:101C10008091C90084FD0DC0EAECF0E08081826013
:101C2000808320933601FA01E85AFE4F8081809329
:101C3000D2000895CF93DF93EC012196FC018491AB
:101C4000882339F00E94CE0DFE01849121968111E6
:101C5000F9CFDF91CF91089597FB072E16F40094EA
:101C600007D077FD09D00E94A50E07FC05D03EF4F1
:101C7000909581959F4F0895709561957F4F089538
:101C8000A1E21A2EAA1BBB1BFD010DC0AA1FBB1F80
:101C9000EE1FFF1FA217B307E407F50720F0A21BF2
:101CA000B30BE40BF50B661F771F881F991F1A945F
:101CB00069F760957095809590959B01AC01BD0189
:101CC000CF010895052E97FB1EF400940E94790E13
:101CD00057FD07D00E94400E07FC03D04EF40C9431
:101CE000790E50954095309521953F4F4F4F5F4F5E
:101CF000089590958095709561957F4F8F4F9F4F78
:101D00000895EE0FFF1F0590F491E02D09940E94B5
:101D10008F0E332312F48A1B9B0B0C94A00EA29FF0
:101D2000B001B39FC001A39F700D811D1124911DAF
:101D3000B29F700D811D1124911D08950E948F0E78
:101D4000B7FF0895821B930B0895AA1BBB1B51E19B
:101D500007C0AA1FBB1FA617B70710F0A61BB70B1B
:101D6000881F991F5A95A9F780959095BC01CD01C0
:101D70000895DC01CB01FC01F999FECF06C0F2BD4C
:101D8000E1BDF89A319600B40D9241505040B8F739
:101D90000895DC01CB0103C02D910E94D40E415067
:101DA0005040D0F70895262FF999FECF1FBA92BD63
:101DB00081BD20BD0FB6F894FA9AF99A0FBE01962C
:061DC0000895F894FFCF26
:101DC60000000001000000000000B00D000000004F
:101DD600000200000000F40D0000000001020100F6
:00000001FF
