:100000000C94BC000C94D9000C94D9000C94D90029
:100010000C94D9000C94A10C0C94D9000C94D90028
:100020000C94D9000C94D9000C94D9000C94D900EC
:100030000C94250D0C942F0D0C941B0D0C94040D99
:100040000C94D9000C94D9000C94B7070C94D900E7
:100050000C94390D0C94D9000C9488050C94D3059C
:100060000C94D9000C94D9000C94D9000C94020281
:100070000C94D9000C94D9000C94D9008508B308CD
:10008000D708FB081F093B0974099D09250A480A7E
:100090006B0A8E0AAA0AEB0A140B454550524F4DC3
:1000A000207772697465206661696C65640A004531
:1000B0004550524F4D20777269746520435243205A
:1000C0006D6973736D61746368202D20726574723D
:1000D000696E670A00454550524F4D20777269742A
:1000E00065206F6B0A00454550524F4D2072656187
:1000F00064206661696C65640A00454550524F4D45
:10010000207265616420435243206D6973736D6191
:10011000746368202D2072657472696E670A0045E9
:100120004550524F4D2072656164206F6B0A004C40
:100130006F6164696E672064656661756C742076B2
:10014000616C756573000A004665622031392032A2
:100150003031370057696E636820436F6E74726F79
:100160006C6C65720A436F6D70696C6174696F6E57
:10017000206461746520000011241FBECFEFD8E019
:10018000DEBFCDBF11E0A0E0B1E0ECEDFDE102C0CB
:1001900005900D92A032B107D9F722E0A0E2B1E0BC
:1001A00001C01D92A23BB207E1F70E9422050C9408
:1001B000EC0E0C940000ECE7F0E090818F70907FE3
:1001C000892B80830895EBE7F0E08081806A80834B
:1001D000EAE7F0E080818F688083ECE7F0E08081DF
:1001E00080648083E7EEF1E011821282A8EDB1E035
:1001F00084E012968C93129789E011968C93119754
:100200008AE08C93109245021092440210924702A9
:10021000109246021092490210924802E181F0E0E9
:10022000E852FE4F80810E94DB0010922801089561
:10023000EAE7F0E08081806480830895EF92FF9286
:100240000F931F93CF93DF938091E70180FFD3C07B
:100250008091440290914502CFE0D0E0BE010E941F
:100260003B0EFB010F2EFBEDEF2EF1E0FF2EF02DEC
:10027000D7016D937C938091460290914702BE0115
:100280000E943B0E9B01D70113967C936E931297AD
:100290008091480290914902BE010E943B0E8B0161
:1002A000EB01D70115967C936E93149780915202BF
:1002B00090915302A901480F591F415051094F3FD6
:1002C000534020F5A901330F660B770B092E000C64
:1002D000AA0BBB0B9A01AB01280F391F4A1F5B1FEA
:1002E000A0915402B09155020E94A50EDC01CB01F1
:1002F000072E7AE0B695A795979587957A95D1F7C9
:10030000702D9093E4018093E30104C01092E40106
:100310001092E30180914E0290914F029F01280FAD
:10032000391F215031092F3F334020F5AF01FF0F16
:10033000660B770B092E000CAA0BBB0B9A01AB01C5
:10034000280F391F4A1F5B1FA0915002B091510224
:100350000E94A50EDC01CB01072E7AE0B695A79589
:10036000979587957A95D1F7702D9093E2018093B8
:10037000E10104C01092E2011092E101E0914C020F
:10038000F0914D02EC17FD0728F01092E601109253
:10039000E50127C0C0914A02D0914B020C171D07FE
:1003A00038F084E690E09093E6018093E50119C06F
:1003B000C801110FAA0BBB0B9C01AD012E1B3F0BFB
:1003C00041095109A4E6B0E00E94A50ECE1BDF0B47
:1003D0009E0140E050E00E944F0E3093E6012093D2
:1003E000E501809128018F5F80932801E7EEF1E01D
:1003F00080818E7F8083DF91CF911F910F91FF903D
:10040000EF9008951F920F920FB60F9211242F9321
:100410003F934F935F936F937F938F939F93AF938C
:10042000BF93EF93FF938091E70181FF21C0A7EE77
:10043000B1E01196EC91119712968C9112979FE072
:10044000E99FF0011124E80FF11DEE0FFF1FE951A4
:10045000FE4F238134811196EC91F0E0EE0FFF1FE7
:10046000EC5BFD4F80819181821B930B9183808394
:10047000A7EEB1E01196EC91119712969C9112970C
:1004800020917800309179008FE08E9FF001112447
:10049000E90FF11DEE0FFF1FE951FE4F3483238357
:1004A0001196EC91119712969C9112978E9FF001E4
:1004B0001124E90FF11DEE0FFF1FE951FE4F83815B
:1004C00094811196EC911197F0E0EE0FFF1FEC5B19
:1004D000FD4F20813181820F931F9183808311967C
:1004E0008C9111978F5F11968C9311978330A1F4A3
:1004F000FD01118282818F5F82838F3021F412820D
:100500008081826080838091E70181FF05C0E7EEF2
:10051000F1E0808181608083E091E801F0E0E852C1
:10052000FE4F80810E94DB000E941801FF91EF9135
:10053000BF91AF919F918F917F916F915F914F91FB
:100540003F912F910F900FBE0F901F9018950F9312
:100550001F93CF93DF93CFB7F89444E250E060E06D
:1005600070E08AE492E00E94C40ECFBF0AE412E079
:10057000CFEFDFEF2BC08191C8278C2F82958C277E
:10058000082E869586958025082E8695802587706D
:100590000C2ECD2F869507948795D02DC8270694CD
:1005A0008795D025C827E217F30729F7209731F45C
:1005B0008FE191E00E94290E80E012C08AEF90E066
:1005C0000E94290E82E0063B180729F0F8010C5D15
:1005D0001F4F9801D0CF86EE90E00E94290E81E057
:1005E000DF91CF911F910F910895CF93DF93EAE4AC
:1005F000F2E04CE652E02FEF3FEF81912827822F67
:1006000082958227082E869586958025082E8695C8
:1006100080258770022E232F869507948795302D8D
:1006200028270694879530252827E417F50729F70A
:1006300030936D0220936C02C2E0DFB7F89444E27D
:1006400050E060E070E08AE492E00E94D40EDFBFE8
:100650000E94A702D82F811105C085ED90E00E946D
:10066000290E0BC08FEA90E00E94290EC15029F795
:100670008AE990E00E94290ED1E08D2FDF91CF9181
:100680000895EAE4F2E085ED92E09183808387E0CB
:1006900090E09383828381E09EEF9583848380E260
:1006A00093E09783868387E890E0918780878AEA42
:1006B00090E09387828788E6848782E3858788E550
:1006C00092E09787868788EC90E0918B808B82EC14
:1006D00091E0938B828B958B848B89E1868B878BC2
:1006E000808F818F89E190E0938F828F958F848FA7
:1006F000978F868F91A380A308950E941E010E9468
:100700006C0C80912601E0E7F2E0838383B1807274
:100710008483ABEDB1E016968C91169780831A9680
:100720008C911A97818318968C91189782831496CE
:100730008D919C911597978386838D919C9191873C
:1007400080870E946D0880912701823021F080917E
:100750002701813031F41D9902C02C9A09C02C98D0
:1007600007C080912701833011F42C9A01C02C9886
:1007700080912701833009F425C1809127018823C6
:1007800009F420C180912701823029F0809127014E
:10079000813009F017C11D9B04C080915602882347
:1007A00031F01D9912C08091570281110EC08091C5
:1007B0002401909125010E94CE0C8B34910528F0E4
:1007C00083E0809327010E94660C0E94C90C9093DD
:1007D00023018093220180912601811110C00E9483
:1007E000C90C90932101809320010E94C90C909321
:1007F00025018093240181E0809326010895809152
:100800002601813009F055C080912001909121018D
:100810000E94CE0C0F9708F4D5C08091270182303A
:1008200061F41D9B05C0809158029091590210C03F
:1008300080915C0290915D020BC01D9B05C0809170
:100840005A0290915B0204C080915E0290915F0217
:100850009093AB028093AA0282E0809326010E94CB
:10086000C90C90932101809320010E94C90C9093A0
:1008700025018093240180912701823061F41D9B22
:1008800005C0809158029091590210C080915C027D
:1008900090915D020BC01D9B05C080915A02909102
:1008A0005B0204C080915E0290915F020E94510C35
:1008B000089580912601823009F082C08091200144
:1008C000909121010E94CE0C20912701223041F409
:1008D0001D9B03C0209160020AC02091620207C0E4
:1008E0001D9B03C02091610202C02091630230E091
:1008F0008217930708F466C00E94C90C90932101E7
:10090000809320018091AA029091AB02209127014F
:100910002230A1F41D9B09C04091640250916502F0
:1009200028EE33E0241B350B1CC040916802509127
:10093000690228EE33E0241B350B13C01D9B09C050
:10094000409166025091670228EE33E0241B350B7C
:1009500008C040916A0250916B0228EE33E0241BDC
:10096000350B2817390710F120912701223061F447
:100970001D9B05C0209164023091650210C020913A
:100980006802309169020BC01D9B05C02091660270
:100990003091670204C020916A0230916B02820F8D
:1009A000931F9093AB028093AA02089588EE93E080
:1009B0009093AB028093AA0283E08093260108956E
:1009C00080912601089589B5836089BD529A249A41
:1009D0005A9A2C9A239A5798569855982198209865
:1009E0003998519838985F9A5E9A5D9A299A289A10
:1009F000419A599A409A22983C9825983F9AE8E65D
:100A0000F0E0808183608083EAE6F0E080818460AA
:100A10008083EBE6F0E0808180618083089589B176
:100A2000881F8827881F4E9982604D998460199984
:100A30008860189980613199806249998064309901
:100A4000806808950E94E3040E94B60C0E94E300AF
:100A50000E942D0C80E091EE0E948A0D0E940F05ED
:100A600087700E941E06ECEAF2E08EE091E093832C
:100A7000828380E091E091838083789484E591E0A3
:100A80000E94290E88E491E00E94290E86E491E0FC
:100A90000E94290E0E94A702813031F40E94410376
:100AA0008FE291E00E94290E1A9B06C0349B04C07D
:100AB00081E080931C0115C01A9B07C02B9A1092ED
:100AC0001C0182E0809327010CC0349B07C02B9A45
:100AD00010921C0181E08093270103C081E0809384
:100AE0001C015A9A2C980E9418010E94C90C9093DC
:100AF0002101809320010E94C90C909323018093CF
:100B000022010E94F00C8823E1F30E947D03F9CFBB
:100B10001F920F920FB60F9211242F933F934F9372
:100B20005F936F937F938F939F93AF93BF93EF9355
:100B3000FF931A9B1BC080912701811117C082E08F
:100B40008093270184E690E09093AB028093AA0201
:100B50000E94C90C909325018093240180911C016F
:100B6000813081F410921C012B9A0CC01A990AC092
:100B700080912701882331F0109227010E94660C92
:100B800010922601FF91EF91BF91AF919F918F91AC
:100B90007F916F915F914F913F912F910F900FBE79
:100BA0000F901F9018951F920F920FB60F9211245D
:100BB0002F933F934F935F936F937F938F939F9365
:100BC000AF93BF93EF93FF93349B1BC0809127019A
:100BD000811117C081E08093270184E690E0909313
:100BE000AB028093AA020E94C90C909325018093C6
:100BF000240180911C01813081F410921C012B9AF8
:100C00000CC034990AC080912701882331F01092DA
:100C100027010E94660C10922601FF91EF91BF916F
:100C2000AF919F918F917F916F915F914F913F9184
:100C30002F910F900FBE0F901F9018952F923F92FB
:100C40004F925F926F927F928F929F92AF92BF92DC
:100C5000CF92DF92EF92FF920F931F93CF93DF9388
:100C600000D000D0CDB7DEB790E06C0120EFC21A03
:100C70002DEFD20A2C0130E7431A3EEF530ADC0174
:100C8000A057BD4FBA83A983FC01E057FA4FFC83FC
:100C9000EB831C01F0EF2F1AF9EF3F0A81E08093FC
:100CA000D8001092E500E2EEF0E080818E60808353
:100CB000E3EEF0E080818C608083E4EEF0E0808100
:100CC0008763808380E02DEE30E0AFEEB0E04EEE43
:100CD00050E0982F9295907FF90190831C92FA0131
:100CE00010828F5F8630A9F70F2EFDEEEF2EF12CCC
:100CF000F02DD7011C9204EF10E0F801108265EF8F
:100D000070E0DB011C9246EF50E099249A94FA01BE
:100D1000908227EF30E0D9019C92EFEEF0E0108254
:100D200080818068808380EF90E0DC011C92E1EF9D
:100D3000F0E010820F2EF2EFAF2EB12CF02DD50186
:100D40001C920F2EF3EF6F2E712CF02D68948824D7
:100D500084F8F3018082EEEDF0E08080A82DA160A0
:100D6000A0836894882484F8D7018C92D8011C92BF
:100D7000DB011C92DA019C92D9019C92AFEEB0E0AB
:100D80001C928C90B82DB8688B2EAFEEB0E08C9290
:100D9000DC011C92A1EFB0E01C928C2C880C880C1A
:100DA000880C880C880CD5018C92D694C794D69464
:100DB000C794D694C794D301CC92D080BD2DB26095
:100DC000B0836894DD24D5F8D701DC92D8011C9259
:100DD000DB011C920F2EF0EE8F2EF02DDA018C929B
:100DE000D9019C92AFEEB0E01C92DC011C92A1EF05
:100DF000B0E01C92D42CDD0CDD0CDD0CDD0CDD0C28
:100E0000D501DC926201D694C794D694C794D69447
:100E1000C794D301CC92D080BD2DB460B0830F2E87
:100E2000F0E3DF2EF02DD701DC92D8011C92DB011C
:100E30001C92DA018C92D9019C92AFEEB0E01C9228
:100E4000DC011C92A1EFB0E01C92D980DD0CDD0C1E
:100E5000DD0CDD0CDD0CD501DC92C980DA80D69486
:100E6000C794D694C794D694C794D301CC92D0801B
:100E7000BD2DB860B0836894DD24D6F8D701DC922C
:100E8000D8011C92DB011C92DA018C92D9019C9250
:100E9000AFEEB0E01C92DC011C92A1EFB0E01C921E
:100EA000DB80DD0CDD0CDD0CDD0CDD0CD501DC9216
:100EB000CB80DC80D694C794D694C794D694C7943C
:100EC000D301CC92D080BD2DB061B0830F2EF0E560
:100ED000DF2EF02DD701DC92D8011C92DB011C9291
:100EE000DA019C92D9019C92AFEEB0E01C922C9159
:100EF00028682C93DC011C92A1EFB0E01C92822D9B
:100F00008295880F807ED5018C93C1019695879537
:100F10009695879596958795D3018C93808180626D
:100F2000808380916E028E7F80936E02E8EDF0E008
:100F3000808182608083EBEDF0E08081806A808335
:100F40000F900F900F900F90DF91CF911F910F9105
:100F5000FF90EF90DF90CF90BF90AF909F908F90D9
:100F60007F906F905F904F903F902F9008951F92C9
:100F70000F920FB60F9211242F938F939F93AF93DD
:100F8000BF93EF93FF938091290190912A010196DD
:100F900090932A01809329018091EC00807FEDEEEF
:100FA000F0E08083808182958F7091F48091EE00D3
:100FB00085FF05C080916E02826080936E02109260
:100FC000EE00EFEEF0E010828081806880835FC0E9
:100FD0008091ED0082958F708130D1F48091EE0088
:100FE00085FF0DC080E090E0AAEFB0E02C91FC01FD
:100FF000E658FD4F2087019688309105B9F7109289
:10100000EE00EFEEF0E010828081806880833FC0C8
:101010008091ED0082958F70823019F41092EE006D
:1010200036C08091ED0082958F70833019F4109254
:10103000EE002DC08091ED0082958F70843019F400
:101040001092EE0024C08091ED0082958F70853063
:10105000F1F48091EE0085FF0DC080E090E0AAEFF2
:10106000B0E02C91FC01E658FD4F20A70196883096
:101070009105B9F780916E02886080936E0210929C
:10108000EE00EFEEF0E01082808180688083FF91B7
:10109000EF91BF91AF919F918F912F910F900FBEC4
:1010A0000F901F90189580E48093ED008091DC00F4
:1010B00084FD0DC080E090E0AAEFB0E0FC01E658AE
:1010C000FD4F20A12C93019688309105B9F710921D
:1010D000EE0088E48093EF00089580916E0283FF14
:1010E00022C38091A202803409F09AC1EAE7F2E0BB
:1010F00081A5E2A5F0E0F82BF052E830F10508F008
:1011000054C1E25CFF4F0C94900E80916E0280629D
:1011100080936E028091A502813069F018F08230D0
:1011200099F01BC0EBEDF1E094818581EAE7F2E0F4
:1011300094A385A33FC1EBEDF1E090818181EAE7C3
:10114000F2E094A385A336C1EBEDF1E092818381B7
:10115000EAE7F2E094A385A32DC180916E0280613D
:1011600080936E0227C180916E02806280936E022E
:101170008091A502882319F0813051F012C0EAE471
:10118000F2E090818181EAE7F2E094A385A312C1A5
:10119000EAE4F2E092818381EAE7F2E094A385A396
:1011A00009C180916E02806180936E0203C18091BB
:1011B0006E02806280936E028091A502882319F0EE
:1011C000813051F012C0EAE4F2E094818581EAE7CF
:1011D000F2E094A385A3EEC0EAE4F2E09681878171
:1011E000EAE7F2E094A385A3E5C080916E028061F6
:1011F00080936E02DFC080916E02806280936E02E7
:101200008091A502882319F0813051F012C0EAE4E0
:10121000F2E090858185EAE7F2E094A385A3CAC055
:10122000EAE4F2E092858385EAE7F2E094A385A3FD
:10123000C1C080916E02806180936E02BBC08091BC
:101240006E02806180936E028091A502882319F05E
:10125000813031F00AC08091560280939E02AAC06C
:101260008091570280939E02A5C080916E0280619A
:1012700080936E029FC080916E02806280936E02A6
:101280008091A502813079F028F08230A9F0833076
:10129000E1F024C0EAE4F2E096858785EAE7F2E02F
:1012A00094A384A387C0EAE4F2E090898189EAE705
:1012B000F2E094A384A37EC0EAE4F2E092898389F9
:1012C000EAE7F2E094A384A375C0EAE4F2E094892B
:1012D0008589EAE7F2E094A384A36CC080916E0252
:1012E000806180936E0266C080916E0280618093FF
:1012F0006E028091A502813059F028F0823069F0A9
:10130000833081F014C08091600280939E0252C0AD
:101310008091610280939E024DC080916202809311
:101320009E0248C08091630280939E0243C08091D8
:101330006E02806180936E023DC080916E02806279
:1013400080936E028091A502813079F028F082307E
:10135000A9F08330E1F024C0EAE4F2E0928D838DBD
:10136000EAE7F2E094A384A320C0EAE4F2E0948DDB
:10137000858DEAE7F2E094A384A317C0EAE4F2E0E3
:10138000968D878DEAE7F2E094A384A30EC0EAE489
:10139000F2E090A181A1EAE7F2E094A384A305C062
:1013A00080916E02806180936E0280916E028061F6
:1013B00080936E0280916E0284FD23C080916E0244
:1013C00085FF0DC0EAE7F2E08BE480A381A581A34D
:1013D00082A582A383A583A316A217A29CC1809194
:1013E0006E0284FF98C1EAE7F2E08FE480A381A552
:1013F00081A382A582A383A583A315A216A217A207
:101400008AC1EAE7F2E080E880A381A581A382A5F2
:1014100082A383A583A314A215A216A217A27BC13F
:101420008091A202837209F468C1EAE7F2E081A523
:10143000E2A5F0E0F82BE150F042E730F10508F0CA
:1014400033C1EA5BFF4F0C94900E8091A502882374
:1014500019F0813061F016C0EAE7F2E084A525A515
:1014600090E0922B90934B0280934A0222C1EAE7CC
:10147000F2E084A525A590E0922B90934D028093F5
:101480004C0217C180916E02806180936E0211C17F
:101490008091A502882319F0813061F016C0EAE737
:1014A000F2E084A525A590E0922B90934F028093C3
:1014B0004E02FFC0EAE7F2E084A525A590E0922B5A
:1014C0009093510280935002F4C080916E0280612B
:1014D00080936E02EEC08091A502882319F08130BE
:1014E00061F016C0EAE7F2E084A525A590E0922B12
:1014F0009093530280935202DCC0EAE7F2E084A5A5
:1015000025A590E0922B9093550280935402D1C070
:1015100080916E02806180936E02CBC080916E02DA
:10152000806180936E028091A502882319F081303A
:1015300031F00AC08091A60280935602BAC0809111
:10154000A60280935702B5C080916E02806180939D
:101550006E02AFC080916E02806280936E028091B5
:10156000A502813089F028F08230C9F0833011F172
:101570002CC0EAE7F2E084A525A590E0922B909399
:1015800059028093580295C0EAE7F2E084A525A5A8
:1015900090E0922B90935B0280935A028AC0EAE714
:1015A000F2E084A525A590E0922B90935D028093B4
:1015B0005C027FC0EAE7F2E084A525A590E0922BCB
:1015C00090935F0280935E0274C080916E0280618E
:1015D00080936E026EC080916E02806180936E0275
:1015E0008091A502813059F028F0823069F0833073
:1015F00081F014C08091A602809360025AC080914D
:10160000A6028093610255C08091A6028093620277
:1016100050C08091A602809363024BC080916E02FD
:10162000806180936E0245C080916E0280628093DB
:101630006E028091A502813089F028F08230C9F0D5
:10164000833011F12CC0EAE7F2E084A525A590E0F3
:10165000922B909365028093640226C0EAE7F2E041
:1016600084A525A590E0922B909367028093660253
:101670001BC0EAE7F2E084A525A590E0922B9093A9
:1016800069028093680210C0EAE7F2E084A525A50C
:1016900090E0922B90936B0280936A0205C0809138
:1016A0006E02806180936E0280916E0280618093F1
:1016B0006E0280916E0284FD11C0EAE7F2E080E6DE
:1016C00080A381A581A382A582A383A583A314A25D
:1016D00015A216A217A20E94F5021DC0EAE7F2E0C9
:1016E00080E880A381A581A382A582A383A583A38B
:1016F00014A215A216A217A20EC0EAE7F2E080E833
:1017000080A381A581A382A582A383A583A314A21C
:1017100015A216A217A20E94530880916E02877F1D
:1017200080936E02089580916E0282FF51C0809175
:101730001E01813021F482E080931E0108958230E1
:10174000F9F4A0E7B2E013968C911397EAE7F2E080
:10175000808B11968C911197818B12968C91129798
:10176000828B8C91838B14968C911497848B159615
:101770008C91858B168A178A83E080931E010895C9
:10178000833009F069C0A0E7B2E013968C911397FB
:10179000EAE7F2E0808F16969C91169717968C9147
:1017A0001797918F828F18969C91189719968C9104
:1017B0001997938F848F8C91858F168E178E8091B9
:1017C0006E028B7F80936E0281E080931E010895EC
:1017D00080916E0281FF40C080911D018295807FC3
:1017E0008093ED008091DC0090E000901D0102C02C
:1017F000959587950A94E2F780FD19C080E090E006
:10180000AAEFB0E020911D01FC0138E0239FE00D1C
:10181000F11D1124E658FD4F20812C93019688304C
:10182000910581F71092EE0088E48093EF0080919B
:101830001D01833070F082E080931D0180916E0263
:101840008D7F80936E0280916E02846080936E0221
:1018500008958F5F80931D010895509A5898589A63
:10186000E5EBF0E080818C608083E7EBF0E080E8DE
:101870008083A8EBB0E08C9180688C938FEF97E029
:101880009093B3008093B20081E08093B60084E629
:1018900090E09093AB028093AA0280818E7F808338
:1018A00008959C01AFEFB7E00E94960E28EE33E05A
:1018B00040E050E00E944F0E3093A3002093A2001E
:1018C000E7EBF0E08081816080830895E7EBF0E052
:1018D00080818E7F808308958091AA029091AB02CF
:1018E00020912D0130912E018217930749F1893EF5
:1018F00023E0920728F490932C0180932B0106C0DB
:1019000088EE93E090932C0180932B0120912B0182
:1019100030912C01AFEFB7E00E94960E28EE33E035
:1019200040E050E00E944F0E3093A3002093A200AD
:101930008091AA029091AB0290932E0180932D0189
:1019400008951F920F920FB60F9211248F93EF9369
:10195000FF93ECEBF0E0808182608083FF91EF9158
:101960008F910F900FBE0F901F90189584B58260D5
:1019700084BD89EF87BDEEE6F0E0808182608083E0
:1019800085B5836085BDE1E8F0E080818360808378
:101990000895809131019091320108952091310193
:1019A000309132012817390728F0A901481B590B3B
:1019B000CA010895281B390BC90101970895209188
:1019C0008400309185002817390728F0A901481BA9
:1019D000590BCA010895281B390BC90101970895B5
:1019E00080912F01909130010E94DF0C499750F0B7
:1019F00080918400909185009093300180932F0115
:101A000081E0089580E008951F920F920FB60F9223
:101A100011248F939F93809131019091320101960F
:101A200090933201809331019F918F910F900FBE5F
:101A30000F901F9018951F920F920FB60F921124BE
:101A40000F900FBE0F901F9018951F920F920FB618
:101A50000F9211240F900FBE0F901F9018951F9298
:101A60000F920FB60F9211240F900FBE0F901F9080
:101A700018951F920F920FB60F9211248F939F9378
:101A8000EF93FF938091C90080FF1AC0E9ECF0E06A
:101A90008081816080839091D200E0913501EF5F79
:101AA000EF7180913401E81731F0E0933501F0E0F7
:101AB000E85CFE4F90838091330182608093330114
:101AC0008091C90081FF1DC0E9ECF0E08081826057
:101AD00080839091370180913601981769F0E091E9
:101AE0003601EF5FEF77E0933601F0E0E85AFE4F02
:101AF00080818093D20005C0EAECF0E080818D7F88
:101B00008083FF91EF919F918F910F900FBE0F9067
:101B10001F901895CF93DF931092370110923601E2
:101B20001092350110923401C8ECD0E020E82883EF
:101B30009C0140E050E060E472E48FE090E00E949D
:101B4000710EDA01C9010197A109B109892F9A2FF4
:101B5000AB2FBB27A7FDBA958093CE0021502093D1
:101B6000CD0080E98093CC00EAECF0E080818160D8
:101B7000808388818F608883DF91CF9108959091D1
:101B80003501809134019817A9F0909134019F5F3D
:101B90009F71E92FF0E0E85CFE4F208180913301D6
:101BA000909334011092330190E0982F8827820F90
:101BB000911D089580E091E00895909135019091F4
:101BC0003401209137012F5F2F779091360129172B
:101BD000E1F3422F50E0FA01E85AFE4F8083209350
:101BE00037018091C90084FD0DC0EAECF0E08081EE
:101BF0008260808320933601FA01E85AFE4F80818B
:101C00008093D200089590913501909134012091F4
:101C100037012F5F2F77909136012917E1F3422F7B
:101C200050E0FA01E85AFE4F8083209337018091FB
:101C3000C90084FD0DC0EAECF0E080818260808301
:101C400020933601FA01E85AFE4F80818093D2003A
:101C50000895CF93DF93EC012196FC0184918823B2
:101C600039F00E94DD0DFE01849121968111F9CF9A
:101C7000DF91CF91089597FB072E16F4009407D0BB
:101C800077FD09D00E94B00E07FC05D03EF4909578
:101C900081959F4F0895709561957F4F0895A1E2BA
:101CA0001A2EAA1BBB1BFD010DC0AA1FBB1FEE1FD6
:101CB000FF1FA217B307E407F50720F0A21BB30B21
:101CC000E40BF50B661F771F881F991F1A9469F79D
:101CD00060957095809590959B01AC01BD01CF01F9
:101CE0000895052E97FB1EF400940E94880E57FD60
:101CF00007D00E944F0E07FC03D04EF40C94880EC0
:101D000050954095309521953F4F4F4F5F4F089527
:101D100090958095709561957F4F8F4F9F4F089557
:101D2000EE0FFF1F0590F491E02D0994A29FB001E2
:101D3000B39FC001A39F700D811D1124911DB29FFF
:101D4000700D811D1124911D08950E94960EA59F6E
:101D5000900DB49F900DA49F800D911D11240895A6
:101D6000AA1BBB1B51E107C0AA1FBB1FA617B707C1
:101D700010F0A61BB70B881F991F5A95A9F78095DD
:101D80009095BC01CD010895DC01CB01FC01F999CE
:101D9000FECF06C0F2BDE1BDF89A319600B40D92B7
:101DA00041505040B8F70895DC01CB0103C02D919C
:101DB0000E94DF0E41505040D0F70895262FF99928
:101DC000FECF1FBA92BD81BD20BD0FB6F894FA9A1E
:0C1DD000F99A0FBE01960895F894FFCF19
:101DDC0000000001000000000000BF0D000000002A
:101DEC00000200000000030E0000000001020100D0
:00000001FF
