:100000000C94D3010C9427020C9438020C944902EE
:100010000C945A020C94F0010C94F0010C94F00131
:100020000C94F0010C94B90E0C94F0010C946C0239
:100030000C94F0010C94F0010C94F0010C94F0017C
:100040000C94F0010C94F0010C94F0010C94F0016C
:100050000C94F0010C94F0010C94F0010C94F0015C
:100060000C94F0010C94F2010C94F0010C94F0014A
:100070000C94F0010C94F0010C94F0010C94F0013C
:100080000C94F0010C94F0010C94F0010C94F0012C
:100090000C94F0016006DF065607B707F207370831
:1000A0008008060996095A06850A410057204375BB
:1000B0007272656E743A00560031325620416B6B95
:1000C000753A004C0057617465723A006D560056DF
:1000D0006D61783A006D5600566D696E3A004100C8
:1000E00043757272656E743A005600566F6C746197
:1000F00067653A00496E76616C69640050617261AF
:100100006D657472697A6174696F6E00506F77659E
:1001100072205361766500496E76616C696420498E
:100120006E707574004C454D20416C61726D004FCE
:100130007665722054656D702E004F76657220438F
:10014000757272656E74005365636F6E64205072D1
:100150006F742E004572726F72005265616479008F
:10016000426174746572792046756C6C00426174EA
:1001700074657279204869676800436861726769CD
:100180006E67004261747465727920456D70747990
:100190000042617474657279204C6F770044697312
:1001A0006368617267696E6700496E697400202038
:1001B0002020202020202020202020200053746197
:1001C00074653A2000000000000000005F0000009D
:1001D00007000700147F147F14242A7F2A12231398
:1001E00008646236495522500005030000001C22B5
:1001F00041000041221C00082A1C2A0808083E0869
:1002000008005030000008080808080030300000DE
:1002100020100804023E5149453E00427F40004202
:10022000615149462141454B311814127F10274531
:100230004545393C4A494930017109050336494968
:100240004936064949291E00363600000056360058
:10025000000008142241141414141441221408003C
:100260000201510906324979413E7E1111117E7F0A
:10027000494949363E414141227F4141221C7F4943
:100280004949417F090901013E414151327F080836
:10029000087F00417F41002040413F017F08142238
:1002A000417F404040407F0204027F7F0408107F6E
:1002B0003E4141413E7F090909063E4151215E7F91
:1002C00009192946464949493101017F01013F4049
:1002D00040403F1F2040201F7F2018207F631408CC
:1002E00014630304780403615149454300007F41CE
:1002F00041020408102041417F0000040201020471
:100300004040404040000102040020545454787F93
:10031000484444383844444420384444487F38549E
:10032000545418087E090102081454543C7F0804F0
:10033000047800447D40002040443D00007F1028A8
:100340004400417F40007C041804787C0804047851
:1003500038444444387C14141408081414187C7C61
:10036000080404084854545420043F4440203C40AE
:1003700040207C1C2040201C3C4030403C44281045
:1003800028440C5050503C4464544C4400083641BE
:100390000000007F0000004136080008082A1C0801
:1003A000081C2A08080011241FBECFEFD8E0DEBFCA
:1003B000CDBF11E0A0E0B1E0E6E9FEE102C00590AA
:1003C0000D92A030B107D9F725E0A0E0B1E001C05F
:1003D0001D92AC32B207E1F70E943E030C94490F24
:1003E0000C9400001F920F920FB60F9211248F935E
:1003F00080910101882331F081E080930001109207
:10040000010105C0809101018F5F809301018F91EF
:100410000F900FBE0F901F901895509851985298BA
:1004200053985498589A599A5A9A5B9A5C9AE9E662
:10043000F0E080818A6A80838DB38F608DBBEFE6A8
:10044000F0E08081806280831092270508951F92DA
:100450000F920FB60F9211248F93809127058F5F13
:10046000809327058F910F900FBE0F901F901895C6
:100470001F920F920FB60F9211248F938091270530
:100480008F5F809327058F910F900FBE0F901F9065
:1004900018951F920F920FB60F9211248F9380918F
:1004A00027058F5F809327058F910F900FBE0F90C8
:1004B0001F9018951F920F920FB60F9211248F93D1
:1004C0008C9A809127058F5F809327058F910F90DD
:1004D0000FBE0F901F9018951F920F920FB60F929C
:1004E00011248F93809127058F5F809327058F912B
:1004F0000F900FBE0F901F90189580E0ADEEB0E00A
:100500003EEE20E0982F9295907F9C93E32FF22F60
:100510001192E83FF105E1F78F5F8F3099F7089569
:10052000EDEEF0E0208110828091EF00807C69F098
:1005300081E0ADEEB0E0EFEEF0E0982F9295907F85
:100540009C939081907C29F401C080E02093ED0081
:1005500008958F5F8F3089F72093ED008FEF089516
:100560008091EF00807C61F08091EE00982F907E6A
:10057000282F2076203231F0903431F08F71089599
:100580008FEF0895892F0895892F0895CF93DF93D2
:100590002091EF002F7099F060E0CAEFD0E0AFEE4D
:1005A000B0E02881FC01E60FF11D20836F5F2C91E4
:1005B000462F50E02F7030E04217530794F3DF913D
:1005C000CF91089581E08093D8008AE08093E20083
:1005D0008CE08093E30087E38093E40081E008955A
:1005E000CF93DF93CDB7DEB764970FB6F894DEBF35
:1005F0000FBECDBFFE01319688E0DF011D928A95C6
:10060000E9F7F98BE88B1A8A80E890E09C878B8762
:100610001C8A1B8A1F8682E08A87CE0109960E9467
:1006200013068111FACFCE0109960E94420B813048
:10063000D1F364960FB6F894DEBF0FBECDBFDF9145
:10064000CF910895CF93DF93EA01E82FF92F20E0AF
:1006500011922F5F2830E1F78F83988719867B836B
:100660006A831B861A8688E08E838983CE010E9466
:1006700013068111FBCFDF91CF910895CF93DF93C4
:10068000CDB7DEB768970FB6F894DEBF0FBECDBF0B
:10069000FE013D9688E0DF011D928A95E9F785B756
:1006A000806885BF85B7806885BF849A279A989AA5
:1006B0002F9AA0980E940D0287E99AE30197F1F71B
:1006C00000C000000E94D80CA7E9BAE31197F1F727
:1006D00000C000000E94380D60E080E00E94200D04
:1006E00080E00E9404060E94750E8C98789423E3A3
:1006F0004EE16CE086E60E94EA0B23E04CE069E004
:100700008FE60E94260C1D8A1E8A1F8A188E412C95
:10071000512C212C312C912C612C812CC12CD12CD1
:10072000E12CF12CB12CAA24A3940F2EFCE07F2EF7
:10073000F02D05C00F2EFFE76F2EF02DB12C0E947B
:10074000A40E8823E1F30E948E0E8C010E94F00219
:1007500080910201811104C08C9AA092020103C011
:100760008C9810920201B11035C0AE014F5F5F4FFF
:1007700066E871E0CE010D960E94220317C0CE01FB
:1007800001960E94420B811111C08D85CE84D12C1F
:10079000DC2CCC24C80ED11C8F85E888F12CFE2CD3
:1007A000EE24E80EF11C89889C8805C0C8010E94CF
:1007B000930ECC9720F3CE0101960E94420B882322
:1007C00039F07A82CE0101960E9413068111FACF88
:1007D000BA2CB5CFB1E0BB1235C0AE014F5F5F4F51
:1007E00066E072E0CE010D960E94220315C0CE0194
:1007F00001960E94420B81110FC08D852E84312CF1
:10080000322C2224280E311C88894988512C542CE2
:100810004424480E511C05C0C8010E94930ECC9779
:1008200030F3CE0101960E94420B882339F07A8280
:10083000CE0101960E9413068111FACF6894BB2461
:10084000B1F87DCF22E0B2127ACFAE014F5F5F4F99
:1008500060E971E0CE010D960E9422030DC0CE0129
:1008600001960E94420B811107C03E853E8B88890C
:100870008F8B9F85988F05C0C8010E94930ECC97DF
:1008800070F3CE0101960E94420B882339F07A82E0
:10089000CE0101960E9413068111FACF60E080E03C
:1008A0000E94200D8DEB91E00E94730D8EEA91E085
:1008B0000E94730D60E084E20E94200DAFE09A1662
:1008C00009F468C0A915E8F0B4E09B1609F44EC01D
:1008D000B91558F022E0921609F43EC0291508F423
:1008E00040C031E0931699F182C086E0981609F471
:1008F00047C0981608F43FC097E0991609F445C020
:1009000076C0A0E49A1609F459C0A91560F0B0E2C7
:100910009B1609F449C020E3921609F44AC030E15D
:10092000931265C03CC080E6981609F451C0891541
:1009300028F090E5991609F446C059C0A0EE9A1621
:1009400009F44BC0B0EF9B1609F44CC050C089EAC3
:1009500091E00E94730D4FC08DE991E00E94730DEC
:100960004AC081E991E00E94730D45C083E891E09F
:100970000E94730D40C08AE791E00E94730D3BC056
:100980008DE691E00E94730D36C080E691E00E94F2
:10099000730D31C08AE591E00E94730D2CC084E58F
:1009A00091E00E94730D27C087E491E00E94730DCF
:1009B00022C08AE391E00E94730D1DC08FE291E096
:1009C0000E94730D18C085E291E00E94730D13C060
:1009D00087E191E00E94730D0EC08CE091E00E94CF
:1009E000730D09C08CEF90E00E94730D04C084EF7A
:1009F00090E00E94730D6A2D80E00E94200D8BEE26
:100A000090E00E94730D24E630E0D7010E94F90EB9
:100A1000DC01CB01689413F8B695A7959795879557
:100A20001694D1F70E94F60D89EE90E00E94730DA6
:100A300062E080E00E94200D80EE90E00E94730D45
:100A400024E630E0D6010E94F90EDC01CB01689467
:100A500013F8B695A795979587951694D1F70E94A8
:100A6000F60D8EED90E00E94730D63E080E00E9431
:100A7000200D88ED90E00E94730DC1010E945A0E76
:100A800085ED90E00E94730D64E080E00E94200DEF
:100A90008FEC90E00E94730DC2010E945A0E8CEC04
:100AA00090E00E94730D65E080E00E94200D85ECCF
:100AB00090E00E94730D2E89822F992787FD9095D3
:100AC0000E945A0E83EC90E00E94730D66E080E075
:100AD0000E94200D89EB90E00E94730D888D282FD5
:100AE000332727FD3095C901880F991F220F331F27
:100AF000220F331F220F331F820F931F0E94F60D08
:100B000087EB90E00E94730D67E080E00E94200D6B
:100B10008CEA90E00E94730D22E33F893203C0010A
:100B200011240E94F60D8AEA90E00E94730D8091D4
:100B30002705813099F58D898E3099F421E34CE1B8
:100B40006DE087E60E944C0C23E04AE16AE388E608
:100B50000E94260CAD8A0F2EFFE76F2EF02DB12CD0
:100B6000EECD6D896195660F660F665C23E04AE104
:100B700088E60E94260C9D899F5F9D8B9D3008F41E
:100B8000D9CD21E34CE16DE087E60E944C0C1D8A33
:100B90000F2EFFE76F2EF02DB12CD1CDAFE76A12EB
:100BA00009C021E34CE16DE087E60E944C0CBEE0F9
:100BB000BD8B612C681421F1681488F424E6281593
:100BC00020F40F2EF4E68F2EF02D282D26956EE3BF
:100BD000621B4CE187E60E94260C682C11C0882D10
:100BE000869522E330E0281B31092233310510F0CD
:100BF00021E330E04CE16DE087E60E944C0C682C6C
:100C000010922705B12C9BCD0E94E202882349F067
:100C10000E947D02E8EDF0E080818260808381E0C7
:100C2000089580E008950F931F93CF93DF9300D032
:100C300000D0CDB7DEB78C01DC0111968C911197F5
:100C40008C30B1F419968C911997803669F48C9197
:100C50008295807F8093ED00EFEEF0E080818F73CE
:100C600080831092EE001C92F801118680E001C58D
:100C70000E9490028F3F09F4F7C490E6D8011996BC
:100C80009C9319978C938295807F8093ED00EEEE74
:100C9000F0E01192E83FF105E1F7F801418150E001
:100CA000FA013197EB30F10508F0DAC4E65BFF4F4B
:100CB0000C94E40ED80116968C918111CBC3DCC341
:100CC000F8018385882369F19481929596959770B0
:100CD0008581880F880F880F890F8093F300938197
:100CE0009295969597708481880F880F880F890F49
:100CF0008093F20092819295969597708381880FE8
:100D0000880F880F890F8093F1008281880F880FE8
:100D1000880F8093F000EFEEF0E0808180618083A7
:100D200017C082818695869586959381B0E29B9FB8
:100D3000800D11248093F300F80182818295880F41
:100D4000807E8093F200EFEEF0E080818F7E8083E2
:100D5000D80116968C91882391F080E02AEF30E03C
:100D6000D8011796ED91FC911897E80FF11D90812D
:100D7000F90190838F5F16969C91891788F3D801AB
:100D80001A968C91882331F0E0EFF0E08081846046
:100D9000808305C0E0EFF0E080818B7F8083EFEE01
:100DA000F0E09081D80116968C91892B8083808108
:100DB0008F73808380818064808380E05AC4F801CF
:100DC0008385882369F194819295969597708581A2
:100DD000880F880F880F890F8093F3009381929575
:100DE000969597708481880F880F880F890F80935C
:100DF000F20092819295969597708381880F880F63
:100E0000880F890F8093F1008281880F880F880FE7
:100E10008093F000EFEEF0E080818061808317C066
:100E200082818695869586959381B0E29B9F800D01
:100E300011248093F300F80182818295880F807ECF
:100E40008093F200EFEEF0E080818F7E8083D80106
:100E500016968C91882391F080E02AEF30E0D8013B
:100E60001796ED91FC911897E80FF11D9081F9010B
:100E700090838F5F16969C91891788F3D8011A96F4
:100E80001C921A97E0EFF0E080818B7F8083EFEE79
:100E9000F0E0908116968C91892B808380818F73EE
:100EA000808380818064808380E0E3C3F801838550
:100EB000882369F194819295969597708581880F22
:100EC000880F880F890F8093F300938192959695F0
:100ED00097708481880F880F880F890F8093F200A4
:100EE00092819295969597708381880F880F880FCD
:100EF000890F8093F1008281880F880F880F80937B
:100F0000F000EFEEF0E080818061808317C0828185
:100F10008695869586959381B0E29B9F800D1124DE
:100F20008093F300F80182818295880F807E809300
:100F3000F200EFEEF0E080818F7E808381E0D801C7
:100F40001A968C931A97E0EFF0E08081846080839A
:100F5000EFEEF0E0908116968C91892B8083808152
:100F60008F73808380818064808380E082C3198254
:100F70001A821B821C821092F7009A819295969594
:100F800097708B81880F880F880F890F8093F600E8
:100F900099819295969597708A81880F880F880F0E
:100FA000890F8093F5008981880F880F880F24EFBF
:100FB00030E0F9018083EFEEF0E09081D8011696E1
:100FC0008C91892B8083D9018C918B7F8C938C9110
:100FD0008E7F8C9380818F738083808180688083F3
:100FE00080E047C319821A821B821C821092F7008C
:100FF0009A819295969597708B81880F880F880FAC
:10100000890F8093F60099819295969597708A81C1
:10101000880F880F880F890F8093F5008981880FCA
:10102000880F880F44EF50E0FA018083EFEEF0E084
:101030009081D80116968C911697892B80831A96E9
:101040001C92DA018C9184608C9380EF90E0DC013B
:101050002C912B7F2C93DA018C918E7F8C93808145
:101060008F73808380818068808380E002C31982CF
:101070001A821B821C821092F7009A819295969593
:1010800097708B81880F880F880F890F8093F600E7
:1010900099819295969597708A81880F880F880F0D
:1010A000890F8093F5008981880F880F880F44EF9E
:1010B00050E0FA018083EFEEF0E09081D8011696BF
:1010C0008C911697892B808381E01A968C93DA0194
:1010D0008C9184608C9380EF90E0DC012C912460F3
:1010E0002C9380818F7D8083DA018C918E7F8C930D
:1010F00080818F73808380818068808380E0B9C223
:10110000F8018385882369F194819295969597706B
:101110008581880F880F880F890F8093F300938152
:101120009295969597708481880F880F880F890F04
:101130008093F20092819295969597708381880FA3
:10114000880F880F890F8093F1008281880F880FA4
:10115000880F8093F000EFEEF0E080818061808363
:1011600017C082818695869586959381B0E29B9F74
:10117000800D11248093F300F80182818295880FFD
:10118000807E8093F200EFEEF0E080818F7E80839E
:101190008FEF9FEFDC0189839A83AB83BC838093BD
:1011A000F7009A819295969597708B81880F880F9A
:1011B000880F890F8093F600998192959695977084
:1011C0008A81880F880F880F890F8093F5008981A5
:1011D000880F880F880F24EF30E0D9018C93EFEE51
:1011E000F0E09081D80116968C91892B8083D901EB
:1011F0008C918B7F8C938C9181608C9380818F7389
:10120000808380818068808380E033C2F801838599
:10121000882369F194819295969597708581880FBE
:10122000880F880F890F8093F3009381929596958C
:1012300097708481880F880F880F890F8093F20040
:1012400092819295969597708381880F880F880F69
:10125000890F8093F1008281880F880F880F809317
:10126000F000EFEEF0E080818061808317C0828122
:101270008695869586959381B0E29B9F800D11247B
:101280008093F300F80182818295880F807E80939D
:10129000F200EFEEF0E080818F7E80838FEF9FEF92
:1012A000DC0189839A83AB83BC838093F7009A81A6
:1012B0009295969597708B81880F880F880F890F6C
:1012C0008093F60099819295969597708A81880F00
:1012D000880F880F890F8093F5008981880F880F08
:1012E000880F44EF50E0DA018C93EFEEF0E090814C
:1012F000D80116968C911697892B80831A961C928A
:10130000DA018C9184608C9380EF90E0DC012C9169
:101310002B7F2C93DA018C9181608C9380818F7369
:10132000808380818068808380E0A3C1F801838509
:10133000882369F194819295969597708581880F9D
:10134000880F880F890F8093F3009381929596956B
:1013500097708481880F880F880F890F8093F2001F
:1013600092819295969597708381880F880F880F48
:10137000890F8093F1008281880F880F880F8093F6
:10138000F000EFEEF0E080818061808317C0828101
:101390008695869586959381B0E29B9F800D11245A
:1013A0008093F300F80182818295880F807E80937C
:1013B000F200EFEEF0E080818F7E80838FEF9FEF71
:1013C000DC0189839A83AB83BC838093F7009A8185
:1013D0009295969597708B81880F880F880F890F4B
:1013E0008093F60099819295969597708A81880FDF
:1013F000880F880F890F8093F5008981880F880FE7
:10140000880F44EF50E0DA018C93EFEEF0E090812A
:10141000D80116968C911697892B808381E01A96B5
:101420008C93DA018C9184608C9380EF90E0DC01E6
:101430002C9124602C9380818F7D8083DA018C91A4
:1014400081608C9380818F738083808180688083AA
:1014500080E00FC180E02AEF30E0D8011796ED91CF
:10146000FC911897E80FF11D9081F90190838F5F2F
:1014700016969C91891788F319821A821B821C8206
:101480001092F7009A819295969597708B81880FAC
:10149000880F880F890F8093F60099819295969511
:1014A00097708A81880F880F880F890F8093F500C5
:1014B0008981880F880F880F44EF50E0DA018C9300
:1014C000EFEEF0E09081D80116968C911697892B5B
:1014D000808381E01A968C93DA018C9184608C93DE
:1014E00080EF90E0DC012C9124602C93808180625D
:1014F0008083DA018C918E7F8C9380818F738083BF
:1015000080818068808380E0B4C0F801838588236F
:1015100069F194819295969597708581880F880FCF
:10152000880F890F8093F300938192959695977019
:101530008481880F880F880F890F8093F200928131
:101540009295969597708381880F880F880F890FE1
:101550008093F1008281880F880F880F8093F000BC
:10156000EFEEF0E080818061808317C082818695F4
:10157000869586959381B0E29B9F800D1124809380
:10158000F300F80182818295880F807E8093F200BB
:10159000EFEEF0E080818F7E8083D80116968C91EB
:1015A000882391F080E02AEF30E0D8011796ED9182
:1015B000FC911897E80FF11D9081F90190838F5FDE
:1015C00016969C91891788F38FEF9FEFDC01898332
:1015D0009A83AB83BC838093F7009A81929596950A
:1015E00097708B81880F880F880F890F8093F60082
:1015F00099819295969597708A81880F880F880FA8
:10160000890F8093F5008981880F880F880F44EF38
:1016100050E0DA018C93EFEEF0E09081D80116965D
:101620008C911697892B808381E01A968C93DA012E
:101630008C9184608C9380EF90E0DC012C9124608D
:101640002C93808180628083DA018C9181608C93FD
:1016500080818F73808380818068808380E009C06F
:10166000F801118680E005C08FE1D80119968C93AE
:101670008FEF0F900F900F900F90DF91CF911F91F0
:101680000F910895EF92FF921F93CF93DF93EC0198
:101690008985882309F491C08F3109F490C08F3F68
:1016A00009F48FC088818295807F8093ED000E942D
:1016B000B002182F803259F020F4882309F483C037
:1016C00072C0803409F464C0803A09F06CC00F2EF7
:1016D000FFEEEF2EF12CF02DF70180818F708E83BD
:1016E0008F8198850E94C6028091F00082FB882736
:1016F00080F98A87F701808184FF2DC081E08B8784
:10170000E3EFF0E080818695869586958D83A2EF44
:10171000B0E08C919081869586958695F0E29F9FAA
:10172000800D11248C83E1EFF0E080819C918695FF
:101730008695869520E2929F800D11248B8380915F
:10174000F0009081869586958695E0E29E9F800DBB
:1017500011248A8313C01B86E3EFF0E08081829519
:10176000869587708B838091F2009081990F990FF5
:10177000990F829586958770890F8A831987EFEE76
:10178000F0E080818F7380831092EE0080E01CC0B7
:1017900080E48987EFEEF0E080818F738083109280
:1017A000EE0080E011C01987EFEEF0E080818F73CA
:1017B00080831092EE0082E007C082E005C082E0E4
:1017C00003C082E001C081E0DF91CF911F91FF90C3
:1017D000EF900895DF92EF92FF920F931F93CF93B4
:1017E000DF93C82F162F042FD22E2223A1F0E22E32
:1017F000E60ED62FFF24FA94F40EF80E41E06D2F7A
:101800008C2F0E94940D41E06D2F8F2D0E94940D1E
:10181000DF5FDE11F3CF002389F00C0FDFEFD10F74
:10182000DD0D41E0612F8C2F0E94940D41E06D2F62
:101830008C2F0E94940DCF5FC013F3CFDF91CF9117
:101840001F910F91FF90EF90DF900895EF92FF921C
:101850000F931F93CF93DF93022F4423B1F0F42E05
:10186000F80ED82F122F160FE62E0BC041E06C2F6A
:101870008D2F0E94940DCF5FC113F8CFDF5FDF156E
:1018800021F00023D9F3CE2DF1CFDF91CF911F911D
:101890000F91FF90EF900895DF92EF92FF920F93D8
:1018A0001F93CF93DF93D62EF42E022F2223A1F085
:1018B000142F180FE82E0AC040E06D2F8C2F0E94C5
:1018C000940DCF5FC113F8CF015031F0FF20E1F349
:1018D000CE2DD02FDD0DF0CFDF91CF911F910F9145
:1018E000FF90EF90DF900895229A219A209A0F9A04
:1018F0002398289A8CB58E658CBD10922B0510927A
:101900002A0510922905109228050895179A2898FB
:101910008EBD0DB407FEFDCF289A40912805509149
:10192000290520912A0530912B0594E8949FF00118
:10193000959FF00D1124E20FF31FED5FFE4F8083A2
:1019400080912A0590912B058438910548F4809167
:101950002A0590912B05019690932B0580932A05DB
:101960000895179828988EBD0DB407FEFDCF289ACC
:10197000089590E090932B0580932A0570E0709372
:10198000290560932805089520912805309129059F
:1019900080912A0590912B0544E8429FF001439FD6
:1019A000F00D1124E80FF91FED5FFE4F80810895BF
:1019B0000E94740C81EA0E94B10C80EC0E94B10C70
:1019C00082EA0E94B10C8FE20E94B10C88EC8A95E9
:1019D000F1F788EC8A95F1F788EC8A95F1F788ECB5
:1019E0008A95F1F788EC8A95F1F788EC8A95F1F7FA
:1019F00088EC8A95F1F788EC8A95F1F788EC8A955E
:101A0000F1F788EC8A95F1F781E80E94B10C84E146
:101A10000E94B10C84EA0E94B10C8FEA0E94B10CC2
:101A200086EA0E94B10C80EB0E94B10C80E10E941A
:101A3000B10C80E00E94B10C80E40E94B10C0895CA
:101A4000CF93DF93C82FD62F82958F7080610E942D
:101A5000B10C8C2F8F700E94B10C8D2F806B0E9467
:101A6000B10C6D2F8C2F0E94B90CDF91CF9108958E
:101A70001F93CF93DF93D0E014E86D2F80E00E9496
:101A8000200DC12F80E00E94860CC150D9F7DF5F86
:101A9000D83099F7DF91CF911F9108950F931F933D
:101AA000CF93DF93082F10E000521109C801880F6F
:101AB000991F880F991F080F191FC0E0D0E00B5322
:101AC0001E4FF801EC0FFD1F84910E94860C219699
:101AD000C530D105B1F780E00E94860CDF91CF912F
:101AE0001F910F910895CF93DF93EC012196FC0194
:101AF0008491882339F00E944E0DFE018491219635
:101B00008111F9CFDF91CF910895CF93DF93EC014D
:101B10008881882331F021960E944E0D8991811190
:101B2000FBCFDF91CF910895DF92EF92FF920F9359
:101B30001F93CF93DF937A016F737078772334F418
:101B400061507109606C7F6F6F5F7F4F8B01EB019C
:101B500077230CF42796D595C795D595C795D59538
:101B6000C79564E870E00E94D00ED82E6C2F0E94BA
:101B7000200D0E94C40CEF28A9F0077010781123E3
:101B800034F401501109086F1F6F0F5F1F4F41E0C0
:101B900050E09A0102C0220F331F0A95E2F7082F86
:101BA000022B15C007701078112334F4015011096D
:101BB000086F1F6F0F5F1F4F21E030E0A90102C0C7
:101BC000440F551F0A95E2F78A01009508236C2FF0
:101BD0008D2D0E94200D802F0E94860CDF91CF91C9
:101BE0001F910F91FF90EF90DF900895EF92FF9279
:101BF0000F931F93CF93DF9300D01F92CDB7DEB723
:101C00007C0164E670E00E94D00ECB014AE0BE0188
:101C10006F5F7F4F0E94140F1E141F041CF480E29C
:101C20000E944E0DC70189519C4F8F3C974018F47C
:101C300080E20E944E0D8981882351F08E010E5F53
:101C40001F4F0E944E0DF80181918F018111F9CF34
:101C50008EE20E944E0DC701992324F4882799270C
:101C60008E199F0964E670E00E94D00E8C014AE054
:101C7000BE016F5F7F4F0E94140F0A3011051CF4E4
:101C800080E30E944E0D8981882351F08E010E5F02
:101C90001F4F0E944E0DF80181918F018111F9CFE4
:101CA0000F900F900F90DF91CF911F910F91FF90A8
:101CB000EF900895CF93DF93CDB7DEB727970FB698
:101CC000F894DEBF0FBECDBF4AE0BE016F5F7F4F0D
:101CD0000E94140F0E94850D27960FB6F894DEBF60
:101CE0000FBECDBFDF91CF910895E6EBF0E080818C
:101CF00088608083E0E7F0E080818260808381E219
:101D00008093B300A0EBB0E08C9189608C938081CC
:101D10008160808383B3886183BB089580912505AA
:101D200090912605089520912505309126052817C4
:101D3000390728F0A901481B590BCA010895281B2F
:101D4000390BC901019708958091230590912405CD
:101D50000E94930E8434924050F08091250590911A
:101D60002605909324058093230581E0089580E063
:101D700008951F920F920FB60F9211248F939F9385
:101D800080912505909126050196909326058093D4
:101D900025059F918F910F900FBE0F901F90189562
:101DA00097FB072E16F4009407D077FD09D00E9408
:101DB000000F07FC05D03EF4909581959F4F089544
:101DC000709561957F4F0895EE0FFF1F0590F49178
:101DD000E02D0994A29FB001B39FC001A39F700D95
:101DE000811D1124911DB29F700D811D1124911D23
:101DF00008950E94EA0EB7FF0895821B930B089581
:101E0000AA1BBB1B51E107C0AA1FBB1FA617B70720
:101E100010F0A61BB70B881F991F5A95A9F780953C
:101E20009095BC01CD010895BB274A3031F4992328
:101E300022F4BDE2909581959F4F0C94200FBB2713
:101E4000FB015527AA27880F991FAA1FA41710F076
:101E5000A41B83955051B9F7A05DAA3308F0A95D82
:101E6000A193009779F7B111B1931192CB010C9422
:101E7000390FDC01FC01672F71917723E1F732976D
:101E800004C07C916D9370836291AE17BF07C8F355
:061E90000895F894FFCF55
:00000001FF
