S018000057696E636820436F6E74726F6C6C65722E73726563CF
S11300000C943E000C945B000C945B000C945B001D
S11300100C945B000C9453050C945B000C945B00F3
S11300200C945B000C945B000C945B000C945B00E0
S11300300C94CF050C94D9050C94C5050C94AE050D
S11300400C945B000C945B000C9428040C945B00EF
S11300500C945B000C945B000C94EC020C9437033E
S11300600C945B000C945B000C945B000C940301F7
S11300700C945B000C945B000C945B0011241FBE79
S1130080CFEFD8E0DEBFCDBF11E0A0E0B1E0E2E603
S1130090FCE002C005900D92AE30B107D9F721E023
S11300A0AEE0B1E001C01D92A137B207E1F70E94B2
S11300B074010C942F060C940000EBE7F0E08081AF
S11300C0806A8083EAE7F0E080818F688083ECE7D0
S11300D0F0E08081806480830895ECE7F0E0908113
S11300E08F70907F892B80830895EAE7F0E0808108
S11300F08064808308959091300180911101992347
S1130100F9F081111DC0E091310180917800909146
S11301107900F0E0EE0FFF1FEE5EFE4F91838083C7
S113012010923001809131018E3020F01092310113
S113013081E02BC0809131018F5F8093310108955C
S1130140813031F51092100110920F01E4E1F1E0D9
S113015020910F013091100181919191820F931F91
S11301609093100180930F0181E0E033F80781F749
S113017080910F01909110016EE070E00E94E30500
S11301807093100160930F0182E080931101089530
S11301908230C1F580910E01893069F08A30A1F076
S11301A08430D1F480910F01909110019093470114
S11301B08093460111C080910F019091100190939A
S11301C045018093440108C080910F019091100172
S11301D0909343018093420180910E018A3030F460
S11301E080910E018F5F80930E0102C010920E0168
S11301F0E0910E01F0E0E050FF4F8081882361F32D
S11302001092110108951F920F920FB60F921124AC
S11302102F933F934F935F936F937F938F939F930A
S1130220AF93BF93EF93FF9380917C0090910E0165
S11302308F70891729F080910E010E946D0003C010
S113024081E0809330010E947500FF91EF91BF918E
S1130250AF919F918F917F916F915F914F913F915A
S11302602F910F900FBE0F901F90189589B5836042
S113027089BD529A539A5A9A5B9A239A57985698D8
S11302805598219820983998519838985F9A5E9A91
S11302905D9A299A289A419A599A409A22983C98A8
S11302A02598E8E6F0E0808183608083EAE6F0E068
S11302B0808184608083EBE6F0E0808180618083CC
S11302C0089589B1881F8827881F4E9982604D99A7
S11302D0846019998860189980613199806249997C
S11302E080643099806808950E9436010E946805F0
S11302F00E9461010E9482030E945D000E94020527
S113030078941A9B02C0349910C01A9B05C02B9A8A
S113031010920B0182E006C0349B07C02B9A109206
S11303200B0181E08093350103C081E080930B01D0
S11303302B9A0E9475000E947B05EC010E947B05AC
S11303408C01B12C712CC12CD12C58EEE52E53E02C
S1130350F52E63E0A62E72E0972E882483940E94E3
S11303609A058823E1F30E9437040E947B000E94CF
S113037023058091340180934C0183B18072809372
S11303804D01C092490170924A01B0924B01C801DB
S11303900E9480058135934C58F02B988FE59AEE96
S11303A00197F1F700C000000E947B058C012B9A95
S11303B080913501823021F080913501813021F422
S11303C05A9A1D9908C005C0809135015A98833006
S11303D011F45B9A01C05B98A0914401B09145016E
S11303E0CD018A579F4F8F3F934088F42AEA30E02B
S11303F00E9428066A55764A8F4F9F4F4AE0969589
S11304008795779567954A95D1F7B62E01C0B12C9B
S1130410A0914601B0914701CD014A978F3F934087
S113042088F428EC30E00E9428066858734181095A
S113043091093AE096958795779567953A95D1F71E
S1130440762E01C0712CA0914201B0914301CD01DF
S113045092508F3F934088F420E233E00E942806B4
S1130460605E7C43864091092AE09695879577954E
S113047067952A95D1F76B0102C0C12CD12C8091CC
S11304803501833009F46BCF80913501882309F459
S113049066CF80913501823029F080913501813019
S11304A009F05DCF1D9B04C080E8C816D10430F468
S11304B01D9911C092E3C916D10468F080913201EC
S11304C0909133010E9480058B34910520F0A09215
S11304D035010E94FC040E947B058C01809134014B
S11304E081110CC00E947B05EC010E947B05909356
S11304F03301809332018092340131CF80913401F1
S1130500813041F5CE010E9480050F9708F427CF72
S113051080913501823029F41D9B08C088E592E062
S113052007C01D9B03C088EC90E002C082EC91E000
S11305309093700180936F01909234010E947B0527
S1130540EC010E947B0590933301809332010E9459
S1130550F00405CF809134018230D9F5CE010E9498
S113056080052091350123B1499708F4F8CE0E9403
S11305707B05EC0140916F01509170018091350130
S1130580823029F41D9B05C024EE33E004C01D997C
S1130590FBCF20EE33E024173507A0F0809135011E
S11305A0823029F41D9B05C084E090E004C01D99AD
S11305B0FBCF88E090E0840F951F909370018093A7
S11305C06F01CDCEF0927001E0926F01A0923401E0
S11305D0C6CE80913401C3CE1F920F920FB60F92F4
S11305E011242F933F934F935F936F937F938F9334
S11305F09F93AF93BF93EF93FF931A9B1BC080917C
S11306003501811117C082E08093350184E690E0C2
S11306109093700180936F010E947B059093330146
S11306208093320180910B01813081F410920B018F
S11306302B9A0CC01A990AC080913501882331F095
S1130640109235010E94FC0410923401FF91EF9145
S1130650BF91AF919F918F917F916F915F914F91D6
S11306603F912F910F900FBE0F901F9018951F92DE
S11306700F920FB60F9211242F933F934F935F93D2
S11306806F937F938F939F93AF93BF93EF93FF9356
S1130690349B1BC080913501811117C081E0809388
S11306A0350184E690E09093700180936F010E947D
S11306B07B05909333018093320180910B0181304B
S11306C081F410920B012B9A0CC034990AC08091CA
S11306D03501882331F0109235010E94FC041092F8
S11306E03401FF91EF91BF91AF919F918F917F91D1
S11306F06F915F914F913F912F910F900FBE0F908B
S11307001F90189580FD05C020E931E040E152E0DA
S113071004C021E931E041E152E081FF04C04E5FB1
S11307205F4F2E5F3F4F82FF04C04C5F5F4F2C5FD3
S11307303F4F81E08093D8001092E5008091E20061
S11307408E608093E2008091E3008C608093E300EC
S11307508091E40087638093E40080E0982F929571
S1130760907F9093ED001092EF001092EE008F5F57
S11307708630A1F78091DB00806A8093DB001092C1
S1130780ED001092F4001092F5008FEF8093F600C4
S11307908093F7001092EF009091EF00906890938F
S11307A0EF001092F0001092F1001092F20030E18C
S11307B03093F3009091DE0091609093DE003093CB
S11307C0ED001092F4001092F5008093F6008093EF
S11307D0F7001092EF009091EF0098689093EF006B
S11307E01092F0001092F1004295440F407E409325
S11307F0F20092E49093F3009091DE009260909363
S1130800DE0090E29093ED001092F4001092F50057
S113081090EE9093F6008093F7001092EF00109200
S1130820F0001092F1002295220F207E2093F20016
S113083082E38093F3008091DE0084608093DE0085
S1130840109239018091D80082608093D800089575
S11308501F920F920FB60F9211248F9381E0809311
S113086039018F910F900FBE0F901F9018958091B2
S11308703901882339F1109239018091EC00807F8D
S11308808093ED008091ED0082958F7089F48091C2
S1130890EE0085FF03C081E0809338011092EE00E2
S11308A01092EF008091EF0080688093EF0008952C
S11308B08091ED0082958F70823009F090C0109283
S11308C0EE000895809138018823D9F180910C01BC
S11308D08295807F8093ED008091DC0090E0009011
S11308E00C0102C0959587950A94E2F780FD18C023
S11308F080E090E020910C01FC0138E0239FE00DA2
S1130900F11D1124E95BFE4F20812093FA0001962A
S11309108830910579F71092EE0088E48093EF0017
S113092080910C01823048F082E080930C01109297
S1130930380181E08093370108958F5F80930C0123
S1130940089580913701882309F449C080913601C4
S1130950811102C081E01FC0813001F580914C01FA
S11309608093570180914A018093580180914B01F3
S1130970809359018091490180935A0180914D01DE
S113098080935B0180914E0180935C0110925D0124
S113099010925E0182E08093360108958230A1F4C2
S11309A080914C0180935F0110926001109261016B
S11309B01092620110926301109264011092650119
S11309C01092660183E0E7CF833049F481E080939D
S11309D06701109268011092370110923601089550
S11309E08CEC90E09093A3008093A200E7EBF0E0FE
S11309F08081816080830895E7EBF0E080818E7FC1
S1130A0080830895509A5898589AE5EBF0E08081D5
S1130A108C60808380E88093B700E8EBF0E080810D
S1130A20806880838FEF97E09093B3008093B20047
S1130A3081E08093B60084E690E090937001809307
S1130A406F010C94FC0480916F01909170012091CE
S1130A503C0130913D018217930721F1893E23E047
S1130A60920710F088EE93E090933B0180933A0153
S1130A7020913A0130913B01AFEFB7E00E94190693
S1130A8028EE33E040E050E00E94F7053093A300E5
S1130A902093A20080916F019091700190933D0189
S1130AA080933C0108951F920F920FB60F92112468
S1130AB08F93EF93FF93ECEBF0E08081826080836F
S1130AC0FF91EF918F910F900FBE0F901F9018958B
S1130AD084B5826084BD89EF87BDEEE6F0E0808155
S1130AE08260808385B5836085BDE1E8F0E0808124
S1130AF0836080830895809140019091410108951D
S1130B009C014091400150914101CA01821B930B09
S1130B104217530708F4019708959C0140918400FB
S1130B2050918500CA01821B930B4217530708F4A6
S1130B300197089580913E0190913F010E948D0597
S1130B40499750F0809184009091850090933F01E3
S1130B5080933E0181E0089580E008951F920F92F2
S1130B600FB60F9211248F939F938091400190911F
S1130B704101019690934101809340019F918F918F
S1130B800F900FBE0F901F9018951F920F920FB6E3
S1130B900F9211240F900FBE0F901F9018951F9263
S1130BA00F920FB60F9211240F900FBE0F901F904B
S1130BB018951F920F920FB60F9211240F900FBE2B
S1130BC00F901F901895AA1BBB1B51E107C0AA1FC9
S1130BD0BB1FA617B70710F0A61BB70B881F991FDA
S1130BE05A95A9F780959095BC01CD010895A1E28D
S1130BF01A2EAA1BBB1BFD010DC0AA1FBB1FEE1F93
S1130C00FF1FA217B307E407F50720F0A21BB30BDD
S1130C10E40BF50B661F771F881F991F1A9469F759
S1130C2060957095809590959B01AC01BD01CF01B5
S1130C300895A29FB001B39FC001A39F700D811DB1
S1130C401124911DB29F700D811D1124911D0895D1
S1130C500E941906B7FF0895821B930B0895F89418
S1050C60FFCFC0
S1110C6200000000010000000001010102007A
S9030000FC
